S01B0000626F6F746C6F616465722D6170706C6F616465722E733337C9
S3150800000008100020FBA50008F9A500083FA700086E
S31508000010F9A50008F9A50008F9A50008F9A500083A
S31508000020F9A50008F9A5000820BF0008F9A50008E9
S31508000030F9A5000868BF0008F9A50008F9A5000891
S31508000040F9A50008F9A50008F9A50008F9A500080A
S31508000050F9A50008F9A50008F9A50008F9A50008FA
S31508000060F9A50008F9A50008F9A50008F9A50008EA
S31508000070F9A50008F9A50008F9A50008F9A50008DA
S31508000080F9A50008F9A50008F9A50008F9A50008CA
S31508000090F9A50008F9A50008F9A50008F9A50008BA
S315080000A0F9A50008F9A50008F9A50008F9A50008AA
S315080000B0F9A50008F9A50008F9A50008F9A500089A
S315080000C0F9A50008F9A50008758F0008F9A5000824
S315080000D04599000827BE000823BE00084591000878
S315080000E033BE00082BBE00081D9900082FBE000865
S315080000F085990008057C0008F1990008557C0008D8
S31508000100F9A50008F9A50008F9A50008F9A5000849
S31508000110F9A50008F9A50008F9A50008F9A5000839
S31508000120F9A50008F9A50008F9A50008F9A5000829
S31508000130F9A50008F9A50008F9A50008F9A5000819
S31508000140F9A50008F9A50008F9A5000800000000AF
S3150800015070B506468AB032480BF04CFB3148324B34
S3150800016000210360314B324C436004F001FC2AA3A2
S31508000170D3E90023CDE900234FF0FF334FF0FF32D8
S3150800018020600BF09CFB02224FF0FF3120680BF039
S3150800019098FB00239422CDE9073309933C23CDE944
S315080001A003320593962303A92068069304F0E4FC1A
S315080001B002F01AFB2546014620680BF099FB2068D9
S315080001C00BF005FCB6F9001055F8080B0BF0A5FB6B
S315080001D07668D6B9284602F0E3FFA37B66F30003E8
S315080001E0A373202310222384124B83F8262383F833
S315080001F0272383F82B2383F82A2383F8282383F8D5
S31508000200252383F829230AB070BD3068A060B28818
S31508000210B379AA80AB71E4E70855005100000000E5
S31508000220690345ECB41A0020C53E0008A81A002048
S31508000230841A002000E100E010B5054C237833B994
S31508000240044B13B1044800E000BF0123237010BD1E
S315080002507812002000000000EC08010808B5034BDE
S315080002601BB10349034800E000BF08BD00000000B9
S315080002707C120020EC08010810B5234C01F042FE60
S3150800028001F05EFF236F23F0070343F003032367A0
S315080002900AF0EBFB1D4B00209B6A9B075EBF012201
S315080002A01B4B9A62D4F8203123F0030343F0020370
S315080002B0C4F82031D4F8243123F0070343F00203AD
S315080002C0C4F82431D4F8403123F0030343F0010382
S315080002D0C4F84031D4F8603123F0030343F0010336
S315080002E0C4F86031D4F8403223F0030343F0010325
S315080002F0C4F84032D4F8003223F0070343F0010370
S31508000300C4F8003210BD00BF0080005000C0005085
S3150800031000E00050064B0748DA1C121AC11E22F0EC
S315080003200302994288BF002203490BF0A8BD00BF0B
S31508000330681000200810002000090108064B07482D
S31508000340DA1C121AC11E22F00302994288BF002243
S3150800035000210BF0BBBD00BF8C23002068100020D5
S315080003604FF400414FF0FF30114B124A10B59A6016
S31508000370D3F8882042F47002C3F888200E4A9166A2
S3150800038001F1884101F5005210660C4850660220BA
S31508000390C3F8D000BFF34F8FBFF36F8F08244FF415
S315080003A040330748C0F88041D36004600B6110BD34
S315080003B000ED00E000000008009000507FFF0700F5
S315080003C000E100E0014B1868704700BF0C100020E0
S315080003D0084B1B6F03F00703022B04D0032B05D031
S315080003E0012B05D0FEE7044B18687047034BFBE763
S315080003F003487047008000500C10002010100020A1
S31508000400002D310108B5FFF7E3FF054B1B6FC3F35A
S3150800041003330133B0FBF3F0024B186008BD00BF8D
S3150800042000800050081000200048704700B4C4043B
S31508000430014B1868704700BF10100020054B186064
S31508000440054B1B6F03F00703032B01D1FFF7DABF38
S31508000450704700BF10100020008000500048704709
S31508000460002D3101014B1868704700BF1410002099
S3150800047010B5154BADF5087D03AC0FCB84E80F001E
S315080004802C22002107A80BF021FDFF234FF49472BC
S3150800049000213EA88DF81D300BF018FD48220021DA
S315080004A00DEB02000BF012FD6822002124A80BF0C8
S315080004B00DFD009424AB12AA3EA907A800F0E2F8A5
S315080004C00DF5087D10BD00BFF4BE00080122044BDF
S315080004D01A700023034A1370034A1370704700BF4B
S315080004E05D2300205C2300205E230020002238B50F
S315080004F0124B134C1A700122124B1A7023689A7801
S31508000500DAB1DA78CAB11A78510706D5986A0AF0C4
S3150800051002F910B10C4800F0F3F923681A7892072B
S315080005200BD55D680AF0DDF8854206D923680648CA
S31508000530596ABDE8384000F0BBB938BD5D230020D4
S315080005409C1200205C2300200080010807B50246A3
S3150800055001200B46064908700649074809680091B4
S3150800056006490068096800F00BFC03B05DF804FB57
S315080005705E230020A0120020A41200209C12002056
S31508000580044A05490548202312680968006800F0EE
S31508000590BDBB00BF9412002098120020A4120020B0
S315080005A0094B1A68D37892782AB1002B41F20C00CD
S315080005B018BF0020704741F20C0240F20570002B6C
S315080005C008BF1046704700BF9C12002008B5FFF709
S315080005D053FE02F039FC0AF009FE02F0F9F8BDE80C
S315080005E0084001480AF007BEA812002010B5234BA0
S315080005F0234C18681B7992B08DF80C30238802902A
S31508000600ADF80D30A37868468DF80F300AF001FE74
S3150800061041F60833ADF810309DF806300098C3F35C
S3150800062000038DF81230BDF80430CDF81300ADF88C
S31508000630173040F60223ADF8283000238DF82A300B
S3150800064002F03EFC02F042FC2046032102F044FC84
S3150800065002F04AFC02F02EFC112102A80AF0EDFD78
S3150800066003210AA80AF0F0FD01200AF0F4FD00288B
S3150800067040F2017008BF002012B010BD04BF000888
S315080006800ABF000870B5134C134E20601348144D6A
S31508000690016014490A60144A1360049A134B1A60DD
S315080006A033780BB10AF0B3FD2B78002BF8D0104B3A
S315080006B01B784BB123689A784AB1DB7840F205700B
S315080006C0002B18BF002070BD40F20370FBE740F214
S315080006D00570F8E79C1200205D230020A412002074
S315080006E05C2300209812002094120020A0120020FB
S315080006F05E2300201FB500F1006303F5C0330393A2
S31508000700104B144698421BD8039A0F4B9A4217D29D
S31508000710039A9B1AA34213D358B94FF000639B6AF6
S315080007200A4A5869904204D91869019100F012FAE8
S3150800073001992246039804B0BDE8104009F082BF2B
S3150800074004B010BDFF7FFEF700E00B08008001082B
S315080007507FB56FF0006200F17841914203461AD2E4
S315080007606D460E4A02F110062C461068516808328A
S3150800077003C4B2422546F7D15A1E0DF10F010F33B5
S3150800078011F8010912F8014F844204D19A42F7D1AF
S31508000790012004B070BD0020FBE700BF0EBF0008B3
S315080007A02DE9F0410368044603F16043B3F5803F41
S315080007B0A0B034D84FF000639B6A42681E6996421F
S315080007C02DD8394B9A422AD8456B06F14002AA42DF
S315080007D068D89D4266D82846FFF7BAFF002861D038
S315080007E0284609F062FF80B16B6973B1022B0FD1FD
S315080007F0AB69C4F1040119444FF0FF32204600F0FA
S31508000800F7FD2A4BC31A5842584120B0BDE8F0817B
S3150800081040F2046328460493FFF79AFF08B90020BC
S31508000820F3E7284609F041FF0028F8D04FF00067A3
S31508000830D7F834804046FFF78BFF0028EFD0503EAC
S31508000840B045ECD8284605A909F036FF0028E6D0B9
S31508000850BA6A059B12699A42E1D89C42DFD8124AC5
S315080008609342DCD806A800F07FFE059A2146121BA3
S3150800087006A80AF082F806A80AF081F8059C00F096
S3150800088087FE039000F088FE21460090039B04F142
S31508000890200206A800F0EEFD04900498B0FA80F055
S315080008A04009B2E70120B0E700000C08E320BBDEF0
S315080008B030B54FF0FF3289B005460C4600F098FD7A
S315080008C00D4B984215D140F2022000F00DF91C227A
S315080008D0002101A80BF0FAFA084B2946684600934E
S315080008E00AF000F96846211F0AF0FCF8684601F08C
S315080008F0E7FD002009B030BDE320BBDE010006435A
S3150800090010B5044688B040F2022000F0EDF81C222B
S31508000910002101A80BF0DAFA054B21466846009338
S315080009200AF0E0F8684601F0CBFD002008B010BDDB
S31508000930000003430048704700800108044B18462E
S31508000940016881F3088881F3098840688746FEE7CD
S315080009500020010801213A2010B501F06BF80123A7
S3150800096004220021184601F0A7FC194BD3F884206D
S31508000970110606D44FF400621A67D3F88420D2060B
S31508000980FBD409F0D8FE00F099F809F049FE09F001
S3150800099049FE18B14FF4017000F0B2F8FFF768FD90
S315080009A0044609F041FE1CB140F203739C4203D190
S315080009B040F2012000F0A4F8A4F20574012C94BFBB
S315080009C040F203204FF4017000F09AF8002010BDA1
S315080009D00040005037B50124324B8DF806408DF89B
S315080009E00740D3F894305B0610D500F09DF8A0F2C6
S315080009F0022080B2072809D804FA00F010F0C90FBF
S31508000A001EBF00238DF806308DF80730264B5B682D
S31508000A10013308D14FF4027000F066F800238DF810
S31508000A2006308DF807309DF807305BB11E48FFF792
S31508000A30B7FE8DF806009DF806301BB94FF4027014
S31508000A4000F052F89DF806304BB34FF400424FF0D1
S31508000A50FF31164B9A6603F17443196601F50021B6
S31508000A6059660021124BC3F8D010BFF34F8FBFF35E
S31508000A706F8F08250F4CC4F88050BFF34F8FBFF314
S31508000A806F8F4FF440300C490861C4F88051C86034
S31508000A90054801F140618A669860FFF74FFF03B089
S31508000AA030BD00BF004000500020010800900050F3
S31508000AB000ED00E000E100E000A000444CF23C320A
S31508000AC0014B5A80704700BF000000204AF6C0302C
S31508000AD0044B5B8823F00F039BB21B1A58425841FC
S31508000AE0704700BF00000020044A08B51080FFF7D1
S31508000AF0EDFF10B94FF20F03538008BD0000002028
S31508000B0008B5FFF7F1FFBFF34F8F0549054BCA68D4
S31508000B1002F4E0621343CB60BFF34F8F00BFFDE7DB
S31508000B2000ED00E00400FA054FF20F01084B5A8861
S31508000B308A4201D1188870473AB91B8840F20220C8
S31508000B40012B18BF4FF4007070474FF400707047C0
S31508000B50000000204FF4003208B5044B9A6601F0F5
S31508000B6015FCB0FA80F0400908BD00BF009000509F
S31508000B70072BF8B506460F4614461D4601D9002030
S31508000B80F8BD0121202000F055FF0121212000F0A9
S31508000B9051FF8CB144EA06039B07F0D14FF40032AB
S31508000BA0064B31469A66284623463A4601F018FC13
S31508000BB0B0FA80F04009E3E70120E1E70090005031
S31508000BC030B500220C24064B04FB02F1CD588542B1
S31508000BD001D1581830BD01320C2AF5D10020F9E7A9
S31508000BE0B8BF00087FB50023CDE9003308231546B2
S31508000BF00DEB0302044609F03AFE41F2030398425C
S31508000C00064626D194F8433063B10822E06C0DEB12
S31508000C10020109F0B2FE08230DEB03021146A06C8F
S31508000C2009F09AFE039A029B6A6094F843202B60A7
S31508000C305AB9094A934208D0084A934205D008226D
S31508000C40E06C0DEB020109F098FE6B682365002342
S31508000C506365304604B070BDF70A0AF7FC0404FC65
S31508000C602DE9F743044658680E4617469846002865
S31508000C7041D08B0742D14FF000639B6A206E1B69F7
S31508000C8002EB000C1D1D65451CD81C33984219D271
S31508000C908542294638BF01469C4594BFC1EB0C02E4
S31508000CA0C1EB0302081AC5F1680506EB00096818C6
S31508000CB02044494601920BF0E2F8FF214846019A82
S31508000CC00BF004F9226E0F4B9A420AD80E49B8184F
S31508000CD0884206D99B1AF258C4F880204FF0FF3292
S31508000CE0F2503A46D8E90035206E3146A84700202A
S31508000CF0226E3A44226603B0BDE8F08341F2020050
S31508000D00F9E700BF04800108078001082DE9F041D2
S31508000D1000254FF0FF3704468846164603F02003A1
S31508000D2080F842301822FF21C0E91855A0F8405033
S31508000D3080F84350A0F8445080F84650C0F88870B0
S31508000D4068300BF0C3F888222946C4E91286C4F82D
S31508000D508070C4F8847004F190000BF0B7F8074B64
S31508000D60C4F82071C4E9463584F8245116B13046D2
S31508000D7000F0FAFB0020BDE8F08100BF0001010188
S31508000D802DE9F04FA5B09846CDE911230023044676
S31508000D900E462E9D1393139A424501D30020D1E0A7
S31508000DA094F84630132BF7D8DFE813F06700B40041
S31508000DB0AE00520039002D00C4013900BC013900CB
S31508000DC073013900BC01AB021B0314001201510266
S31508000DD0510219034FF00009636D0F2B00F298803A
S31508000DE00127102314AA2046CDF80490009711A9CC
S31508000DF009F03DFD41F203030890089A9A4200F073
S31508000E00D980089B45E04FF00109D4E91432934292
S31508000E1000F2E88084F8469041F2030339E04FF087
S31508000E200109D4E91417B94272D9C91BDDE912724E
S31508000E30BF1A94F840200329174440F28381032FF0
S31508000E4000F28381204611A909F0F0FC002320E076
S31508000E500127636D072BDFD8082314AA2046CDE99E
S31508000E60007711A909F003FD41F203030B900B9AD1
S31508000E709A4200F023810B9B0BE014AA204611A985
S31508000E80FFF7B0FE41F203020590059B934208D096
S31508000E90059B049341F20303049A9A423FF47BAFFD
S31508000EA04FE0159A1499226500226265A34A914279
S31508000EB040F01181022284F84620EAE7012314AAA9
S31508000EC0009320460823019711A909F0D0FC41F2A6
S31508000ED003030690069A9A4201D0069BD9E7149B0B
S31508000EE003F07F43B3F1407F05D0132384F84630DF
S31508000EF041F20903CDE7159BD90706D594F8423088
S31508000F0043F0010384F842300027636D072BD5D9D7
S31508000F1001230CE1204614AA11A9FFF763FE41F24A
S31508000F2003030790079F9F420FD0079F41F20303D1
S31508000F300497049A9A423FF42EAF049B0BB1002300
S31508000F40F370049825B0BDE8F08F1498FFF738FEC3
S31508000F5028B9132341F2080784F84630E6E74379AF
S31508000F6094F824219A4205D9132341F20E0784F8EE
S31508000F704630DBE7026872498A4205D00289D20701
S31508000F8048BF013384F8243194F84230D9070DD587
S31508000F90028994F84330920706D53BB1132341F2F0
S31508000FA0010784F84630C1E7002BF7D0037984F8A7
S31508000FB04630BBE7D4F848A000F0F2FA80230221B5
S31508000FC0CDE9000315AA3B46504600F029FA03E787
S31508000FD0226D0123A265002284F84330E26584F875
S31508000FE04630D8E614AA2046CDE9009911A909F099
S31508000FF03EFC41F203030990099A9A4201D0099BE3
S3150800100047E714AF06F108030DF1680C3A4603CA20
S31508001010624518605960174603F10803F6D110684F
S315080010201860337843F001033370EEE6337843F003
S3150800103004033370179BB36273785F0726D5EB23D7
S315080010408DF8503017238DF85130A6238DF852307D
S315080010505E2300208DF85330236D6066C4F8843013
S3150800106094F8453043F0020384F84530EF686FB1D1
S3150800107004222B6814A9B8470822606E2B68EF680B
S3150800108016A91044B847636E103363660B2384F8B9
S315080010904630636D072B3FF6BFAE012316AACDE98E
S315080010A000332046082311A909F0E1FB41F20303A6
S315080010B00A900A9A9A42B9D00A9BEAE6337843F02C
S315080010C002033370149B7360236D083B7362159B90
S315080010D0B3F1006F05D0132384F8463041F20103BB
S315080010E0D7E6042384F8463094F8453043F00103E4
S315080010F084F8453000236366ABE6042314AA204629
S31508001100CDE9007711A909F0B2FB41F203030C906F
S315080011100C9A9A4201D00C9BBBE6236D042B02D98C
S31508001120149B23660127636D032BE6D9092384F8EC
S31508001130463071E600236366072350E7EB17A603DC
S31508001140F90707F98F42FFF47DAE402928BF4021F1
S315080011508F4228BF0F46032F88BF27F003073B4659
S3150800116014AA2046CDE9009911A909F080FB41F29D
S3150800117003030D900D9A9A4201D00D9B89E694F8C7
S3150800118046A0BAF1070F04D1D5F808B0BBF1000F95
S315080011901BD1042FC7F1040B88BF4FF0000B14AB0B
S315080011A05A46FF21D8190AF091FEBAF1090FBB4435
S315080011B014D12B465A46204614A9FFF751FD0D9027
S315080011C00D9B002B3FF42DAED7E73A462B68606E91
S315080011D014A9D847626E3A44626622E6BAF1040F49
S315080011E021D1737898077FF51CAEEB68002B3FF486
S315080011F018AE626E042A0BD80BEB0203062B07D92E
S3150800120015AB9B1A1A68C4F884204FF0FF321A608F
S315080012105A462B68606EEF6814A9B847626E0BEBE6
S3150800122002076766FDE5BAF10B0F7FF4FAAD73782E
S3150800123059077FF5F6ADD5F80CA0BAF1000F3FF4C3
S31508001240F0AD5A462B68606E14A9D047E6E74FF012
S3150800125000618A6A496B1269503A91423FF63EAF7D
S31508001260112B0FD194F81831002B7FF451AE41F2AF
S3150800127006030E930E9A9A4202D1132384F8463037
S315080012800E9B06E694F84430002B7FF441AECDE978
S31508001290003314AA4023204611A909F0E8FA41F2BE
S315080012A003030E900E9A9A42EAD1E06C09F067FBA6
S315080012B094F81831A3B104F1B403E06C00931CAAA6
S315080012C004F1940314A900F0D5F80E900E9B9BB177
S315080012D00023F370132384F8463041F20603D8E559
S315080012E0E76C00F055F9039000F056F9039B00905F
S315080012F01CAA384614A9E6E70123F37084F844309B
S3150800130006E6002314AACDE900332046042311A9D2
S3150800131009F0ADFA41F203030F900F9A9A4202D0F0
S315080013200F9B04930DE6D4F888202F4B9A4205D0DC
S31508001330132384F8463041F20503F2E70123F370DC
S3150800134094F84530DA0707D5EF682FB104222B68E1
S31508001350104604F18401B84794F845309B0707D531
S31508001360EF682FB104222B68104604F18401B847B0
S31508001370236E6BB36F685FB34FF0FF3304F18001E0
S31508001380042210A8109303910AF069FD20B10422E3
S315080013902B6803991548B84704F168090422494699
S315080013A010A80AF05CFD98B14FF000639B6A1422FE
S315080013B0D3F8108004F16C0108F10800D5E900376C
S315080013C0B847D5E900370422494608EB0200B84772
S315080013D00123B3700E2384F846300023A1E70023C7
S315080013E0F37041F20700ADE5E320BBDE0480010897
S315080013F030B50824094B00255C66012403F5FE2355
S315080014005C6001449D601A61DC60884201D1586ABB
S3150800141030BD10F8012B1A62F7E700BF00900050A4
S31508001420F8B516464FF400521D46114B04469A6607
S315080014300222C3F860220F4609F0FAFDDDE906121A
S31508001440204609F0F9FD002384F838706362336892
S31508001450C4F839307368C4F83D30B368C4F841300D
S315080014602B0C6DBA84F84530A4F84650F8BD00BF79
S31508001470009000502DE9F041B0B014460646369D5E
S3150800148000286AD0002968D0002A66D0002B64D0CC
S31508001490002D62D006224FF400500692304A20AF43
S315080014A090660320C2F860020022BE4609920C929A
S315080014B00F920A4601F12008F4461068516808326E
S315080014C0ACE803004245E646F6D122460DF1A00CEB
S315080014D004F1200E644610685168083203C4724548
S315080014E0A446F7D10DF1400C1A46644603F1200EC6
S315080014F0234610685168083203C372451C46F7D163
S315080015002B4618AC2035224618685968083303C29A
S31508001510AB421446F7D14023CDE90A73089320233A
S315080015200AAA0E9303AB07CACDF81CC00D9683E82A
S31508001530070007AB93E807008DE807000DAB0ECB55
S31508001540084809F0B2FC0690069B40F20460002B9E
S3150800155008BF002030B0BDE8F08140F20160F9E72D
S315080015600090005030C200084FF40052074B10B5E7
S315080015709A6602220446C3F8602209F003FA204656
S31508001580BDE81040002109F001BA00BF00900050E4
S31508001590004870474CE30B08004870476CE30B089B
S315080015A00048704786E20B082DE9F34799460A9BDF
S315080015B00C46196805463F29164642D85A68002A35
S315080015C041D0224A002E14BFB046904601F03F078C
S315080015D0091928BF5A68196024BF01325A60AFB189
S315080015E0C7F1400AA24521D82946524609EB070009
S315080015F00AF045FC0123414600934A46334600203B
S3150800160009F0DDF9B046403C55443C443F2C0CD922
S31508001610A3092A46009341463346002009F0CFF92C
S3150800162024F03F031D4404F03F0400272CB1224652
S31508001630294609EB07000AF022FC002002B0BDE8A3
S31508001640F0879046C2E7DFF80480BFE748C0000885
S3150800165030B40546084611461A46DDE9023425B96E
S3150800166031B1029430BCFFF79FBF024830BC7047C7
S315080016700846FBE780AFFFFF2DE9F04117461468DF
S3150800168086B01E46E3008DF80F30630952688DF860
S315080016900E30630B8DF80D30630D8DF80C30D300CA
S315080016A003EB54738DF80B3004F03F045309372CC1
S315080016B08DF80A304FEA52334FEA525205468DF8F2
S315080016C00820884694BFC4F13802C4F17802CDE9EF
S315080016D000178DF809300D4903460020FFF7B8FFBB
S315080016E0082143462A4600970DEB0100FFF75CFFE9
S315080016F0284605F1200350F8042B984246F8042B97
S31508001700F9D1002006B0BDE8F08100BF68C0000826
S31508001710044BD3F88420D206FBD4D3F88400C0F354
S31508001720811070470040005038B5104B0546D3F875
S3150800173020310C4603F00303022B0BD0032B0DD0EC
S31508001740012B0FD1FEF73EFE052305B1286004B133
S31508001750236038BDFEF76CFE0323F6E7FEF77EFE30
S315080017600223F2E700231846EFE700BF0080005087
S3150800177073B50D4600210E4B0191D3F880410646FC
S3150800178004F00304012C09D0022C0CD00C460EB12F
S31508001790019B336005B12C6002B070BD01A8FFF74C
S315080017A0C3FF0F24F3E7FEF759FE0190EFE700BFEA
S315080017B00080005038B5174B0546D3F824310C463F
S315080017C003F00703013B052B20D8DFE803F0030FDE
S315080017D0171B0B13FEF7F6FD052305B1286004B1A8
S315080017E0236038BDFEF7EEFD0623F6E7FEF720FE7A
S315080017F00323F2E7FEF71CFE0423EEE7FEF72EFEB0
S315080018000223EAE708F004FF0723E6E70023184661
S31508001810E3E700BF0080005038B5104B0546D3F803
S3150800182040310C4603F00303022B0BD0032B0DD0DB
S31508001830012B0FD108F0EEFE092305B1286004B18B
S31508001840236038BDFEF70EFE0823F6E708F0E5FE2E
S315080018500B23F2E700231846EFE700BF008000508D
S3150800186037B50C460021114B0191D3F88432054651
S3150800187003F00303022B0ED0032B11D0012B03D147
S3150800188001A8FFF751FF0F210DB1019A2A6004B193
S31508001890216003B030BD01A8FFF7BEFF1021F3E7B2
S315080018A0FEF7DCFD02210190EEE700BF0080005044
S315080018B038B5134B0546D3F800320C4603F0070338
S315080018C0013B032B18D8DFE803F0020A0E1208F0D2
S315080018D0A1FE092305B1286004B1236038BDFEF7CF
S315080018E0C1FD0823F6E708F098FE0B23F2E7FEF79A
S315080018F089FD0E23800AEDE700231846EAE700BFB4
S315080019000080005038B5104B0546D3F840320C46D7
S3150800191003F00303022B0BD0032B0DD0012B0FD1A1
S3150800192008F078FE092305B1286004B1236038BDA4
S31508001930FEF798FD0823F6E708F06FFE0B23F2E79B
S3150800194000231846EFE700BF0080005038B5104B5B
S315080019500546D3F860310C4603F00303022B0BD07F
S31508001960032B0DD0012B0FD108F054FE092305B126
S31508001970286004B1236038BDFEF774FD0823F6E736
S3150800198008F04BFE0B23F2E700231846EFE700BFEB
S3150800199000800050B0F5207F1FD009D8B0F5007F31
S315080019A015D003D868B1B0F5C07F0AD000200CE086
S315080019B0B0F5607FFAD10B4BD3F88000C0F3011065
S315080019C003E0084B186FC0F3033001307047054B2E
S315080019D0D3F89000C0F30460F7E7024B186FC0F322
S315080019E08020F2E7008000504FF400320E4B01468B
S315080019F010B500209A66FFF7CDFF41F671324843CD
S31508001A000A490B4B88428CBF4FF480100020DC69D2
S31508001A10DA635A6822F4401202435A60E20344BF6A
S31508001A200022DA6310BD00BF00900050005A62021F
S31508001A3000000350420910B510D0012A10D00B4BF4
S31508001A400B4C022A18BF234600F01F0051B103F5BC
S31508001A508053012202FA00F0186010BD1346F3E71E
S31508001A60044BF1E703F50053F3E700BF6880005025
S31508001A7060820050648000501FB50022802804460A
S31508001A80019200F00C8100F2BF803F2836D9A0F100
S31508001A904D04142C02D9019804B010BD142CFAD8A0
S31508001AA001A353F824F000BF271C0008971A000862
S31508001AB0271C0008271C0008271C0008EB1C000828
S31508001AC0451C0008F51C0008971A0008971A000814
S31508001AD0971A0008971A0008971A0008971A000814
S31508001AE0971A00083F1D0008971A0008971A000859
S31508001AF0971A0008271C0008271C00083F28CAD880
S31508001B0001A353F820F000BF271C0008971A000805
S31508001B10971A0008971A0008971A0008971A0008D3
S31508001B20971A0008971A0008971A0008971A0008C3
S31508001B30971A0008971A0008971A0008971A0008B3
S31508001B40971A0008971A0008971A0008971A0008A3
S31508001B50971A0008971A0008971A0008971A000893
S31508001B60971A0008971A0008971A0008971A000883
S31508001B70971A0008971A0008971A0008971A000873
S31508001B80971A0008971A0008271C0008B91C0008AD
S31508001B90271C0008B91C0008EB1C0008EB1C0008F1
S31508001BA0EB1C0008EB1C0008B91C0008B91C00084F
S31508001BB0FF1C0008451C00082B1D0008951C000882
S31508001BC0451C0008B91C0008B91C0008B91C000807
S31508001BD0971A0008971A0008971A0008971A000813
S31508001BE0971A0008971A0008971A0008771C000821
S31508001BF0B91C0008B91C0008B91C00083F1D0008DC
S31508001C00351D0008B91C0008B0F5806F6DD024D8C2
S31508001C10B0F5007F47D009D8B0F5807F74D0B0F50D
S31508001C20C07F7FF438AFFEF7EDFB3AE0B0F5607F92
S31508001C3048D03FF630AFB0F5207F3DD0B0F5407FB5
S31508001C407FF429AFFEF7DEFB02464FF42070FFF75C
S31508001C50A1FEB2FBF0F0400823E0B0F5C06F64D0F7
S31508001C600ED8B0F5A06F45D0B0F5B06F47D0B0F537
S31508001C70906F7FF410AF002101A8FFF79BFD0AE7DC
S31508001C80B0F5E06F56D0B0F5F06F58D0B0F5D06F1C
S31508001C907FF401AF002101A8FFF70AFEFBE6FEF775
S31508001CA097FB0190F7E6FEF793FB02462046FFF7FF
S31508001CB071FEB2FBF0F0F4E7FEF7A4FB02464FF420
S31508001CC02070F4E7204BD3F8803003F00303012B90
S31508001CD004D0022B06D04FF46070E8E7FEF778FBD5
S31508001CE00246F8E7FEF76EFBFAE7002101A8FFF7C0
S31508001CF01BFDD0E6002101A8FFF7B2FDCBE60021C7
S31508001D0001A8FFF735FDC6E64FF0E02302921B69EE
S31508001D105B0705D5FEF776FB0290029B0193BAE6B0
S31508001D2003A902A8FFF778FDF7E7002101A8FFF746
S31508001D3073FDB0E6002101A8FFF7E4FDABE600213C
S31508001D4001A8FFF703FEA6E60080005008B580202C
S31508001D50FFF792FE034B98429EBF4FF48032024B28
S31508001D601A6708BD005A620200A000501FB500237A
S31508001D70B0F5607F019300F0A88036D8522800F0AD
S31508001D808B8016D82D280BD823280ED92438092855
S31508001D900BD8DFE800F0818181810A0A7C0A438B2F
S31508001DA03D280ED03E2800F0A680019805B05DF8C3
S31508001DB004FB802853D009D8542800F097805C2863
S31508001DC0F3D1002001A9FFF7C1FDEEE7B0F5807F4A
S31508001DD0EBD102934FF0E0231B695B0761D5FEF751
S31508001DE011FB0C230393039B4DE0B0F5D06F5DD038
S31508001DF019D8B0F5A06F79D00AD8B0F5806F4BD056
S31508001E00B0F5906FD1D1002001A9FFF7D3FCCCE73C
S31508001E10B0F5B06F3BD0B0F5C06FC6D1002001A9B0
S31508001E20FFF7FAFCC1E7B0F5006FECD005D8B0F5BE
S31508001E30E06F60D0B0F5F06FC2E7B0F5086FB4D1C7
S31508001E402F4BD3F8003103F00303022B33D0032BB7
S31508001E5035D0012B37D1FEF7EBFA032313E0284BD5
S31508001E601B6F03F00703013B032B9ED801A252F810
S31508001E7023F000BF8B1E0008851E00085B1E0008A5
S31508001E80C31E0008052301938FE70223FBE7002002
S31508001E9001A9FFF76DFC88E7002001A9FFF744FCBC
S31508001EA083E703A902A8FFF7B7FC9CE7002001A96E
S31508001EB0FFF7FEFC79E7FEF7D5FA0823E3E708F013
S31508001EC0A7FB0723DFE70123DDE70D4AD2F88020C9
S31508001ED002F00302012A05D0022AD4D1FEF772FACB
S31508001EE00623D0E7FEF774FA0D23CCE7002001A9F4
S31508001EF0FFF7B6FC59E7002001A9FFF703FD54E7F1
S31508001F00008000504FF40022034B5A66012203F565
S31508001F1080439A62704700BF0090005070B504462F
S31508001F208020FFF723FF032800F082804FF4002269
S31508001F30444B02215A6645F60E03434AC2F88030DE
S31508001F40424B9962012103F580539962936DD90337
S31508001F50FCD4D4E900131B0543EA0163E17B94F83A
S31508001F6022500B43217B94F8236043EA0143617BAB
S31508001F7043EA0133A17B43EA811313619169D4E9EA
S31508001F8004031B0643EA806301F000410B43A17E6C
S31508001F90E07E0B43217E43EA0143617E43EA012347
S31508001FA09361E369126A002B0CBF0021082122F015
S31508001FB00D0242EA030242EA8002234B42EA010288
S31508001FC01A6294F820204FEA421232D1986A94F89D
S31508001FD0211020F0330042EA0112024342F00102C6
S31508001FE09A621B4A996D32EA0101FBD1022217490E
S31508001FF08A621A659A6D5200FCD41869A26820F4A0
S31508002000700040EA02504FF0004218610F4B9A6187
S315080020101DB9022203F580539A6216B901220D4BA7
S315080020209A6294F824301BB1074B0B4AC3F88020F8
S3150800203070BD996A21F0330131430A4342EA4502E9
S31508002040EEE700BF0090005000C0005000D00050DE
S315080020500300014000E00050F1A7FFFF014B93F990
S31508002060000070475F230020B0F5207F10B50C46AE
S3150800207057D008D8B0F5007F48D003D830B3B0F5AC
S31508002080C07F23D010BDB0F5607FFBD129492A480F
S31508002090D1F8FC2012F080721EBFD1F8FC3023F074
S315080020A08073C1F8FC30D0F88030611E23F030040C
S315080020B044EA0114C0F88040002AE3D01D4AD2F849
S315080020C0FC3043F08073C2F8FC30DBE708F0BAFC5A
S315080020D008F0C6FC4FF48031184B174A1967136F7E
S315080020E0611E23F4704444EA01341467FEF78AF942
S315080020F00446FFF70DFBC0F10201204608F0AAFCD2
S3150800210000F02EF8BDE81040FFF720BE0A4A013954
S31508002110D2F8903023F0F85444EA0164C2F89040AB
S31508002120B0E7054B013C196F21F4806141EA84242C
S315080021301C67A7E700ED00E0008000500090005003
S3150800214008B50121022000F025F808F07BFC08F00C
S3150800215087FC4FF48032014B1A6708BD0090005087
S3150800216008B54FF4C070FFF787FCBDE8084004497E
S3150800217088428CBF022101214FF42070FFF774BFFB
S3150800218080F0FA02024A136CDB07FCD4704700BFE2
S3150800219000400950F8B504461C4BD3F88420D106F4
S315080021A0FBD4D3F88430C3F381139C422CD0FEF7BA
S315080021B00FF9012C064602D1214608F04BFC08F01F
S315080021C069FC4FF00072124B07465A66204608F023
S315080021D071FC4FF480630D4D621E93402B676B6E46
S315080021E09A0103D4D5F884309B060AD5384608F0F8
S315080021F055FC022C08D13046BDE8F840002108F00D
S3150800220029BCD5F88430EAE7F8BD00BF0040005085
S315080022100060005007B518B90191FEF7D9F8019981
S31508002220064B1B7843B1064B984205D8012003B0EC
S315080022305DF804EBFFF7AEBF0220F8E76023002045
S31508002240005A62024FF00042174B10B55A664AF61A
S31508002250CD331649D1F89440C1F8903004F0010402
S3150800226090B9FFF78FFF4B68DB0705D50122104BA6
S315080022705A60CB6BD807FCD51CB10C4B0D4AC3F87A
S31508002280902009F033FB10BDCB6B1A07FCD4202233
S31508002290074B5A630122A3F580535A60034A536BCE
S315080022A09B06FCD5E8E700BF0090005000400950A7
S315080022B0006009503254FFFF2DE9F04105460F46EC
S315080022C01E4690464AB101233022194C8B4002FB28
S315080022D000443EB304F5825423600F21072F05EB13
S315080022E0450388BFA7F108044FEA0313114895BFB1
S315080022F0BC00A40004330C3308FA04F2A1401844C5
S3150800230008F0DFFBB8F1000F0AD101213020084A96
S3150800231001FA07F700FB05223EB102F58252176063
S31508002320BDE8F08104F50154D6E702F50152F6E757
S3150800233000C0035030C00350F0B5114A114C124E7C
S3150800234000F00105E3695F0713D40DB9334213D1D1
S3150800235003EA00078F4207D10B4A1A40002A14BF26
S315080023606FF001000020F0BD013AEBD16FF00200DA
S31508002370F9E74FF0FF30F6E76FF00100F3E700BF2B
S315080023808096980000000350020001004FF40032C6
S3150800239038B50F4B0F4C9A6641F671330122E56941
S315080023A0E3630D4B0021DA6002236061212023617B
S315080023B005F48035FFF7C0FF10B92120FFF7BCFFF1
S315080023C00122064BDA600DB10023E36338BD00BF76
S315080023D000900050000003500010035000200350E6
S315080023E02DE9F04F06464FF440250120B400DFF8EA
S315080023F0C0C004F1A04404F58824CCF80400656044
S31508002400302500244FF40037DFF8A8E0DFF8A8905D
S3150800241005FB06E5EC652C662C67234CDFF89CA0CB
S31508002420A76641F6713704F51C34D4F81C80E763B7
S31508002430E76800FA06F60743E7604BB9E26818F45E
S31508002440803F22F00102E26000D0E363184628E0EC
S3150800245001F5005000EA0900401A984228BF1846BC
S315080024606161D4F81CB087081BF0040F17D1013F2F
S315080024703F0147F060576F66AA66C5F86CA0CCF8AE
S315080024802460DEF834703E42FBD0084F01447E6378
S315080024900427CCF82860024427611B1ACDE74FF0C1
S315080024A0FF30BDE8F08F00BF0090005000200450B8
S315080024B0001004500000045000E0FFFF180003500D
S315080024C02DE9F843C3690446042B6ED808F0E2FAEE
S315080024D0374B384A596E4FF480333748536602F5FE
S315080024E0E622C2F80006C90300F50070C2F8040621
S315080024F05CBFA2F5E4225366304A314BE6691360A5
S3150800250023683048536004F10C0303EB8601121B61
S315080025108B4202EB030520D163680027344603BBD0
S3150800252039462546254A41EA06619160136851688D
S3150800253092684B4053400022AA4231D140F82230DB
S31508002540BFF34F8F2049214BCA6802F4E062134358
S31508002550CB60BFF34F8F00BFFDE753F8047B2F60B6
S31508002560D6E70022D3F8009000EB840ED3F808C013
S31508002570F046CCF3990C624502EB070102EB040521
S315080025800EF1040E06D35A68012ACBD00F462C4604
S315080025905B68C4E759F822100132C8F80010E5E76D
S315080025A050F8221001324B40C6E7BDE8F88300BF59
S315080025B00080005000900050004C00A0004C00B075
S315080025C0DEC0ECE50C4C00B000ED00E00400FA05B6
S315080025D04FF480311A4B30B5586E03F5805359665F
S315080025E003F5E623D3F8043603F1C042A2F5804288
S315080025F0B2F5606F01D9002030BDC20358BF114A39
S3150800260003F1805358BF516618680F4A194690421D
S31508002610F1D11A69501DB0F5007FECD203F1140010
S31508002620940000EB82000022834205D10B195869F9
S31508002630831A58425841DFE753F8045B6A40F3E7C8
S315080026400080005000A00050DEC0ECE538B5104B05
S3150800265010495A6E4FF48033D20358BF0E4A4B6660
S3150800266001F5E621D1F80456044658BF536640B131
S31508002670FFF7AEFF40B1002005F180556B68236077
S3150800268038BD4FF4E020FBE74FF47E00F8E700BFC3
S31508002690008000500090005000A000504FF4803297
S315080026A0084B5A6603F5E6235B69C3F3461203F043
S315080026B00F010A434280C3F30342C3F30333427054
S315080026C0037070470090005038B50446054D09F070
S315080026D020F90FCC0FC594E8030085E80300002015
S315080026E038BD00BFB012002047F6FF739A42F0B516
S315080026F067D0012967D8354DCF0015F8313005EB7D
S31508002700C100012B847813D10025C3781B1B9D4279
S3150800271002D3E018C0B2F0BD591B4668A3EB5101BD
S3150800272036F911609642D4BF0D4601F1FF33EEE744
S3150800273040680028EFD0B0F90030934204DBB0F9C6
S3150800274002309342B8BF134682883D44FF2A19BF18
S31508002750C8214FF0280CB0F90610B0F908C0A1EB53
S3150800276003020CBF0126002692FBFCF26D78324468
S3150800277012B2954201DD002A01DA6A1E12B24FF43E
S315080027807A7700EBC206F188B668013213FB01615D
S3150800279012B221EAE17101F5FA719542B1FBF7F13E
S315080027A004DD00EBC206B6888E42EAD200EBC2020E
S315080027B032F8040C884228BF0846A04238BF204693
S315080027C0A8E7FF20A7E70020A5E700BFB012002072
S315080027D008B50448FFF778FFBDE80840012009F06E
S315080027E0BBB800BFA8C000080048704748100020C2
S315080027F02DE9F04717460C4688B029B10139B1F5DD
S31508002800806F01D301263FE0244AD66816F4803645
S31508002810FBD140EA01212238112805D8204DC540B0
S31508002820ED4315F0010533D0012541F000413A0783
S3150800283002F0805213431943184B596025BB194AB5
S3150800284003AB10685168DFF860A003C30223CDE923
S3150800285006350DF10C090DF11408CDF8149098E819
S315080028600E00DAE90005A8470221484608F07FFB72
S315080028700028F2D00F22E31C009223F0030398E805
S31508002880070047B108F03FF9304608B0BDE8F087C1
S3150800289041F00341CBE708F099F9F5E70020025C1F
S315080028A0014802002CC10008C81200200122054B6D
S315080028B09A60DA68D203FCD4D86820F00F000004C6
S315080028C0000C70470020025C014B1868704700BF77
S315080028D00010025C044B1A6842F480721A601A6887
S315080028E022F480721A6070470010025C024B186B63
S315080028F000F00E00704700BF0010025C82B01FB5E2
S3150800290007930A9B04AC8B4228BF0B4604E90700D1
S315080029101048D100079948BF03330160099948BF99
S3150800292023F0030323F0704301F0E041194341F01B
S3150800293000518160002102F0E042019C134343F0FC
S315080029400053C16004618361416304B0BDE810406F
S3150800295002B070470000025C3F22034B1A63102244
S31508002960DA6103229A6370470000025C024AD36B5D
S315080029709B07FCD4704700BF0000025C034B986AB3
S3150800298010F0240018BF0420704700BF0000025C46
S3150800299008B5FFF7F3FF064BDB6B23F47F4323F001
S315080029A0EF0303431EBF0122024BC3F8FC2F08BDE9
S315080029B00000025C00F0FF3F032208B5054B1860D3
S315080029C019615A63FFF7C8FFFFF7D0FFBDE8084053
S315080029D0FFF7DEBF0000025C42680346182A10B5FE
S315080029E00AD0202A1DD0102A2BD1174AD2F804243F
S315080029F0D4010AD4012013E0134AD2F80424900122
S31508002A00F8D50A6842F008020A6010481A68824235
S31508002A104FF000000ED10A6842F040020A60586082
S31508002A2010BD094AD2F804245201E3D50A6842F0D7
S31508002A300402E9E7064CA242F2D10A6842F0800293
S31508002A40ECE70720ECE700BF0000025C61230020EA
S31508002A50622300200B4607B50749D1F80414C907B5
S31508002A6008D5002100920246084600F033F803B064
S31508002A705DF804FB0120FAE70000025C0B4607B587
S31508002A800749D1F80414C90708D50092012102465E
S31508002A90002000F01FF803B05DF804FB0120FAE7F8
S31508002AA00000025C1FB50A4CD4F8044464070CD530
S31508002AB0CDE900120021069C0222CDE90234034624
S31508002AC0084600F031F804B010BD0120FBE700BF4E
S31508002AD00000025CF0B51C465B6815468DB01A0707
S31508002AE0129E1AD1CBB17268934216D10C4B0D4A7D
S31508002AF053F8217009AB07CA83E807001A46294626
S31508002B00CDE90533CDE90333CDE90163009447F4F4
S31508002B10807008F0ECF80DB0F0BD0720FBE700BFA9
S31508002B2068C1000838C100082DE9F0418CB0DDE91C
S31508002B30127C7C681E46DDE9143E200728D13CB38A
S31508002B40DCF80400844223D15868102820D1DEF826
S31508002B50040010281CD10F4809AC50F821500E4922
S31508002B6051F822800D4A07CA84E8070045EA08009A
S31508002B7022463146CDE9054ECDE90344CDE901C4E7
S31508002B80009740F0300008F0B2F80CB0BDE8F081CC
S31508002B900720FAE768C1000844C1000838C10008E0
S31508002BA00138C0B206289ABF014B185C002070474E
S31508002BB044C200080138C0B206289ABF014B185C07
S31508002BC0002070474BC200080138C0B206289ABFD9
S31508002BD0014B185C0020704752C200082DE9F04FDF
S31508002BE0BBB0804603A880E80E007E4B9DF8109186
S31508002BF0D3F80024D40603D401203BB0BDE8F08FF7
S31508002C0008F1FF32059EDDE903A7062A00F2E780F0
S31508002C10DFE802F0041A20262C323800D3F80C34E8
S31508002C20D807E9D5012307930023B9F1010FCDE9A8
S31508002C3008332DD0B9F1020F00F092804046FFF715
S31508002C40C3FF6324054631E0D3F80C349907D3D57E
S31508002C500223E8E7D3F80C345A07CDD50423E2E774
S31508002C60D3F80C341B07C7D50823DCE7D3F80C3494
S31508002C70DD06C1D51023D6E7D3F80C349C06BBD5A0
S31508002C802023D0E7D3F80C345806B5D54023CAE735
S31508002C90544BD3F80C34D903AED5079B404643F4BE
S31508002CA0C0630793FFF77CFF03240546132304221A
S31508002CB0009307A94FF0005312A807F0D5FF514615
S31508002CC0009446F000533A4607F0CEFF4FF0000B4B
S31508002CD004465E46DDF814A1469B9B4564D1B9F1CE
S31508002CE0030F0AD14046FFF76FFF874277D1404668
S31508002CF0FFF760FF0138304271D1002E67D10323F8
S31508002D0032462046009308A9334607F0ADFF04264D
S31508002D100446A4F11000029007F0BCFF3146029861
S31508002D2007F0C3FF489AAA4228BF2A461446002A33
S31508002D3053D00023479900930AA8499B07F094FFAC
S31508002D402A1B04D000231946009307F08DFF10387C
S31508002D5007F0A0FF12A80AA9FFF72EFE00204CE7ED
S31508002D60204BD3F80C24D2037FF546AFD3F80C34A6
S31508002D709B037FF541AF97B17C423946374604F04D
S31508002D800304079B404643F4E0630793FFF708FFF5
S31508002D9024023E4605460F4644F0A30486E704216E
S31508002DA00DF1200A0C46ECE7DAF8042016444AB17D
S31508002DB0032300932046DAF80830DAF8001007F003
S31508002DC053FF04460BF1010B0AF10C0A84E716F0CF
S31508002DD0030618BFC6F104069BE70AA8B0E7072052
S31508002DE00BE700BF0000025C08B5FFF773FD012280
S31508002DF0014B1A7008BD00BF632300204FF4005230
S31508002E00034B00209A660322C3F86022704700BF6E
S31508002E100090005008B5FFF757FDC30708D5FFF720
S31508002E2065FD062804D00A28F5D1FFF7DDFFF2E78D
S31508002E304FF40052034B00209A660322C3F860221F
S31508002E4008BD00BF00A0005030B58BB06C46154DCC
S31508002E500FCD0FC40FCD0FC495E8030084E8030017
S31508002E60114BD3F84C21120314D4D3F85041E4B2D1
S31508002E708DF81940FFF7F2F8204480F308008DF822
S31508002E8018000A48FDF7DAFA6846FFF747F80020FF
S31508002E900BB030BD064B1C884FF6FF739C4208BF2B
S31508002EA08C24E5E75CC200080080E00F00F04902C8
S31508002EB00001E00F014808F000BA00BFD012002058
S31508002EC0014808F0CFB900BFD0120020014800F031
S31508002ED053B800BFD01200200A460146014800F048
S31508002EE07BB800BFD0120020014800F0B5B800BF7B
S31508002EF0D01200201FB50A79064B02920A680831DB
S31508002F000192022200920CCB08F0A7FA05B05DF8F0
S31508002F1004FB00BF94C2000830B50B7985B00333B3
S31508002F20029301F14403019302230C460546114A14
S31508002F30009314310CCA08F090FA238A04F12C0184
S31508002F400293E36828460193237A009394E80C00D9
S31508002F5008F083FA0546237AA4F845002279216801
S31508002F6084F8443004F1470008F089FF284605B084
S31508002F7030BD00BF8CC2000838B50546124B134C4D
S31508002F80D4E9020183E8030019462846FFF7B2FF91
S31508002F90D4E9040110220E4B83E80300194628469B
S31508002FA01A72FFF7B9FFD4E906010222094B203449
S31508002FB01A7283E80300DC60194628461A82BDE8BF
S31508002FC0384008F058B900BFD4130020A8C200083A
S31508002FD03013002088130020F8B504460D4B0E4D1B
S31508002FE00F46D5E9090183E8030019462046164627
S31508002FF0FFF780FFD5E90B010222084B1A7283E816
S315080030000300DF60194620461E82BDE8F840FFF738
S3150800301083BF00BFB4130020A8C20008D81200203E
S3150800302010B50C4630B907F002FB034B1860236055
S315080030300423A380002010BDF413002010B50C460D
S3150800304030B907F0F2FA034B186023600423A38013
S31508003050002010BDF81300202DE9F74306466D46FB
S315080030604FF00809404C414B414F94E8030083E870
S31508003070030019463046FFF73DFFD4E9020187E809
S31508003080030028463B4987F8089008F0EFF895E8CA
S31508003090030007F10C0383E8030039463046FFF7BF
S315080030A03BFFD4E904010C234FF00208324F87E8AE
S315080030B00300284631493B7208F0D8F895E8030022
S315080030C007F10C0383E8030039463046FFF724FF6F
S315080030D0D4E906012A4B2B4A83E8030019463046F1
S315080030E083F80880DA60A3F81090FFF715FFD4E993
S315080030F00801254B254A264FDA60012283E803009A
S31508003100194630461A8283F80880FFF705FFD4E986
S315080031100A0187E8030028461E4987F8088008F050
S31508003120A5F895E8030007F10C0383E80300394680
S31508003130194F3046FFF7F0FED4E90C0187E8030083
S315080031402846164987F8088008F090F895E803009D
S3150800315007F10C0383E803003946304603B0BDE89F
S31508003160F043FFF7D9BE00BF54C300080C16002071
S315080031700415002003B300085C150020EBB2000814
S31508003180541400208CC30008B415002094C300080A
S31508003190AC1400203D300008FC1300202130000844
S315080031A0074B9A6CDB6C110A0270120C82701A0AB1
S315080031B0C2701A0C1B0E417002714371704700BF32
S315080031C00080E00F7FB500230130CDE9043380B2DB
S315080031D0054BCDE90101694604200093039208F0E6
S315080031E05DF907B05DF804FB642300201B22014B40
S315080031F01A8070473C230020F7B50346CDE9001234
S3150800320007460E4615464FF48040094A094908F014
S3150800321067F80022012311460420074C23706770C3
S315080032206680257103B0BDE8F040FFF7CBBF00BF4D
S3150800323035C5000895C3000864230020034610B569
S31508003240094A044609494FF4804008F049F8032220
S31508003250074B02201A700022A3F801401146BDE868
S315080032601040FFF7AFBF00BF1EC50008C9C300085E
S315080032706423002030B50C4685B004A901E90C008A
S31508003280054603460A4A4FF480400A49009408F066
S3150800329027F805220320084B02991A709DF80C207E
S315080032A05D705C8005B0BDE83040FFF78BBF00BF9E
S315080032B003C50008D5C300086423002037B50346B4
S315080032C005460C4600914FF48040094A094908F022
S315080032D007F80722084B04201A7000221146A3F8A3
S315080032E00150A3F8034003B0BDE83040FFF76ABFBA
S315080032F0E8C40008F9C300086423002038B5094A61
S3150800330005460C460B464FF48040074907F0E8FF90
S315080033100B22064B29461A7000202246BDE8384083
S31508003320FFF750BFD8C400081EC400086423002055
S3150800333008B54FF48040074A074907F0D1FF132222
S31508003340064B1A700022BDE8084011461046FFF7E2
S3150800335039BF00BFC7C400082DC400086423002075
S3150800336073B50346144605460E4600924FF4804050
S31508003370084A094907F0B4FF0922084B31461A7072
S31508003380A21C5A70032022465D8002B0BDE8704038
S31508003390FFF718BFB1C4000833C40008642300202F
S315080033A02DE9F3411C469046CDE9001307460E4623
S315080033B003460A4A4FF48040094907F091FF112352
S315080033C0224641460520074D2B70231D6B706F80E2
S315080033D0AE8002B0BDE8F041FFF7F4BE96C400081F
S315080033E051C400086423002070B50D4603780C4AC2
S315080033F004460C494FF4804007F072FF00230A4E3A
S31508003400691E204689B2738000F040F8024628B14A
S3150800341071882078BDE87040FFF7EEBE70BD00BF2A
S315080034208EC400087BC400083C230020024610B561
S3150800343000B3114B1968888890421BD398880024DA
S31508003440904281BF01200968988099609868998898
S3150800345028B904B198604FF6FF729A8009E08A424B
S3150800346004D001310124006889B2F1E70CB19A80D1
S31508003470986010BD0020FCE72C1600204FF6FF725E
S31508003480014B18609A8070472C1600202DE9F047EA
S3150800349004780546122C0E4688B017D8012C18D980
S315080034A0A31E102B15D8DFE813F0160014002F0002
S315080034B014005A0014000E0114009F001400140092
S315080034C014001400140051011400CC00522C00F012
S315080034D0DE8006243FE0022940F0B681B0F80130CC
S315080034E0B34A4FF48040B34907F0FAFEB5F80140F5
S315080034F0B4F5007F28BF4FF400742046FFF79EFE00
S31508003500AD4B1C80002426E0042924D1B0F80330F2
S31508003510AA4A0093B0F80130A9494FF4804007F051
S31508003520DFFEB5F8017006ADBEB22946304607F093
S3150800353012FF044618B1A04B5F800A240BE09DF8E1
S315080035401C303146022B08BF012095E80C0018BF35
S315080035500220FFF78FFE204608B0BDE8F087022755
S315080035608E1FB6B20196B0F80330964A0093B0F8AB
S31508003570013095494FF4804007F0B2FE05F1050881
S31508003580EB1D019600938DF81470CDF81080424615
S31508003590059BB5F80310B5F8010007F0E9FE4FF6EC
S315080035A0FF76B042044606D1AA786B7843EA02232E
S315080035B0814A5380C1E70023CDE90033CDF818804E
S315080035C08DF81C7008AB0130314613E90C0080B247
S315080035D007F0CEFE0146B0421CBF00F1FF3189B2AA
S315080035E02046FFF76BFE8DE7022940F02D81B0F8E3
S315080035F00130764A4FF48040754907F071FE31462E
S31508003600B5F8010007F006FF6B4E044628B16B7843
S31508003610AA7843EA022373809DE733880146013B73
S31508003620ADF81030B5F8010004AB06AA07F004FFA0
S3150800363004460028EBD1BDF810100698FFF75EFE89
S3150800364089E78E1EB6B20096B0F80130614A4FF48B
S315080036508040614907F044FE0821B5F8010007F0EB
S31508003660D9FE044630B1AA786B7843EA0223524A57
S31508003670538070E701463346B5F80100EA1C07F0A7
S31508003680B0FE04460028EED1FFF752FE63E78E1E11
S31508003690B6B20096B0F80130504A4FF480404E4911
S315080036A007F01EFE0421B5F8010007F0B3FE044634
S315080036B000287FF427AF01463346B5F80100EA1C17
S315080036C007F08FFE47E70E1FB6B2022E02D0102E65
S315080036D040F0BA800024B5F803304FF480400093D8
S315080036E0B5F801303E4A364907F0FAFDCDE90044FF
S315080036F06B1D06938DF81C6008AB13E90C00B5F832
S315080037000310B5F8010007F033FE4FF6FF73984231
S315080037100646294F05D16B78AA7843EA02237B80AF
S315080037200BE73B882146043BADF80E3004AA0DF1A1
S315080037300E0307F081FE044608B17E800BE730468B
S31508003740BDF80E200499FFF70BFE04E70E1FB6B26C
S31508003750022E01D0102E77D10024B5F803304FF48D
S3150800376080400093B5F801301E4A154907F0B8FDA8
S31508003770CDE9004405F1050AF6B28DF81460CDF8D6
S3150800378010A05246059BB5F80310B5F8010007F0DE
S31508003790EFFD4FF6FF7948450746DFF81C8023D131
S315080037A06B78AA7843EA0223A8F80230C5E600BF78
S315080037B001C60008C9C300083C230020EEC500085E
S315080037C046C50008DBC5000864C50008D3C500085F
S315080037D08DC50008CAC5000833C40008C1C500085D
S315080037E0B3C50008A0C50008CDE90044CDF818A067
S315080037F006AC8DF81C60013094E80C00494680B28E
S3150800380007F0B6FD0546B8F800304845A3F10603AB
S3150800381018BF00F1FF352246ADF80E304FF0000113
S3150800382038460DF10E0318BFADB207F005FE044683
S3150800383010B1A8F802708EE629463846BDF80E3053
S31508003840069AFFF7ADFD86E6042484E60022014BBE
S315080038501A6070473C18002003291FB51CD9028836
S31508003860131D994218D304D84388042B03D0062B7A
S3150800387006D0012011E011460430FFF7B5FDF8E740
S315080038800022CDE90222064A69460092022218461B
S31508003890019207F003FEECE7002005B05DF804FB93
S315080038A05610002037B500220DF10700114600F02A
S315080038B05FF89DF807300C4C0BB100232360216894
S315080038C00A4DC1F5017292B229440DF1070000F0C4
S315080038D04FF82168014428462160FFF7BDFF08B16B
S315080038E00023236003B030BD3C18002038160020A2
S315080038F010B504464FF4807300210E4A0E4807F0AF
S3150800390060FE4FF4807300210C4A0D4807F059FEFB
S315080039102046FCF71DFC07F015FE00F035FD07F004
S3150800392044FF830705D500F0F9FBBDE8104000F019
S3150800393049BA10BD701900205819002058180020DF
S315080039404018002008B513460A460146024807F003
S31508003950F7FEC0B208BD00BF5819002008B50348D5
S3150800396007F038FE003818BF012008BD5819002096
S3150800397073B50E460446019207F08CF821460546B3
S315080039803246019B044807F0DBFE0446284607F04A
S3150800399085F8204602B070BD4018002008B50348D7
S315080039A007F018FE003818BF012008BD401800208F
S315080039B073B50E460446019207F06CF82146054693
S315080039C03246019B044807F086FE0446284607F05F
S315080039D065F8204602B070BD5819002010B50C468F
S315080039E00146044807F0D6FEA04234BF0020012055
S315080039F010BD00BF4018002073B50E461146054697
S31508003A000192FFF7EBFF044628B132462946019B8F
S31508003A10024807F060FE204602B070BD401800203C
S31508003A2010B5034CA07900F007FE0023236010BDF3
S31508003A30701A00201FB50B4C0B4AA37A0B49039347
S31508003A40637A4FF480500293237A0193E3790093C3
S31508003A50A37907F045FCA01D00F072FD0023236042
S31508003A6004B010BD701A0020C5C7000810C60008AB
S31508003A701FB5104C104AB4F80D304FF4805002931D
S31508003A80B4F809300D490193A3790093B4F80730C7
S31508003A9007F026FCB4F80710A07900F083FDB4F807
S31508003AA00D10B4F8090000F091FD0023236004B05E
S31508003AB010BD00BF701A002097C7000839C6000855
S31508003AC0014B998018607047701A00200022014B3C
S31508003AD01A607047701A0020034A13681BB192884F
S31508003AE0824200D118477047701A0020014B18709F
S31508003AF0184670476B230020162838B503464FF042
S31508003B00020514BF034613230B4C0C4A4FF480508E
S31508003B100B496370257007F0E3FB2946204600F041
S31508003B206DFD00F0C9FE074B074A05301A6062783A
S31508003B3098809A7138BD00BF6B2300205FC70008C4
S31508003B4070C60008701A0020213A000830B50446ED
S31508003B5003787B4A4FF480507A4985B007F0C0FB5A
S31508003B6023780C2B0AD80C2B0BD8DFE803F05A3F26
S31508003B70790A0A0A0A0A890A0A0A1600142B00F0A0
S31508003B80A880204600F024F9002867D10722237868
S31508003B906D4802210270437023E0A3884FF48050D9
S31508003BA001936388694A00936378694907F098FB2B
S31508003BB04FF0FF32644C0C23A2700222E2700022FE
S31508003BC023706271012340F2FF22637023716049FA
S31508003BD000924FF480505F4A019307F081FB06215B
S31508003BE0204605B0BDE8304000F008BDE3885A4AD3
S31508003BF05A494FF4805007F073FBE179A379584A84
S31508003C0043EA012393801346564943F8061BD4F822
S31508003C100110C2F80610B4F805209A80E2799A7164
S31508003C201CE06389504A4D494FF4805007F058FB11
S31508003C30E27AA37A4A4943EA02238B800B464B4A27
S31508003C4043F8062BD4F80120C1F80620D4F805203D
S31508003C505A60B4F809201A81E27A9A7205B030BD22
S31508003C606378434A4FF48050424907F039FB00F025
S31508003C7023FE3B4B404A05301A6098806278CEE7AF
S31508003C80D4F80530D4F801203C49CDE900234FF497
S31508003C9080503B4A07F024FB00F014FAD4F80130B0
S31508003CA0294C034003F0FF0320F0FF0018430925C1
S31508003CB02346002203F8015BC4F801002F495A6025
S31508003CC0CDE900024FF480502E4A07F009FB294639
S31508003CD086E7B4F807302C4A0293B4F805304FF457
S31508003CE080500193B4F8033028490093B4F80130A2
S31508003CF007F0F6FAB4F80310B4F8010000F074FC03
S31508003D001523114C6FF0270223700723E2702371E5
S31508003D10E271237200216FF004004FF4FB62FB236B
S31508003D206070A1706071A1714FF48050CDE90132C5
S31508003D3016490092164A07F0D3FA092150E700BF40
S31508003D4056C7000886C600086B2300204BC7000824
S31508003D5097C60008EDC70008DFC70008C8C60008F0
S31508003D60701A0020353A0008B1C70008713A0008F1
S31508003D708AC7000870C60008213A0008D8C6000895
S31508003D807FC7000870C7000841C70008F1C60008C9
S31508003D9033C7000810B5084B4FF480509C79074A82
S31508003DA02346074907F09CFA204600F017FCBDE8B1
S31508003DB01040FFF78BBE00BF701A00205AC80008D3
S31508003DC0FCC700080122014B1A70704777230020B0
S31508003DD0244B73B51E7804462EB10378162B05D0EE
S31508003DE0182B27D00026304602B070BD83781E4AAD
S31508003DF0009343781D494FF4805007F071FA6378B1
S31508003E00A47817201C4004F00304022C18BF0124D0
S31508003E10FFF76CFE05464470847023464FF48050C5
S31508003E20134A1249009407F05BFA0221284607F064
S31508003E3086FBD8E7B0F803300E4A019383780E491B
S31508003E40009343784FF4805007F04AFAB4F8031009
S31508003E500A48FFF735FED4F80120094BC3F80620B7
S31508003E60C1E700BF7723002085C800080CC80008F2
S31508003E707AC800086DC800082CC80008953D0008D7
S31508003E80701A002013B50D4B01281B880C4CADF891
S31508003E900030ADF8043002BF02238DF80030042349
S31508003EA06946206808BF8DF8043007F0F0FC2068E2
S31508003EB001A907F002FD02B010BD00BF8CC80008BA
S31508003EC0841A002070B5334C11464FF4867086B0BC
S31508003ED01E46154607F007FA236933B929464FF4F3
S31508003EE0837007F000FA06B070BDA5F108023243E8
S31508003EF021D101AA0321206807F047FD63686061A4
S31508003F005B7A04F1180123769DF804300220DA1F43
S31508003F1053425341627E63F30002039B6276E36178
S31508003F20BDF806306383236998470122002120687B
S31508003F3007F031FDD7E705F17F42324305D100216D
S31508003F40012006B0BDE87040184715F4A04209D014
S31508003F504FF480714FF4817007F0C5F900210320F2
S31508003F602369EEE705F4A0631A4308D001214FF44C
S31508003F70817007F0B8F90021FF202369E1E705F011
S31508003F80A042134319BF012140F2011029464FF4FC
S31508003F908370EEE7841A00200A46014602484FF469
S31508003FA00073006807F0EDBC841A0020F0B50446DB
S31508003FB0164D174A6B68807A5B7A85B0D75C0E46D1
S31508003FC0FFF760FF237AB9B2022B0CD100232868C9
S31508003FD01A4600F0FBFCA8B10021FF20334605B0C5
S31508003FE0BDE8F0401847002220688DF80C30029092
S31508003FF00092286802ABADF80D208DF80F2000F06E
S31508004000F3FCE8E72E6105B0F0BD00BF841A002076
S315080040108EC800082DE9F04104461D4D1D4A6B68FF
S315080040200E465B7A86B0D15C807A0191FFF72AFF4B
S31508004030237A4FF00108022B02BF002302930123C3
S315080040408DF80C30636818BF226803F16403049383
S31508004050637A4FF0000418BF029201998DF8143064
S3150800406002AA234628688DF815808DF8164000F0B8
S31508004070E1FC074642462146286807F08CFC2FB12A
S315080040802146FF20B04706B0BDE8F0812E61FAE769
S31508004090841A00208EC8000808B500214FF48570E0
S315080040A007F021F90022044B03211A61186801223E
S315080040B0BDE8084007F090BB841A00200048704706
S315080040C08C1A0020014B188C704700BF841A0020F8
S315080040D07FB502238DF80630064B5A8B5969033291
S315080040E0ADF8042018686A4607F053FC009807B034
S315080040F05DF804FB841A0020002313B5064C0093D0
S31508004100437AD0E900216060206807F081FC00F05E
S315080041100DF802B010BD00BF841A0020024A138CA5
S3150800412043F4807313847047841A002038B50D4C05
S31508004130238CDB050CD563680B4D1B7A2A789A42CB
S3150800414006D0012B05D0022B07D063681B7A2B708B
S3150800415038BD206800F012FFF7E7206800F014FF6A
S31508004160F3E700BF841A00207823002010B5002446
S31508004170064B1C60064B1C7007F00FFAB0FA80F36A
S31508004180044A5B091370044B1C7010BDC41E002042
S315080041907A2300207B2300207923002010B5074BC3
S315080041A01C782CB9064B1B7833B107F0FEF9044688
S315080041B000F066F8204610BD8124F9E77A2300202E
S315080041C07B23002038B50A460F4903460978C1B152
S315080041D00E49087850B90E4C24783CB90D4C206825
S315080041E01518B5F5806F02D98220087038BD1946B2
S315080041F0094B184407F043FE2560BDE8384000F037
S315080042000DB88120F2E700BF7B2300207A23002027
S3150800421079230020C41E0020C41A002038B5134B89
S31508004220134D1A782968022A0ED0032901D80020CE
S3150800423038BD104A1068104A904203D084200F4BAC
S315080042401870F5E702221A700A48FCF77FF9044647
S315080042502A680749074807F07DF9002CE7D041F29C
S3150800426007039C42E3D08520E9E700BF7B230020B3
S31508004270C41E0020C41A0020EB17A6037A230020C8
S315080042800022014B1A7070477B2300201FB5124C81
S315080042901148637A0133DBB2272B88BF2523637263
S315080042A0FFF72AFF0023CDE90233E368627C019316
S315080042B00123617DD207094801F102018DF80C300E
S315080042C048BF8DF80E30FFF767FE054901A8FFF7CE
S315080042D06DFE04B010BD00BFC81E0020DC1E002005
S315080042E0E5420008022810B51BD002D8012805D0DF
S315080042F0FEE7032843D0FF2841D0F9E7214C637C29
S31508004300990707D5FFF7C8FEFFF7C0FF637C6FF371
S3150800431041036374637CDA0730D4BDE81040FFF7C5
S31508004320B5BF4B78DB072AD54C68217801F00F0317
S31508004330032B11D0052B22D1C90904F1080007F077
S3150800434036FAD8B1FFF7A8FEFFF7C2FE01462046A7
S31508004350BDE8104000F0B6BAC90904F1080007F034
S3150800436026FA58B1074C94F83D1004F13C00023186
S31508004370FFF712FE637C43F00203637410BDFFF778
S315080043808BFECAE7C81E002010B5094C00215C2226
S3150800439004F1080007F09AFD42F210730549E3603C
S315080043A0054BC4E9001342F20153238110BD00BF37
S315080043B0C81E0020D6BE898E5555550038B5044608
S315080043C0FFF76AFE002C3FD0204C257C627CB5FAAC
S315080043D085F35B0963F300026274FFF76FFE837966
S315080043E005F00F05C3F3000345EA8315237D23F083
S315080043F04F031D43637D25750BB906236375036853
S31508004400C4F816308288124B9A80FFF757FE8379D4
S3150800441094F83C20C3F300039B0143F0040322F005
S315080044204F02134384F83C3094F83D3013B9062301
S3150800443084F83D300368C4F83E308288054B9A807C
S31508004440BDE83840FFF722BF38BD00BFC81E0020B0
S31508004450DE1E0020061F002020290A4608B509D8B6
S31508004460054B06315975014603F11C0007F007FD97
S31508004470002008BD1220FCE7C81E002020290A4695
S3150800448008B50AD8064B063183F83D10014603F1F4
S31508004490440007F0F4FC002008BD1220FCE700BF2A
S315080044A0C81E00200A20D0B50B4CE38C584305F0F3
S315080044B077FC0646A08C0F4605F072FC0022074BD7
S315080044C005F0D8FC02460B463046394605F0FCFD99
S315080044D005F0E2FE2083D0BD2C1F00200000F43F2B
S315080044E01FB5154C40F60100218906F0FCFEA37E97
S315080044F05A061FD423F0070343F001032089A37645
S31508004500FFF7EAFAA37A04F10C00234493F82A3059
S315080045106375FFF7F1FDD4E90032A3EB520103EB13
S31508004520520302934FF48033019101A80349039380
S31508004530FFF770FD04B010BD2C1F0020C54600080B
S315080045400022134630B58BB0D910415C03F007043E
S315080045502141CC0742BF02F12801694401F8283CF1
S3150800456003F1010348BF0132252BEDD100230C4C82
S31508004570D910415C03F007052941C9075FBFB3FBA2
S31508004580F2F102FB1131283169444CBFD9B211F856
S31508004590281C0133252B04F8011BE9D10BB030BDCB
S315080045A0561F002010B540F2E244074A60431368DC
S315080045B000F5807004FB0131536801EB5001184483
S315080045C01160506010BD00BF2C1F0020024B98845C
S315080045D0D984FFF767BF00BF2C1F0020014B187551
S315080045E0704700BF2C1F0020C908884228BF08460C
S315080045F0014B1885704700BF2C1F0020044B5A6DCD
S3150800460022B95865A3F85810012070470020704752
S315080046102C1F002010B504460346054A4FF40060D7
S31508004620044906F05DFE2046BDE81040FFF764BA6F
S3150800463002C90008B6C8000810B504460346084A69
S315080046404FF40060074906F04BFE074A2046BDE8CE
S315080046501040937E43F04003937606F06EBF00BF8A
S31508004660F3C80008B6C800082C1F002010B5144C63
S31508004670A37E5B0623D4FFF70FFD40F2E243A18C2D
S31508004680226803FB0122A37A226094F84F20134480
S315080046902522B3FBF2F002FB10332289A372013202
S315080046A022810A22636802FB01336360238B5A1E48
S315080046B0228323B9BDE810400820FFF7BDBF10BD0F
S315080046C02C1F002002282DE9F74380460E460BD002
S315080046D003D8012800F0DC80FEE7032800F0DE801E
S315080046E0FF2800F0DB80F7E74F78714C17F00107D9
S315080046F063D14FF0FF3140F6030006F0F4FD3D4666
S31508004700A37E6C4F13F0200F12D0616D6FF3451323
S31508004710A376002900F09E803B7894F8582043F051
S3150800472003033B707A70B81C07F0A9FB0023636586
S31508004730FFF714F9A37E60F34103C3F30012C3F332
S31508004740C001920042EAC102A37642EA00133A780F
S3150800475003F01C0322F01C0213433B7040F60200D0
S31508004760398806F0C0FD797852480231C9B2FFF798
S3150800477013FCA37E7668D90709D56FF30003A376E1
S3150800478000236360FFF7A4FC2060FFF78BFE002D73
S3150800479000F08B80337803F00303022B05D0032B3C
S315080047A06FD0012B40F08180002528467278B11C15
S315080047B003B0BDE8F043FFF71FB9D1F8049040F6FF
S315080047C00300B9F8001006F08EFD99F80030A27EB5
S315080047D0C3F3001363F3820299F80030A276C3F399
S315080047E0C001C2F3001291422FD103F00303022B3A
S315080047F029D0032B08D0012B27D1002099F80110C6
S3150800480031B3FFF7EBF807463D46A27E99F800104C
S31508004810C2F3C003C1F38001994208D083F00103B3
S31508004820DB0043F0200322F028021343A376002F6F
S315080048303FF466AFA37EC3F3001282F0010262F36F
S315080048400413A3765CE73846D8E700252F46DCE74D
S315080048500D46DAE794F82820B91C0DF10700FFF792
S3150800486071F858B19DF80730002B08BF4FF00108C2
S315080048703B78787068F301033B7059E74FF00108FD
S31508004880F6E77178B01C03B0BDE8F043FFF75EB9F0
S31508004890074B9B7E9A0708D45B0706D4FFF7E6FE0C
S315080048A003B0BDE8F043FFF71BBE03B0BDE8F083D5
S315080048B02C1F0020881F0020014B1889704700BF55
S315080048C02C1F0020F7B5274D04460E465C22002112
S315080048D0284607F0FBFA2023AB7605232B83627E56
S315080048E0237E012743EA0223AB84627F237F04F1F8
S315080048F01E0043EA0223EB8494F82330C3F304032F
S3150800490085F84F3094F82330C3F3421385F85030B6
S315080049101B232B85FFF714FED4F80E30E27CEB60E0
S31508004920A37C2E6043EA0223227D2F7543EA0243C5
S315080049302B6195F84F30607DAB72E18A3944FFF7F9
S3150800494031FEFFF7CDFDEB8C074A084900934FF47B
S315080049500060AB8C06F0C4FC204606F0ECFD384639
S3150800496003B0F0BD2C1F0020E6C80008C9C800081F
S31508004970F8B50D4610B900242046F8BD0E4F3E681E
S31508004980002EF8D100F088F804460028F3D03860E5
S3150800499000F0CEF8204606F034FF38B130463E60C7
S315080049A000F0C6F8204606F027FFE4E7002DE3D01E
S315080049B02046A847E0E700BF88200020024B186879
S315080049C0003818BF012070478820002010B507F06E
S315080049D0EDF8044618B9034B01215B689847204651
S315080049E010BD00BF24100020F7B5114D04460F4630
S315080049F06E6801210020CDE90032B047DDE90032BA
S31508004A0006463946204607F0DAF8044618B9012062
S31508004A102B68984704463EB100F0BCFA00B91CB1B1
S31508004A2000216B6808469847204603B0F0BD00BFD2
S31508004A3024100020F7B5104D04460F466B68012177
S31508004A4000200192984739460646019A204606F004
S31508004A503AFF044618B901202B68984704463EB128
S31508004A6000F098FA00B91CB100216B68084698470F
S31508004A70204603B0F0BD00BF24100020431E0333B8
S31508004A8006D8044B984228BF1846642838BF6420C5
S31508004A90704700BF40420F00F8B5054605F0FAFF1B
S31508004AA007460E4B1E6826B9384605F0F7FF34460A
S31508004AB010E0B46884B1237C9C46DB070CD44CF028
S31508004AC0010C95E80F0084F810C084E80F003846FA
S31508004AD005F0E4FF2046F8BD3668E4E71810002024
S31508004AE038B505460C46E1B10B6843B11B6801337E
S31508004AF017D0CB681BB18B68003B18BF012318463B
S31508004B00D722412100F024FA204602F0D7F80023E4
S31508004B10054A85F80C311360044AC5E92F4313602A
S31508004B2038BD0023EBE700BF90200020942000202A
S31508004B3010B5044618B9054B054A136010BD00F0B8
S31508004B40A1FBD4F8C830002BF6D1F4E7E1B700088A
S31508004B501C10002010B50C4600F0AAFB1CB100F092
S31508004B600BFC0128FBD1BDE81040024B00210320B5
S31508004B705B6818472410002008B502460868FFF746
S31508004B807DFF08604868FFF779FF48608868FFF787
S31508004B9075FF8860C868FFF771FF0B69C860581C05
S31508004BA003D00B48834228BF03460B614B69581C48
S31508004BB003D00748834228BF034688694B61FFF73D
S31508004BC05DFFBDE808408861104601F0E3B900BF03
S31508004BD040420F002DE9F84FD0F8C03080460E4607
S31508004BE013B1038B8B4274D0D8F8BCB0BBF1000F5D
S31508004BF041D0DBF80830002B3DD0DBF80C20D2B3CF
S31508004C00D8F8D0A0BAF1000F38D04FF000094D46B9
S31508004C104F4601E0DBF8083005EBC50403EB8404D6
S31508004C20E3890135B34215D8238AB34212D3B4F9BE
S31508004C301220B8F92430934252DD404698F8001104
S31508004C40FDF752FD98F8153081468342274604D968
S31508004C50DBF80C209542DDD337B300233A464046AD
S31508004C601946D0470020A8F81860C8F8C07088F818
S31508004C700991BDE8F88F0320BDE8F88FD14647F6BD
S31508004C80FF755446514604EBC40703EB8707FB89B7
S31508004C90B34218D83B8AB34215D3B7F91220AA42B1
S31508004CA004D14FF0FF09DDE70120E2E7404698F816
S31508004CB00011FDF719FD98F8153081468342D1D9C0
S31508004CC03946DBF80C200134A24205D9DBF8083056
S31508004CD0D9E70020BDE8F88F0029E5D00F46C1E7DF
S31508004CE02746BAE72DE9F04182B09DF820C0D0F8F2
S31508004CF0D08004460D4616461F468DF807C0B8F103
S31508004D00000F2ED000220DF107031146C047D4F834
S31508004D10BC20194B20461A60184BD4F8C0201A60DC
S31508004D20174B1D6000F0BEFD05461EB9284602B0A9
S31508004D30BDE8F081B0FA80F040F2653233214009CF
S31508004D4000F006F93946204601F044F805460D4BB1
S31508004D5020461B68D4F8C0109847284602B0BDE81C
S31508004D60F081417D90F809316246994228BF19467B
S31508004D7000F01EFDCBE700BF902000209420002005
S31508004D808C2000201C1000202DE9F04385B0054634
S31508004D900F4614461E4601F081FA01F09FFA0028D4
S31508004DA03BD1DFF82481D8F800301BB1D5F8BC20F8
S31508004DB093421FD000F0E0FA012838D1D8F8003025
S31508004DC08BB31A687AB3D5F8BC1009688A4246D0FC
S31508004DD0D5F8C0301A68284606F0DCFE38B9012432
S31508004DE033462246394628460096FFF77BFF05B02C
S31508004DF0BDE8F083304B1B68002BDBD0D5F8C0200C
S31508004E009342D7D12D4B1B689F4222D000F0B4FAAB
S31508004E100128E5D04FF001090BE00022264B1A6065
S31508004E2001F054FABDE7D5F8BC301968D0E74FF061
S31508004E300009012000F03CFA00F09EFA0128FBD197
S31508004E401F4B002103205B689847B9F1000FB5D0C6
S31508004E50C6E706B174B9002005B0BDE8F083164A66
S31508004E601268D2B11168D5F8C02012689142B6D03E
S31508004E705968B0E70122D5F8D0408DF80F2084B1E3
S31508004E800022284611460DF10F03A0470D4B284670
S31508004E901B68D5F8C0109847DDE7D5F8C02012681A
S31508004EA0E6E7697D95F809312846994228BF1946EB
S31508004EB000F07EFCEAE700BF942000208C2000204A
S31508004EC0241000201C10002090200020F8B50E4663
S31508004ED0054605F0DFFD314607462846FFF77AFE08
S31508004EE0044620B1384605F0D9FD2046F8BD0346EC
S31508004EF0024631462846FFF747FF0446384605F07E
S31508004F00CDFD2046F8BD00BF4FF4007307B50A492A
S31508004F100DF10602ADF8063006F035FDBDF806308F
S31508004F20B3F5007F05D1022808BF002003B05DF85D
S31508004F3004FB0120FAE700BF98200020024B196005
S31508004F40024B1860FEE700BF201000209C220020BC
S31508004F5008B550B90548064B01601A60054B1A6832
S31508004F60054B1A601868FFF7E9FF08BD20100020F6
S31508004F7098220020882000209C220020014906F063
S31508004F8017BD00BF65640008014906F011BD00BFE2
S31508004F9039640008014B1878704700BF7C2300204D
S31508004FA0024BD868C0F30360704700BF000002B820
S31508004FB0431C07D06FF0FF02034B10405A62A3F55B
S31508004FC080535862704700BF00E000B808B5094A28
S31508004FD0FFF7E6FF0B2806D00C2809D0092814BFCE
S31508004FE00020022008BD106C10F48030F0D1F9E7DB
S31508004FF00220F7E7000002B810B504234FF03A4143
S3150800500001240A4AD1F81801C2F81831C2F8143135
S315080050104C634FF400511163410742BFC2F8143183
S31508005020A2F58052C2F8183110BD00BF002000BAA0
S3150800503037B50C46204D41B90A46072104F0F8FC5D
S315080050401E4B6C665C6003B030BD0722114604F047
S31508005050EFFC07221A4B0121DA60237901A885F8AB
S3150800506064306379019306F0E6FE019BC2B2D34031
S3150800507000F00F0040EA031085F86500A27985F86C
S315080050806620E27985F867202268AA6601932BB123
S3150800509002EB430132F8023B8A4207D12279013AF0
S315080050A01344084A136204F0E3FCCCE732F8020B17
S315080050B0834228BF0346EFE7003F00B0643F00B0D5
S315080050C0006000B8004000B800F01803182B074B22
S315080050D003D10022C3F88C207047010701D50122AD
S315080050E0F8E7C206F5D540F20112F3E7003F00B033
S315080050F03A4B2DE9F3411D6840F2022317460B404F
S3150800510000F00102134306460C463AD0A10709D51A
S31508005110334BD3F8083F03F0C003402B02BF0221EC
S31508005120304B99604FF000080AB300230022012093
S315080051300021CDE9008803F0AFFA4FF0FF31284689
S3150800514002F0DCFC414668830120FFF703FD696B2A
S3150800515005F1D40002F044FD23490868FFF728FF4B
S315080051604FF0FF330B602B7C43F008032B74A2052A
S3150800517007D50121284606F0F1FB24F400740643FE
S315080051800C43D5E94A233240234052EA030103D0AF
S315080051901649284609688847FB070FD51449154A52
S315080051A008680021136811600121134A117003B1C0
S315080051B09847124B002102205B68984717F00E0F9C
S315080051C008D040F2E9123B21002002B0BDE8F041C8
S315080051D0FFF7BEBE02B0BDE8F08100BF8820002000
S315080051E0003000B0001002B8301000202C1000204B
S315080051F0B0220020AC2200207F23002024100020AB
S31508005200F7B5D0E94AC70446DDE908658CEA060021
S3150800521087EA05011040194080EA0C007940C4E984
S315080052204A0123F4004105EA0103002522F00100A2
S3150800523043F4007306EA000243F00203CDE9005581
S3150800524003F02AFA237C9A0717D5D4F82C319B0544
S3150800525013D54FF48031204606F080FB237C65F396
S3150800526041032374D4E94A2302400B4052EA03015E
S3150800527003D00349204609688847002003B0F0BDDB
S315080052802C10002038B10368044A002B08BF1346C7
S31508005290034A13607047014BFAE700BF37BA0008A4
S315080052A02C100020014B0020D9677047003F00B042
S315080052B003282DE9F7434CD8274B13F80080274BD2
S315080052C01E5C274B13F8009005F0E4FB074603F035
S315080052D0D5FB054640B100230022CDE90033012065
S315080052E00023002103F0D8F903F0D0FB48B10023CE
S315080052F00022CDE90033002000234FF4004103F0DB
S31508005300CBF926B3174BDC6C04F00804164B314670
S31508005310DC64404603F0EAFD4A463146404603F05F
S3150800532065FE124BDC6465B1114B1868416BD430CD
S3150800533002F056FC0F490868FFF73AFE4FF0FF33B4
S315080053400B60384603B0BDE8F04305F0A7BB34460A
S31508005350DCE703B0BDE8F08330C9000834C90008AB
S3150800536038C90008004000B8006000B8005000B80E
S31508005370882000203010002008B5FFF711FE0138FC
S31508005380C0B20B2802D8054B185C08BD044B5B69F4
S3150800539013F0060F0CBF01200420F6E73CC90008ED
S315080053A000C001B831F00F0210B50BD1FFF7E4FFCA
S315080053B0012809D1054CA36F23F00F0001431046BD
S315080053C0A16710BD0120FCE70220FAE7003F00B004
S315080053D008B50D4B1A6C12F0A00F13D15B6C5B0766
S315080053E001D5012008BD094BD3F8083F23F07F43B8
S315080053F023F0FF03002BF4D0FFF7D2FD092801D0D4
S315080054000C28EED10020EDE7000002B8003000B00D
S31508005410024638B588B9194B1B684BBB0125C1F143
S315080054202704C4F11C03002BB8BF5B42232B23DCE3
S315080054307DB1134B1970002038BDFFF79DFF012879
S3150800544018D10F4B002593F90040C4F12704641ABC
S31508005450E7E7917405F01EFB0A4AE402136A04F4AE
S31508005460FF2423F4FF231C43146205F017FBE2E72D
S315080054700320E1E70220DFE70120DDE7882000209E
S315080054807E23002000C000B8094B08465A6A9102DC
S315080054900BD4D3F80021D20708D4D3F8803013F4FC
S315080054A0706F14BF0120002070470120704700BFAD
S315080054B0004001B8F8B514460D46426B064682EA26
S315080054C004030B4053404363314A01F00B0323EABC
S315080054D00401D1642340A2F580526907D36410D52C
S315080054E00121FFF7D1FF60B103F0A0FC4FF4007370
S315080054F014F0040F14BF274A274A53620422274B85
