S014000073656E736F722D73696C6162732E7333379B
S31508012000C00A0020B93A010879320308793203086F
S31508012010EF4B03087932030879320308793203084A
S3150801202079320308793203087932030879320308C9
S3150801203079320308A0FB03089D2D030879320308AA
S3150801204079320308793203087932030879320308A9
S315080120507932030879320308793203087932030899
S315080120607932030879320308953801087932030869
S315080120707932030879320308793203086D9E01081B
S315080120809125010881250108793203087932030867
S315080120907932030879320308793203087932030859
S315080120A07932030879320308B14201087932030803
S315080120B07932030879320308793203087932030839
S315080120C079320308793203082106030879320308AD
S315080120D001100308E7E50308E3E50308F107030828
S315080120E0F3E50308EBE50308D90F0308EFE5030851
S315080120F04110030879EB0208AD10030849ED0208FF
S3150801210079320308793203089F46030879320308AE
S315080121107932030879320308F5350108793203085B
S3150801212079320308793203087932030879320308C8
S3150801213079320308793203087932030879320308B8
S31508012140793203087932030879320308000000005E
S31508012150013800D0FCE77047D0B584B00020ADF84F
S315080121600C00ADF80E0003460246014611F002F9CD
S31508012170194811F01DF800B1FEE7184C20681FF048
S315080121805DF913A3D3E900231FF0D2F906460F46DA
S3150801219060681FF053F90EA3D3E900231FF0C8F9AD
S315080121A01FF060FC0446304639461FF05BFC0146C9
S315080121B00023009322460848007811F011F800B16F
S315080121C0FEE700F077FB00B1FEE7002004B0D0BDC2
S315080121D09A9999999999F93FD70D0020E40B00200E
S315080121E070B505463E4C8AB020B1002300882360AD
S315080121F00DF012FF3B482BF05DFD3B4E3B4B304645
S3150801220033603B4B736026F039FD0021304618F0E8
S3150801221073FC31A3D3E90023A062C4E9062326F09F
S3150801222035FDD4E90623194310434FF0FF33C4E9BA
S315080122300601CDE900014FF0FF32A06A2BF0A1FD9E
S3150801224002224FF0FF31A06A2BF0A0FD01200DF00C
S31508012250A3FC4FF4007300222649A06A2BF0EEFD79
S31508012260B0F5007F36D100239422CDE907330993CF
S315080122703C23CDE9033205939623A06A03A9069365
S3150801228018F088FD25B3287C0EF01EF90546E0B93D
S31508012290A06A2BF0B4FE0EF0BFF80DF05FFC20B17A
S315080122A04FF4807000210BF069FC0DF067FC20B13A
S315080122B04FF4006000210BF061FC012018F070FC5E
S315080122C00D4A0E49A06A26F0D7FC28460AB070BD09
S315080122D0FF20D9E70725F8E709D5015520000000B1
S315080122E058100020690345EC902400207102020869
S315080122F08424002084220020218C0308618C030891
S3150801230010B5054C237833B9044B13B1044800E0E2
S3150801231000BF0123237010BDA81200200000000091
S315080123208448040808B5034B1BB10349034800E078
S3150801233000BF08BD00000000AC1200208448040854
S31508012340A3F5803A704700BF174B002B08BF134B04
S315080123509D46FFF7F5FF00218B460F461348144AA1
S31508012360121A2CF093F90E4B002B00D098470D4BFF
S31508012370002B00D098470020002104000D000D48CD
S31508012380002802D00C4800E000BF1FF08DFD200098
S31508012390290020F025FE1FF073FD00BF000008008C
S315080123A00000000000000000C00A0020EC0F002019
S315080123B0BC2A0020000000000000000008B502F059
S315080123C0F3FA21F09DF9224A136F23F0070343F02C
S315080123D00303136702F0E8FC1E4B9B6A13F0020F16
S315080123E002D11D4B01229A62194BD3F8202122F002
S315080123F0030242F00202C3F82021D3F8242122F075
S31508012400070242F00202C3F82421D3F8402122F040
S31508012410030242F00202C3F84021D3F8602122F0F8
S31508012420030242F00202C3F86021D3F8402222F0E7
S31508012430030242F00202C3F84022D3F8002222F036
S31508012440070242F00202C3F80022002008BD00BFBD
S315080124500080005000C0005000E0005010B596B052
S31508012460234C0DF13C0CA646BEE80F00ACE80F0064
S315080124709EE807008CE8070000230A930B930C9348
S315080124800D930E931B4A0A9228220B9204228DF869
S31508012490312001228DF832208DF833200DF1200EDE
S315080124A01C3494E803008EE803000DF1080C02932E
S315080124B0039304930593069307938CE8030010236B
S315080124C08DF8103011238DF811300B4B059320230D
S315080124D006938DF81C208DF81D20084B00930AAB36
S315080124E00FAA6146064806F0F3FA16B010BD00BFFA
S315080124F068F1030800C0055020130020C41200200B
S315080125004013002010B50C46831EDBB2012B06D9F9
S31508012510A31EDBB2012B0ED9012C18D910BD012936
S31508012520F6D80F4B1B6CC3F3001304221146002087
S3150801253003F038F9F0E70128EED8094B1B6CC3F311
S31508012540001300220421104603F02CF9E4E7054B99
S315080125501B6818680028E1D0436A9847DEE700BF80
S3150801256000C00350E00B002008B50349034806F0F4
S31508012570F5FDFFF773FF08BDD80B002018130020DF
S3150801258008B5024822F0DFFA08BD00BF4013002053
S3150801259008B5024822F0D7FA08BD00BF401300204B
S315080125A008B5024B1A6A1868904708BD40130020FF
S315080125B008B5012808D1094B01221A7008490948AA
S315080125C020F07DFD002008BD431E0022064905486E
S315080125D020F075FD4FF0FF30F5E700BFAA2900206E
S315080125E0B4F10308641300208CF1030808B5012827
S315080125F00BD101F0EFF888B901F012F970B90B495E
S315080126000B4820F05CFD002008BD431E0022094945
S31508012610074820F054FD4FF0FF30F5E70649044816
S3150801262020F04DFD4FF0FF30EEE700BF04F203083E
S31508012630641300208CF10308F4F1030830B583B064
S3150801264002281ED10C460023019301A9606820F0D7
S315080126504FFDF8B1019809281CD800230093800082
S31508012660694600F17E6001F091F80546D0B9009BF4
S3150801267062681149114820F022FDCDB9002003B046
S3150801268030BD431E01220E490C4820F018FD4FF0BB
S31508012690FF30F4E762680B49084820F010FD4FF057
S315080126A0FF30ECE762680849044820F008FDE4E7D2
S315080126B04FF0FF30E3E700BF34F20308641300204C
S315080126C08CF1030818F2030844F2030808B50368F5
S315080126D023F47F4323F00703204A934230D018D9C5
S315080126E01F4A934227D002F1FD7202F580329342C6
S315080126F020D1436813F0010F26D113F0020F26D11A
S3150801270013F0040F26D113F0080F13D000F034FB91
S3150801271010E0A2F51022934208D002F5A0229342B6
S3150801272008D10146022000F0A1FB03E0002108467A
S3150801273000F09CFB08BD0021032000F097FBF9E798
S31508012740043020F0D8FBF5E700F060FAF2E700F074
S3150801275009FBEFE720F043FCECE700BFA0000A0005
S31508012760A000060108B50146014800F0CFFC08BDE6
S31508012770641300200E4B1B7813B10E4B1B7803B163
S31508012780704700B583B00DF10701002021F0CDFF98
S3150801279008E09DF80700FFF7E5FF0DF107010020A6
S315080127A021F0C3FF0028F4D003B05DF804FB00BF95
S315080127B0D60D0020AA29002038B50223094A0A495C
S315080127C00A4800F0B5FB48B90546084C204600F012
S315080127D011FE204600F012FD284638BD4FF0FF35A0
S315080127E0FAE700BFF0F203088D2F030864130020EF
S315080127F070B582B000260096184D287000F096FF35
S3150801280020F0AFFC8DF8070001F00AF88DF80700F3
S3150801281000F0E0FF8DF80700114C1249204600F040
S31508012820C7FF8DF807006946204600F0AFFF8DF80F
S31508012830070001F00BF88DF8070000966946204657
S3150801284000F0A4FF8DF8070000F0D4FA2B780BB935
S3150801285002B070BDFFF7B0FFFAE700BFD60D002042
S315080128600C00E00F4C555241054B1B7823B1054B23
S315080128701B781BB90020704700207047012070475C
S31508012880D60D0020AA29002010B584B0007B084B7C
S3150801289018704FF6FF73029300240194C82300931E
S315080128A023462822182110F0E5FC204604B010BD65
S315080128B0AB29002008B50221064B187810F0B2FCA6
S315080128C000B1FEE70221034B187810F0BFFC00B1F6
S315080128D0FEE708BDD70D002007EE100AB8EE477AC5
S315080128E0094BD3ED0D7A37EE677AD3ED0C6AC7EE4D
S315080128F0267A9FED067A67EE877AFDEEE77A17EE76
S31508012900903A18B2704700BF080C00200000C84270
S3150801291008B5024807F018F808BD00BF080C0020E2
S3150801292000B583B00346002201920092044A4FF48F
S315080129307A71044807F0C0F803B05DF804FB00BFDC
S31508012940B52F0308080C002030B5A7B01E4CA36AA2
S31508012950D88880B2FFF7C0FF236ADB88A26AD588C8
S31508012960ADB21A4A82FB0012C117C1EB6211642289
S3150801297002FB110212B2002AB8BF524292B2606A31
S31508012980C08880B2E46AE488A4B2049403900292EF
S3150801299009B2019100959BB20D4A802106A81FF044
S315080129A01DFC05460024AC420BDA7F2C09D804F13C
S315080129B098036B4413F8801C002021F0AAFE013409
S315080129C0F1E727B030BD00BF080C00201F85EB5189
S315080129D040F303080B4B1B78022B10D80A4A926A5C
S315080129E0D1880A4A02EBC3029180094901EB8301A6
S315080129F0096811600133034A1370002070470120EA
S31508012A00704700BFAC290020080C00207413002071
S31508012A1080F303082DE9F0438DB000220023CDE9A8
S31508012A200A23CDE90823CDE90623CDE90423CDE917
S31508012A300223002301930093694B1F78022F40F26A
S31508012A40CD80002638E0674B03EBC608D8F80000AE
S31508012A501EF016FD04460D46B8F804001EF0EEFCFD
S31508012A608046894622462B46DDE90A011EF0AAFB65
S31508012A70CDE90A0142464B46DDE908011EF0A2FBF3
S31508012A80CDE9080142464B46204629461EF050FD2F
S31508012A90DDE906231EF096FBCDE9060122462B4603
S31508012AA0204629461EF044FDDDE904231EF08AFB73
S31508012AB0CDE904010136F6B2BE42C4D338461EF04A
S31508012AC0CDFC06460F46DDE904231EF031FD04461A
S31508012AD00D46DDE90A01DDE90A231EF029FD024654
S31508012AE00B46204629461EF06BFBCDE90201002262
S31508012AF00023DDE902011EF083FF20B101242046EF
S31508012B000DB0BDE8F083DDE90623304639461EF0EF
S31508012B100FFD04460D46DDE90A01DDE908231EF02D
S31508012B2007FD02460B46204629461EF049FBDDE90C
S31508012B3002231EF027FE1EF0B5FF0190DDE90845C8
S31508012B400198DDE90A891EF09BFC42464B461EF0B8
S31508012B50EFFC02460B46204629461EF031FB32465B
S31508012B603B461EF00FFE1EF09DFF009020F0F9FA7D
S31508012B7008B10124C3E701214FF07E6000F018FE79
S31508012B8090B90199184800F013FE88B900991748B9
S31508012B9000F00EFE80B900F059FE88B920F0E8FA77
S31508012BA0044688B10124AAE720F0E2FA0124A6E73F
S31508012BB020F0DEFA0124A2E720F0DAFA01249EE7E2
S31508012BC020F0D6FA01249AE7019A094B1A63009A6A
S31508012BD05A63034B187020F0F8F990E702248EE740
S31508012BE0AC290020741300200400E00F0800E00F50
S31508012BF0080C002010B50024034B1C70204620F059
S31508012C00E4F9204610BD00BFAC29002070B584B098
S31508012C1002A94E4B186806F031FF48B14C4B1022F9
S31508012C20C3F8A0204B4B1B6A1B7953B904B070BD7E
S31508012C30002301930093484A0299484822F017F85D
S31508012C40ECE7434BC3F8A020424C236A00251D71CB
S31508012C50236ADB88C3F307238DF80C30236ADB88E4
S31508012C608DF80D3003AB022229461B2010F03EFBDE
S31508012C703B4E03AB02221B21307810F065FBA36A99
S31508012C801D71A36ADB88C3F307238DF80C30A36A89
S31508012C90DB888DF80D3003AB022229461F2010F080
S31508012CA025FB03AB02221F21307810F04DFB636A26
S31508012CB01D71636ADB88C3F307238DF80C30636AD9
S31508012CC0DB888DF80D3003AB02222946232010F04C
S31508012CD00DFB03AB02222321307810F035FBE36AA2
S31508012CE01D71E36ADB88C3F307238DF80C30E36AA9
S31508012CF0DB888DF80D3003AB02222946272010F018
S31508012D00F5FA03AB02222721307810F01DFBA36ADE
S31508012D10D88880B2FFF7E0FDC0F307238DF80C30A1
S31508012D208DF80D0003AB022229462B2010F0DEFA9E
S31508012D3003AB02222B21307810F006FBFFF794FD36
S31508012D4000283FF473AFFFF7FFFD6FE7000C002083
S31508012D5000F00350080C0020BF2F03088C13002035
S31508012D60AB29002008B5034B0122C3F8D020FFF791
S31508012D704DFF08BD00D0035000B585B002A9184B18
S31508012D80186806F07BFE30B1164B9B6A1B795BB956
S31508012D9005B05DF804FB002301930093124A0299DA
S31508012DA0124821F064FFEFE70E4B9A6A0021117170
S31508012DB09A6AD288C2F307228DF80C209B6ADB88AF
S31508012DC08DF80D3003AB02221F2010F08FFA03ABEA
S31508012DD002221F210648007810F0B6FAD8E700BF8C
S31508012DE0000C0020080C0020BF2F03088C130020BC
S31508012DF0AB29002000B583B020F0B3F910B103B0B8
S31508012E005DF804FB01A94FF07E6000F0BFFC10B924
S31508012E10019B012B07D0104B104A1A63104A5A63BB
S31508012E2020F0A6F9EBE701A90E4800F0AFFC58B966
S31508012E30019A094B1A6301A90B4800F0A7FC38B996
S31508012E40019A054B5A63EBE7034B044A1A63F2E707
S31508012E50014B034A5A63E3E7080C0020000020C42B
S31508012E6000743D470400E00F0800E00F102820D841
S31508012E700B46104A1278062A1BD800B585B000EB16
S31508012E804000CC2101FB02F202EB80000A4A104401
S31508012E9007C80DF1100C0CE9070039B10393184660
S31508012EA0884718B99DF80420024B1A7005B05DF8D9
S31508012EB004FB7047AD2900208CF30308F0B583B0F5
S31508012EC00C4615461FF0BEF968B3064601AA17490E
S31508012ED02BF049FC0027E8B16B1EBB421AD91FF03B
S31508012EE0B1F944F8270098B1013701AA0F49002022
S31508012EF02BF039FCEFE754F825001FF001F80135EE
S31508012F00AF42F8DC30461EF0FBFF4FF0FF3707E013
S31508012F100025F5E7002344F8273030461EF0F0FF78
S31508012F20384603B0F0BD4FF0FF37F9E720F903083B
S31508012F3090B110B504460A4820606160A260E3605A
S31508012F40204620F073F82268012382F88830226827
S31508012F5082F88930002010BD4FF0FF30704700BF5E
S31508012F60AC13002051B370B506460D460A684B6886
S31508012F7043B11349304620F0A2F8EB680BB12B692F
S31508012F8013B970BD0F4BF4E70F49304620F097F897
S31508012F90002404E00D49304620F091F801342B69EC
S31508012FA0A342EED9EB6804EB840203EB820153F8E2
S31508012FB022204B68002BEDD1054BEBE7704700BF8C
S31508012FC038F9030824F9030844F9030854F90308EE
S31508012FD014F20308F0B583B0089D1C4653B30646A0
S31508012FE0084611462F683A4620F042F8034618B3B8
S31508012FF0C16881B1026972B1012C06D00435009508
S31508013000631E3046FFF7E6FF0AE001463046FFF742
S31508013010A9FF002004E09B6823B12946204698476A
S3150801302003B0F0BD3A460649304620F048F84FF05D
S31508013030FF30F5E71846F3E74FF0FF30F0E700BF3A
S3150801304064F9030870B592B0002848D00D460646C3
S31508013050002947D00B4600E001331A78264C12F8AE
S3150801306004C01CF0080FF7D1002A3ED0232A40D00D
S31508013070102202A92846FFF721FF041E1DDB002C9A
S3150801308034D002AB009323461C4A12681C493046C9
S31508013090FFF7A0FF0546B0F1FF3F08D1B16809B1B6
S315080130A0F2688AB9029A1749304620F008F821468B
S315080130B002A81FF0CDFF2C4618E0134930461FF031
S315080130C0FEFF4FF0FF3411E002AB00932346304672
S315080130D0FFF780FF0546B0F1FF3FE8D1E2E74FF081
S315080130E0FF3403E04FF0FF3400E00024204612B01D
S315080130F070BD0024FAE700BFE9460408CCFA0308C4
S31508013100D0FA0308A0F9030880F9030810B582B0BC
S315080131108DF80710002846D00446026892F88930CF
S31508013120002B40D0CBB20D2B0AD8082B0AD3A3F11A
S315080131300801052906D8DFE801F0443628050528DF
S315080131407F2B3ED0A3F12001C9B25E292BD8D2F834
S3150801315084107E2927D8D2F8801053542268D2F8D1
S3150801316080300133C2F880302268D2F884300133C6
S31508013170C2F88430236893F88830A3B101220DF18F
S31508013180070120461FF05CFF0DE092F8883063B90D
S315080131902268D2F884306BB920461FF047FF1449DC
S315080131A020461FF080FF02B010BD124920461FF0CD
S315080131B07AFFEDE70021D15421682046FFF742FF47
S315080131C0EAE7D2F88030002BEDD0013BC2F8803017
S315080131D02268D2F88430013BC2F88430236893F818
S315080131E08830002BDFD0044920461FF05CFFDAE760
S315080131F0B8F9030830F20308C0F9030848B108B55D
S31508013200026892F8892002B908BD02491FF04BFFEE
S31508013210FAE77047B8F9030808B5044B186810B1FE
S3150801322003491FF04CFF002008BD00BF38140020D9
S31508013230C4F90308114B1B68EBB170B505460E4678
S31508013240012407E056F824200D490C4B18681FF095
S3150801325036FF0134AC4207D2012CF3D90949074B91
S3150801326018681FF02CFFEDE70749044B18681FF093
S3150801327026FF002070BD4FF0FF307047381400203C
S31508013280DCF90308D8F9030830F2030808B5044B3A
S31508013290186810B103491FF012FF002008BD00BFCE
S315080132A038140020E0F903082DE9F843484B1E6855
S315080132B026B10D46012845D9002406E045481EF0E9
S315080132C075FF4FF0FF301FE00134032C0FD804EBD4
S315080132D084036968404A52F823002BF0F5F900285F
S315080132E0F2D104EB84043C4B03EB840801E04FF074
S315080132F00008B8F1000F09D0B8F1000F1BD04146FC
S315080133003046FFF72FFE0020BDE8F883B768002F87
S31508013310F2D00024F368A342EED904EB840307EB49
S315080133208309696857F823002BF0CEF908B10134EF
S31508013330F0E7C846E0E76A68284930461FF0BFFE4D
S315080133400020E1E7264930461FF0B9FE2549204B02
S3150801335018681FF0B4FE002403E023491FF0AFFEEE
S315080133600134032C0DD81A4B18681B4B04EB840245
S3150801337003EB820153F822204B68002BEDD11B4B3E
S31508013380EBE7134B18688368FBB1C3680BB90020D8
S31508013390BAE717491FF093FE002403E012491FF00C
S315080133A08EFE01340A4B1868C368A3420BD9836899
S315080133B004EB840203EB820153F822204B68002BAD
S315080133C0ECD10A4BEAE700209EE700209CE700BF04
S315080133D038140020E8F90308D0FA030800FA0308AC
S315080133E01CFA030834FA030854F9030814F203080B
S315080133F04CFA0308014B1860704700BF38140020C7
S315080134002DE9F041ACB0714D29AB05F1280207CA87
S3150801341003C31A8025AC05F134030FCB84E80F00EA
S3150801342000242294239424940DF1600C0FCDACE86A
S315080134300F000FCDACE80F0095E803008CE80300F8
S315080134408DF858408DF8594003278DF85A708DF834
S315080134505B408DF85C408DF85D408DF85E405022EA
S31508013460214602A82BF012F901258DF808508DF88E
S315080134700D508DF812508DF817508DF81C508DF897
S3150801348021508DF826508DF82B508DF830508DF837
S3150801349035508DF83A508DF83F508DF844508DF8D7
S315080134A049508DF84E508DF853501FF047FE294666
S315080134B02A2001F09FF9464E304602F049FA0221C8
S315080134C04FF4B06001F08EFC4FF002088DF88B8046
S315080134D041F28833ADF890304FF4E163ADF892309C
S315080134E022463C49304602F0CBFA8DF88D004FF45E
S315080134F0B0601FF053FF384BA3FB00231B0BADF83D
S315080135008E308DF8628004238DF861308DF87650FF
S315080135108DF875309DF88D300093234622462F4944
S31508013520304602F0C7FA1A901F908DF859508DF857
S3150801353058508DF85D508DF85A70224616E02CAB1E
S3150801354003EB820111F81B0C02EB8203B0336B44C7
S3150801355003F8A70C11F81A0C03F8A60C11F8191C94
S3150801356003F8A51C012103F8A41C0A44032AE6DD75
S31508013570174C18AA22A9204602F0C2FA02AA16A9CD
S31508013580204602F07BF94FF48033E360144BD3F8FD
S31508013590202342F00102C3F82023D3F8282342F05E
S315080135A00102C3F82823D3F8282342F48032C3F84A
S315080135B02823A36A43F00203A3620A4B4FF480024D
S315080135C0C3F884215A602CB0BDE8F08120FB0308BA
S315080135D00040005A002D310173B2E74580969800E4
S315080135E000C0035000E100E0014B0822DA60704791
S315080135F00040005A30B585B0404B1B78404A5268A6
S31508013600B3EB820F39D03F4BD3F8883003F0070369
S315080136108DF80F3025E03C4C6D463A49284620F096
S3150801362007F995E8030084E803009DF80F30013B8C
S31508013630DBB28DF80F302379DBB2344951F82320F8
S3150801364020682379DBB2024441F823202279D2B2D9
S315080136502F498B5C0133DBB28B54284A137801332B
S3150801366013709DF80F30002BD5D12A4B02225A62CE
S3150801367000238DF80F3005B030BD22481023C360F2
S315080136804FF40033C36002F063F90123224AC2F8FA
S31508013690D0301E4802681E490C78E4B2B2FBF4F237
S315080136A092B21E4CE280237182688C78E4B2B2FB36
S315080136B0F4F292B21A4CE280237142684C78E4B271
S315080136C0B2FBF4F292B2174CE2802371C268C97850
S315080136D0C9B2B2FBF1F292B21349CA800B71002347
S315080136E0064A137006E00022084941F823200849D2
S315080136F0CA540133032BF6DDB7E700BFAE29002014
S31508013700000C00200040005A4014002048140020F4
S315080137103C1400200060005A00E00350E00A002033
S31508013720D00A0020F00A0020C00A0020034AD2F875
S31508013730443443F00103C2F84434704700E00350AF
S3150801374010B5012302220421002002F02BF80023E0
S3150801375000E001330B4A9342FBDD0B4B5B6CC3F371
S31508013760001413F0100F04D1074B5B6C13F0100F04
S31508013770FAD000231A460421184602F013F884F0F9
S31508013780010010BD3F420F0000C0035038B5044682
S315080137900D461FF0DFFC38B1C4F38700034B53F81D
S315080137A020302B60002038BD0220FCE75C14002085
S315080137B038B504460D461FF0CDFC30B1C4F3870079
S315080137C0034B43F82050002038BD0220FCE700BF18
S315080137D05C14002010B502F04BFC4FF07E602BF014
S315080137E0B7F9044602F054FC034B00221A60A01AEA
S315080137F018BF012010BD00BF5814002010B502F0F3
S3150801380037FC282205494FF07E602BF099F90446CA
S3150801381002F03EFC201E18BF012010BD5C140020DA
S3150801382010B500242346092C0CD8A000064901EB43
S31508013830840100F17E601FF0A2FC034610B9013431
S31508013840E4B2F0E7184610BD5C14002008B5104B29
S315080138501B68012B13D9FFF7E3FF034608B1184686
S3150801386008BDFFF7B7FF03460028F8D1FFF7C6FFE3
S3150801387003460028F3D1FFF7D3FF0346EFE7FFF727
S31508013880BDFF03460028EAD1FFF7CAFF0346E6E76C
S3150801389058140020044B5A6903F500535A61034B27
S315080138A001221A70704700BF00800450AF2900201A
S315080138B010B582B00446204B93E803000090ADF89A
S315080138C00410236823F47F4323F007031B4A93421A
S315080138D02BD002F18272934203D1B4F80530412B01
S315080138E001D002B010BDFF231A4602A911E903004F
S315080138F01FF051FC012809D041F2FC1202F0FC022A
S31508013900412120790FF008FD28B1FEE70C4B012271
S315080139101A700022F2E70A4B1B78002BE1D02079B6
S315080139200FF0D2FC0028DCD0FEE7054B1B78002BF4
S31508013930D7D021F014FAD4E764FB0308A0000601E6
S31508013940B029002000B583B002218DF800100022AD
S3150801395005481FF03BFC0190082168461FF042FC10
S3150801396003B05DF804FB00BF006A1800024B04228D
S31508013970C3F8A020704700BF00E00350024B0422A1
S31508013980C3F8A020704700BF00D00350F0B58FB030
S31508013990444C09AD26460FCE0FC533682B6001ADE1
S315080139A014340FCC0FC594E80F0085E80F000121E8
S315080139B03A2000F01FFF0121542000F01BFF0124CB
S315080139C08DF8094000258DF80850374B0B9301AB4C
S315080139D00D93364F09A938461FF0FFFE23460422E8
S315080139E02946204601F0DEFE2B4622462146204680
S315080139F001F0D8FE234604220221204601F0D2FE18
S31508013A00234604220221084601F0CCFE284E294B02
S31508013A10C6F8A0344FF00113C6F89C34C6F8A4447E
S31508013A201C23C6F88C344FF4487006F03DFAFFF7AC
S31508013A309DFF142006F038FAFFF7A0FF232006F0B1
S31508013A4033FAFFF793FFB92138461FF0BAFEFFF79D
S31508013A5095FF2B462A462946204601F0A3FE2B460A
S31508013A602A462146204601F09DFE23462A46022182
S31508013A70204601F097FE23462A460221084601F010
S31508013A8091FE384601F024FDC6F8A054C6F89C54A8
S31508013A90C6F8A454C6F88C542946542000F0AAFE48
S31508013AA00FB0F0BD6CFB0308E07072000000045A09
S31508013AB000C003500100020008B500F02DF8124AB3
S31508013AC00AE01068516850F8230041F823000133D1
S31508013AD091688B42F5D30C320C4B9A4201D20023E2
S31508013AE0F6E70B4A08E01168002041F82300013384
S31508013AF051688B42F7D30832064B9A4201D200230A
S31508013B00F6E7FEF721FC00BF8C480408984804082C
S31508013B10984804089848040810B4144B144A9A6043
S31508013B20D3F8882042F47002C3F88820114A4FF46A
S31508013B300041916601F1884101F500524FF0FF30CD
S31508013B4010660D4850660220C3F8D000BFF34F8FA8
S31508013B50BFF36F8F09480824C0F880414FF44033FA
S31508013B60D36004600B615DF8044B704700ED00E01B
S31508013B7000200108009000507FFF070000E100E0E7
S31508013B80014B1868704700BF440C002008B5094B63
S31508013B901B6F03F00703022B04D0032B05D0012B5F
S31508013BA006D0FEE7FFF7ECFF03E0034B186800E0D9
S31508013BB0024808BD00800050480C0020002D310144
S31508013BC008B5FFF7E3FF054B1B6FC3F30333013357
S31508013BD0B0FBF3F0024B186008BD00BF008000502F
S31508013BE0400C00200048704700B4C404014B186813
S31508013BF0704700BF480C002008B5064B1860064BF5
S31508013C001B6F03F00703032B00D008BDFFF7D8FF8E
S31508013C10FBE700BF480C00200080005000487047B1
S31508013C20002D3101014B1868704700BF4C0C00206C
S31508013C3008B54FF000639B6A03F17842B2F5903FED
S31508013C4011D219680B4A914210D10B4A12781AB14E
S31508013C50022A01D0002008E0DB69984728B9064BFB
S31508013C6001221A7001E04FF4817008BD4FF481708A
S31508013C70FBE700BF07B0CD5EB12900204FF0005326
S31508013C8040F202221A804FF20F025A80BFF34F8F79
S31508013C900549CA6802F4E062044B1343CB60BFF3DB
S31508013CA04F8F00BFFDE700BF00ED00E00400FA05F5
S31508013CB00346064A10680344054A934202D8034A52
S31508013CC0136070474FF0FF30704700BF500C00205B
S31508013CD00000012008B501213A2000F08BFD0123DF
S31508013CE004220321002001F05DFD00201FF079FD6B
S31508013CF0314B0122C3F84424304BD3F8FC2012F08F
S31508013D00807206D01946D3F8FC3023F08073C1F8C7
S31508013D10FC302B49D1F8803023F0030343F001032B
S31508013D20C1F8803032B1254AD2F8FC3043F08073AD
S31508013D30C2F8FC304FF460701FF030FB1F4BD3F80C
S31508013D40F02042F00102C3F8F020D3F8FC2042F03B
S31508013D508072C3F8FC20A3F55D431A4A1A6000F580
S31508013D60D52000F2FC40C008174BA3FB0030800A9F
S31508013D700138164B18610222C3F8F0204FF48072FD
S31508013D80C3F804234FF06043114AC3F8B02F114A10
S31508013D90C3F8802ED3F8002E42F48072C3F8002EA1
S31508013DA0FF2283F82020D3F8002E22F48072C3F86C
S31508013DB0002E002008BD00BF00D0035000ED00E032
S31508013DC000800050FF03004017916502000004E0DF
S31508013DD055CEACC5090001004FF06043D3F8803ECB
S31508013DE013F0010F01D1112070470E4AD2F8FC30A9
S31508013DF043F08073C2F8FC304FF06043D3F8002ECD
S31508013E004FF0010C0CFA00FC42EA0C02C3F8002E32
S31508013E1053F82030002BE8D04FF0604303F8201008
S31508013E200020704700ED00E0F0B585B00C469446D9
S31508013E309DF83410664A1278002A00F0BD800546BE
S31508013E40BCF1070F00F2BA800A9A002A00F0B8807E
S31508013E500B9A002A00F0B6800E9AB2F5006F00F3AD
S31508013E60B38001285BD05B4A02EB0C12127B002A55
S31508013E7000F0AC8000220092019202920392564A07
S31508013E8002EB4C1E002C4FD14FEA4C1600209051E4
S31508013E90CEF80400CEF80800CEF80C009EF8020011
S31508013EA040F010008EF802009EF8030040F0300042
S31508013EB08EF8030021B9C1B241F003018EF803104F
S31508013EC000930E9B013B444A4FEA4C1002EB4C11FE
S31508013ED0165A63F30E1616520A9B8B600B9B4B60A0
S31508013EE0CB789DF83C2062F38303CB70012D36D045
S31508013EF0109B002B56D0374A4FEA0C1102EB0C13D4
S31508013F0010985050119A5A6000249C605D7372464D
S31508013F106946604602F036F8204605B0F0BD0C9AAF
S31508013F20002AA0D12D48F8E72B4F4FEA4C1607EB8C
S31508013F304C120020B85150609060D060907840F0E3
S31508013F4010009070D07840F00300D0700029B7D1E6
S31508013F5007EB4C12C1B241F03001D170B0E70E4601
S31508013F600A7B42F001020A73D2B242F002020A73D4
S31508013F70CA68042161F39F02F26006F1100796E808
S31508013F800F0087E80F00F2696FF0030161F39F02E2
S31508013F90F2610C9B7361012CAAD10B9AB2610C9A3E
S31508013FA07260A5E7002DA6D10B4B03EB4C139A784B
S31508013FB06FF304129A709EE70948AEE70748ACE723
S31508013FC00648AAE70548A8E70448A6E70548A4E776
S31508013FD0B22900208414002004150020018000F075
S31508013FE0028000F0078000F0134B1B78FBB110B577
S31508013FF00446F0B11FF097FB0023072B13DC0F4A89
S3150801400002EB0312127B0AB10133F6E723600B4A6E
S31508014010190102EB031301241C73002454501FF0E9
S3150801402088FB204602E01FF084FB054810BD0548C1
S3150801403070470548FAE700BFB2290020841400201A
S31508014040048000F0028000F0018000F038B51FF00E
S315080140506AFB04460023072B06DC0C4A02EB031213
S31508014060127B12B90133F6E7002222B120461FF06E
S3150801407060FB074838BD01F027FF0025054B1D7079
S3150801408020461FF056FB2846F4E700BF841400209B
S31508014090058000F0B22900200F4B1B78BBB110B583
S315080140A00446072815D81FF03EFB0C4B03EB0413F7
S315080140B01B7B1BB91FF03DFB09480BE0074B03EBC4
S315080140C0041300241C731FF034FB204602E0054844
S315080140D07047054810BD00BFB2290020841400208E
S315080140E0068000F0028000F0018000F000B583B080
S315080140F0134B1B68019300238DF804301FF013FB43
S31508014100104B1B7833B90F4B01221A701FF011FBA4
S31508014110002309E01FF00DFB0B480EE00B4A02EBEA
S315080141200312002111730133072BF7DD08238DF8DC
S31508014130073001A801F0F4FE002003B05DF804FB86
S31508014140F0FB0308B2290020038000F08414002044
S3150801415008B50A4B1B785BB107280BD8084B03EB4C
S3150801416000131B7B43B1002101F0CCFE002008BDE2
S315080141700448FCE70448FAE70448F8E7B2290020AE
S3150801418084140020028000F0018000F0078000F00E
S3150801419008B50A4B1B785BB107280BD8084B03EB0C
S315080141A000131B7B43B1012101F0ACFE002008BDC1
S315080141B00448FCE70448FAE70448F8E7B22900206E
S315080141C084140020028000F0018000F0078000F0CE
S315080141D008B50A4B1B7853B107280AD8084B03EBD5
S315080141E000131B7B3BB101F017FF002008BD0548F2
S315080141F0FCE70548FAE70548F8E700BFB2290020B9
S3150801420084140020028000F0018000F0078000F08D
S315080142100F4B1B78A3B1072814D8A9B10D4B03EB93
S3150801422000131B7B93B10C4B1B6D012202FA00F0A4
S31508014230184002D00A700020704700230B7070479F
S31508014240064870470648704705487047054870474D
S31508014250B22900208414002000000450028000F0D6
S31508014260018000F0078000F00C4B1B7873B110B584
S315080142700C4607280CD869B1094B03EB00131B7BC5
S3150801428053B101F0DBFE2070002010BD05487047D0
S315080142900548FAE70448F8E70448F6E7B229002092
S315080142A084140020028000F0018000F0078000F0ED
S315080142B0F8B5194B1F6D5B6D1F4002D4012500240B
S315080142C002E0FEE701346D00072C24D83D42F9D0FF
S315080142D0124B1D652301124AD358002BF2D002EB6B
S315080142E00416B1680131B16072682046984780F0BA
S315080142F00100C0B2737B012BE4D10028E2D0094B3F
S3150801430003EB44131A7B6FF341021A731A7F6FF397
S3150801431041021A77D6E7F8BD000004500020045080
S31508014320841400200415002008B5034B1968034BB3
S31508014330186815F0F5FF08BD580C0020540C00202C
S31508014340B0F1FF3F01D010B97047024870470248E3
S31508014350704700BF21E000F024E000F038B50446BC
S315080143602AF0F6FBFFF7ECFF054650B9074B9B68A9
S315080143700A3303F01F030121994020461EF0B2FFBC
S3150801438008B1284638BD024DFBE700BF0080E00FA3
S315080143900EE000F0F8B505460E46940022462AF0CE
S315080143A0CFFBFFF7CDFF074628B9224631462846F7
S315080143B02AF035F908B93846F8BD014FFBE700BFC1
S315080143C010E000F010B582B0044601A801F02EFFF6
S315080143D0BDF8063023800122E2700020A070054B4B
S315080143E09B680A3303F01F0302FA03F3636002B002
S315080143F010BD00BF0080E00F08B51FF08DF9014B15
S31508014400186008BD441C002008B5024B18681FF047
S3150801441087F908BD441C0020024B4FF480321A6705
S31508014420704700BF0090005038B505460C460C4B46
S31508014430D3F8803003F00303012B08D0022B0AD0EE
S315080144400023184605B1286004B1236038BDFFF77B
S315080144509DFB0D23F6E7FFF793FB0623F2E700BF63
S315080144600080005038B505460C460F4BD3F820316D
S3150801447003F00303022B0ED0032B10D0012B06D019
S315080144800023184605B1286004B1236038BDFFF73B
S3150801449077FB0523F6E7FFF7A9FB0323F2E7FFF707
S315080144A0BDFB0223EEE700BF0080005070B582B065
S315080144B006460D46002301930D4BD3F8804104F0BF
S315080144C00304012C09D0022C0DD000240EB1019B46
S315080144D0336005B12C6002B070BD002101A8FFF759
S315080144E0C1FF0F24F2E7FFF799FB0190EEE700BF42
S315080144F00080005038B505460C46164BD3F82431D2
S3150801450003F00703013B052B20D8DFE803F0030F6F
S31508014510171B0B13FFF734FB052305B1286004B1FC
S31508014520236038BDFFF72CFB0623F6E7FFF75EFB92
S315080145300323F2E7FFF75AFB0423EEE7FFF76EFBC7
S315080145400223EAE71EF099FE0723E6E70023184649
S31508014550E3E700BF0080005038B505460C46104B0E
S31508014560D3F8000100F00300032815D8DFE800F0AE
S3150801457002080C10012305B1286004B1236038BD77
S31508014580FFF734FB0323F6E7FFF74CFB0823F2E7B3
S315080145901EF073FE0723EEE700231846EBE700BF7C
S315080145A00080005038B505460C460F4BD3F840310C
S315080145B003F00303022B0ED0032B10D0012B06D0D8
S315080145C00023184605B1286004B1236038BD1EF0E2
S315080145D056FE0923F6E7FFF725FB0823F2E71EF047
S315080145E051FE0B23EEE700BF0080005030B583B0C3
S315080145F005460C4600230193114BD3F8843203F088
S315080146000303022B11D0032B15D0012B07D000234E
S315080146100DB1019A2A6004B1236003B030BD0021AF
S3150801462001A8FFF71FFF0F23F2E7002101A8FFF7F3
S31508014630B9FF1023ECE7FFF7F1FA01900223E7E748
S315080146400080005038B505460C46124BD3F80032A7
S3150801465003F00703013B032B18D8DFE803F0020A2E
S315080146600E121EF00CFE092305B1286004B1236061
S3150801467038BDFFF7D7FA0823F6E71EF003FE0B232A
S31508014680F2E7FFF79DFA800A0E23EDE700231846A5
S31508014690EAE700BF0080005038B505460C460F4BC7
S315080146A0D3F8403203F00303022B0ED0032B10D0AC
S315080146B0012B06D00023184605B1286004B12360F2
S315080146C038BD1EF0DCFD0923F6E7FFF7ABFA082330
S315080146D0F2E71EF0D7FD0B23EEE700BF008000507E
S315080146E038B505460C460F4BD3F8603103F0030382
S315080146F0022B0ED0032B10D0012B06D0002318460F
S3150801470005B1286004B1236038BD1EF0B8FD092340
S31508014710F6E7FFF787FA0823F2E71EF0B3FD0B2346
S31508014720EEE700BF00800050B0F5207F20D00ED8FC
S31508014730B0F5007F16D020D810B1B0F5C07F04D1EE
S315080147400F4B186FC0F3033018E0002016E0B0F5E0
S31508014750607F05D10A4BD3F88000C0F301100DE044
S3150801476000200BE0064BD3F89000C0F3046005E087
S31508014770034B186FC0F3802000E00020013070471A
S315080147800080005038B505460C46174B4FF40032E9
S315080147909A660020FFF7C8FF05FB00F0134BDA699C
S315080147A002F4803241F67131D9635B6823F4401310
S315080147B06CB90F49884207D800210B430B494B6056
S315080147C00AB10022CA6338BD4FF48011F5E7002CFF
S315080147D007DD0749884201D80021EEE74FF4801129
S315080147E0EBE74FF44011E8E7009000500000035052
S315080147F0005A6202430907D0012B10D0022B01D0BF
S31508014800094A02E0094A00E0002200F01F0041B10E
S3150801481002F58052012303FA00F010607047044A3A
S31508014820F3E702F50052F5E7608200506880005010
S315080148306480005008B580201EF0B0FD034B9842F5
S3150801484003D8034B4FF480321A6708BD005A620237
S3150801485000A0005000B583B000230193B0F5607F36
S3150801486000F0958030D85C2824D82428C0F08180AF
S31508014870243838287DD8DFE800F0808080807C7C69
S31508014880787C41857C7C7C7C7C7C7C7C7C7C7C7C8F
S315080148907C7C7C5C547C7C7C7C7C7C7C7C7C7C7C91
S315080148A07C7C7C7C7C7C7C7C807C8F7C7C7C7C7C22
S315080148B07C7C5C00802841D0B0F5807F59D101A964
S315080148C000201EF046FD54E0B0F5D06F5AD00BD942
S315080148D0B0F5006F1DD021D9B0F5086F49D101A9EE
S315080148E00020FFF739FE44E0B0F5A06F54D00AD98D
S315080148F0B0F5B06F39D0B0F5C06F3AD101A9002033
S31508014900FFF750FE35E0B0F5806F36D0B0F5906F01
S315080149102FD101A90020FFF7EDFD2AE0B0F5E06FE0
S3150801492004D101A90020FFF7B7FE22E0B0F5F06F28
S315080149301FD101A90020FFF7D3FE1AE0194B1B6FFF
S3150801494003F00703013B032B13D8DFE803F00B023F
S315080149500508052301930CE00323019309E00723C6
S31508014960019306E00223019303E001A90020FFF762
S315080149709DFD019803B05DF804FB01A90020FFF72E
S3150801498071FDF6E701A90020FFF75CFEF1E701A931
S315080149900020FFF749FDECE701A90020FFF726FEF5
S315080149A0E7E700BF00800050044B4FF400225A6627
S315080149B003F5804301229A62704700BF00900050B8
S315080149C008B5FFF747FF082810D012D30938012880
S315080149D012D80C4B4FF400125A6603F5D8335B6AAA
S315080149E013F0010F0BD04FF4FA7001E0064B18884B
S315080149F008BD4FF6FF70FBE74FF6FF70F8E74FF675
S31508014A00FF70F5E700900050C80D002010B5044668
S31508014A108020FFF71FFF032800F09D804E4B4FF4BF
S31508014A2000225A6603F5405345F60E02C3F8802064
S31508014A3003F580520221916203F5005301229A621D
S31508014A40464B9B6D13F4803FFAD1226863681B05B8
S31508014A5043EA0263227B43EA0243627B43EA023367
S31508014A60A27B43EA8213E27B13433C4A13619369AF
S31508014A7003F00043216943EA8163616943EA0163FB
S31508014A80217E43EA0143617E43EA0123A17E0B436A
S31508014A909361136A23F00D03E269002A42D1114694
S31508014AA00B43E17E43EA810313432C4A1362E3690C
S31508014AB0002B39D1936A23F0330394F8201043EA83
S31508014AC0411394F8211043EA011343F00103936259
S31508014AD0224B9A6D224B9343FAD1204B03F5805111
S31508014AE002228A621A651D4B9B6D13F0804FFAD11B
S31508014AF01A4B1A6922F47002A16842EA01521A6134
S31508014B0003F580534FF000429A6194F8223013B9A5
S31508014B10144B02229A6294F82330ABB9114B012245
S31508014B209A6211E00821BBE70C4A936A23F0330322
S31508014B3094F8201043EA411394F8221043EA4103FA
S31508014B4094F823100B43936294F824301BB1034B5A
S31508014B50054AC3F8802010BD0090005000C00050DF
S31508014B600300014000E00050F1A7FFFF014B93F954
S31508014B7000007047B329002070B50446214B9D6A91
S31508014B809B6D13F4803F02D01F4B01229A621E4B84
S31508014B9002229A621A651B4B9B6D13F0804FFAD15C
S31508014BA0FFF7E4FF001903D4FF2802DDFF2000E028
S31508014BB00020144EB36923F47F0323F47F4343EAA9
S31508014BC000432402A4B22343B3611EF0A5FDB26AD1
S31508014BD085EA020303F002035340B3621EF0A0FD07
S31508014BE0B36D13F4803F00D170BD1EF095FDB16A17
S31508014BF085EA010303F001034B40B3621EF090FD01
S31508014C00F2E700BF00C0005000D0005010B443784E
S31508014C104F2B28BF4F231A461C4B4FF48001596668
S31508014C2003F5B8334FF4D151596203F58051022483
S31508014C304C6003F5005301215960154B1B6913F4A8
S31508014C40803FFAD1037842EA0323114A5361416846
S31508014C5083681B0143EA0123017B43EA4103417B44
S31508014C600B439360817BC37B1B0143EA4113017CA0
S31508014C7043EA4103417C0B435360837C1BB11346D2
S31508014C806FF4D1525A625DF8044B70470090005098
S31508014C9000000250014B1880704700BFC80D002064
S31508014CA0B0F5207F5DD02DD8B0F5007F4ED061D804
S31508014CB010B1B0F5C07F24D110B54C1E1EF067FBAC
S31508014CC01EF017FDFFF7A8FB2B4B196F21F4704156
S31508014CD041EA04311967FEF773FF284BD3F884308C
S31508014CE013F0100FF9D1254BD3F88410C1F38111B4
S31508014CF0C1F102011EF0F2FC00F044F8FFF79AFD3B
S31508014D0010BD7047B0F5607F1FD11D4BD3F8FC204D
S31508014D1012F0807206D01846D3F8FC3023F080735F
S31508014D20C0F8FC3001391448D0F8803023F030033C
S31508014D3043EA0111C0F88010E2B1114AD2F8FC30F9
S31508014D4043F08073C2F8FC307047704701390A4A4C
S31508014D50D2F8903023F0F85343EA0161C2F8901073
S31508014D6070470139044A136F23F4806343EA8121AA
S31508014D7011677047704700BF00800050004000501F
S31508014D8000ED00E008B54FF4C0701EF007FB054BB7
S31508014D90984205D902214FF42070FFF781FF08BD1B
S31508014DA00121F8E780F0FA0208B5FEF709FF0C4B76
S31508014DB0D3F8843013F0100FF9D1094BD3F88410C6
S31508014DC0C1F38111C1F102011EF088FC0121002005
S31508014DD000F0C6FAFFF7D6FFFFF72CFD08BD00BFA6
S31508014DE00040005070B50C46B0F5607F00F0E481D4
S31508014DF05AD85C2841D82428C0F0CA8124383828D2
S31508014E0000F2C681DFE810F03601360136013601B7
S31508014E10C401C4012601C4017D00AA01C401C4015B
S31508014E20C401C401C401C401C401C401C401C4014B
S31508014E30C401C401C401C401C401BE00A700C40160
S31508014E40C401C401C401C401C401C401C401C4012B
S31508014E50C401C401C401C401C401C401C401C4011B
S31508014E60C401C4013601C4010002C401C401C4015C
S31508014E70C401C401C401C401BE00802800F09580A4
S31508014E80B0F5807F40F08481A1F10804082C00F276
S31508014E907F81DFE814F0050105017D0105011F0188
S31508014EA07D017D017D010501B0F5D06F00F05681C8
S31508014EB01AD9B0F5006F3FD04AD9B0F5086F40F05E
S31508014EC06781072900F07481082900F07381032995
S31508014ED000F05F810021B04AD2F8003123F00303C4
S31508014EE00B43C2F8003153E1B0F5A06F00F08C8195
S31508014EF01AD9B0F5B06F00F0AD80B0F5C06F40F0CB
S31508014F0047810A2C00F20081092C80F00181082CC6
S31508014F1040F000810222A049D1F8403123F0030371
S31508014F201343C1F8403133E1B0F5806F00F0A28038
S31508014F30B0F5906F40F02C81023C052C00F2F88008
S31508014F40DFE814F0FA00F80000010201FE00FC0097
S31508014F50B0F5E06F12D10A2C00F26C81092C80F0B1
S31508014F606D81082C40F06C8102228B49D1F84032C0
S31508014F7023F003031343C1F8403209E1B0F5F06F9A
S31508014F8040F006810A2C00F2C980092C80F0CA80FB
S31508014F90082C40F0C98002227F49D1F8603123F0FC
S31508014FA003031343C1F86031F2E08B1E052B04D8C5
S31508014FB0DFE803F04A38034D034700252E46012151
S31508014FC0022000F087F91EF0E2F91EF092FBFFF7C6
S31508014FD023FA714A136F23F0070333431367FEF766
S31508014FE0EFFD6E4BD3F8843013F0100FF9D16B4BEC
S31508014FF0D3F88410C1F38111C1F102011EF06EFBD1
S315080150000121002000F0ACF9FFF7BCFEFFF712FC06
S31508015010002D40F0BD80032C40F0BA80604B012280
S315080150209A62B5E05F4B4FF400225A6603F5405386
S315080150309D6AC5F3400503F5805301229A620E461F
S31508015040BDE700250426BAE700250126B7E70025AE
S315080150500226B4E7022C02D00F2C09D101244E4BAB
S31508015060D3F8801121F003010C43C3F880418FE086
S315080150700024F4E7032C0FD0052C0FD0022C09D0FD
S315080150800021454AD2F8203123F003030B43C2F825
S3150801509020317DE00321F4E70221F2E70121F0E75F
S315080150A03D4B596E03F580534FF480325A663E4A9A
S315080150B0136A43F00103136211F4803F03D13B4B9A
S315080150C04FF480325A664FF0E022136923F0040345
S315080150D013615DE0304B596E03F580534FF480320E
S315080150E05A66314A136A23F00103136211F4803FA9
S315080150F003D12E4B4FF480325A664FF0E0221369E2
S3150801510043F00403136143E00B2C05D1032202E7A4
S31508015110012200E70022FEE60022FCE60B2C05D15F
S31508015120032239E7012237E7002235E7002233E770
S3150801513000210AE0022108E0032106E0042104E037
S31508015140052102E0062100E00121134AD2F82431A3
S3150801515023F007030B43C2F8243119E0083C062C57
S3150801516005D8DFE804F0060C0C0804040A0000213F
S3150801517006E0022104E0032102E0042100E0012106
S31508015180054AD2F8003223F007030B43C2F800326E
S3150801519070BD01219FE600BF00800050004000500D
S315080151A000E000500090005000C0075000A00050D9
S315080151B0032190E602218EE6234BD3F8FC2012F058
S315080151C0807206D01946D3F8FC3023F08073C1F8F3
S315080151D0FC30062C14D00D2C14D101201B49D1F812
S315080151E0803023F003030343C1F88030002ACFD06F
S315080151F0154AD2F8FC3043F08073C2F8FC30C7E791
S315080152000220EBE70020E9E70F2C0FD0102C0FD076
S31508015210022C09D000210D4AD2F8843223F0030367
S315080152200B43C2F88432B3E70321F4E70121F2E71D
S315080152300221F0E70B2C05D1032296E6012294E61A
S31508015240002292E6002290E600ED00E00080005080
S31508015250044A536F23F44073417843EA01235367A1
S31508015260704700BF0040005010B50446094A13694B
S3150801527043F00403136104F083F91EF05DFA30BFAD
S315080152801EF05BFA04F092F904B110BDFEF798FC22
S31508015290FBE700BF00ED00E010B50446074A1369B5
S315080152A043F00403136104F06BF930BF04F07EF98F
S315080152B004B110BDFEF784FCFBE700BF00ED00E07A
S315080152C0034AD36E23F0300301790B43D366704743
S315080152D000400050F8B50446204BD3F8843013F04B
S315080152E0100FF9D11D4BD3F88430C3F381139C42B7
S315080152F02DD0FEF74BFC0646012C11D01EF00CFAF8
S315080153000546164F07F500534FF000725A662046B8
S315080153101EF016FA621E4FF4806393403B6706E05F
S3150801532001211EF0DBF9E9E70C4BD3F884300B4B6E
S315080153305B6E13F0007F05D1084BD3F8843013F068
S31508015340200FF1D028461EF0EBF9022C00D0F8BD4B
S31508015350002130461EF0C2F9F9E700BF00400050AF
S3150801536010B50C46034650B1094A127812B1094ADA
S31508015370934208D921460220FFF7ACFF10BDFEF77C
S3150801538005FC0346F0E721460120FFF7A3FFF5E7F1
S31508015390F81C0020005A620208B50278034B1A70FD
S315080153A001210020FFF7DCFF08BD00BFF81C002023
S315080153B008B51E4B4FF000425A6603F50B23D3F886
S315080153C0942002F001024AF6CD31C3F8901090B943
S315080153D0174B1B6C13F0010FFAD1154B5B6813F0D1
S315080153E0010F1BD0134B01215960114BDB6B13F0D5
S315080153F0010FFAD012E00E4BDB6B13F0080FFAD14E
S315080154000B4B03F500512020486303F58053012116
S315080154105960074B5B6B13F0200FFAD01AB1044B96
S31508015420054AC3F8902028F0C6FC08BD0090005034
S3150801543000400950006009503254FFFF10B51B4B5C
S315080154404FF000425A6603F50B23D3F8944004F053
S3150801545001044AF6CD32C3F8902043785B0043F045
S315080154600103134AD363134B1B6C13F0010FFAD1D3
S31508015470104A536823F07003817843EA0113536095
S31508015480C178437943EA0123D3600179837943EAF1
S31508015490012313610078FFF78BFF1CB1054B064A00
S315080154A0C3F8902028F087FC012010BD0090005019
S315080154B000400050004009503254FFFF034B984208
S315080154C001D0002070475420704700BF0000045ADD
S315080154D0436813F0010F19D0836813F0010F03D045
S315080154E0036913F0010F09D00A238363436D13F08F
S315080154F0500FFBD1836C13F0030FFBD100F500535A
S3150801550001225A60436813F0020FFBD1202303617D
S315080155100023C360836041F20202426183614FF452
S31508015520A0224262C36103628362C3624363036565
S3150801553000F500520149D16403637047FF3F0D032B
S3150801554038B5044615460846E1B1A36813F0010FBC
S315080155504ED06268B0FBF5F0013812F001023BD07B
S31508015560636D13F0280FFBD1A36C13F0030F0FD152
S31508015570A36C13F0010F2BD1A36C13F0020F29D1E1
S31508015580002106E02046FFF799FF1DF007FFDCE73B
S315080155900521636813F0010F1FD0A36813F0010FEB
S315080155A003D0236913F0010F09D00A23A363636D9E
S315080155B013F0500FFBD1A36C13F0030FFBD104F5C5
S315080155C0005301255D60636813F0020FFBD104E007
S315080155D00921DEE70621DCE70021236923F07F4361
S315080155E043EA006020610AB320461EF0AAF81DE0CE
S315080155F06368A36803F0E003402B1DD017D9602B1D
S315080156001ED0802B12D10123400105FB03F3B0FB09
S31508015610F3F020380B4B03EAC000636D13F0010F5A
S31508015620FBD12063636D13F0010FFBD138BD2BB19C
S31508015630202BFBD10823E7E70623E5E71023E3E759
S315080156400423E1E7F8FF7F0070B504460D460E69AD
S31508015650436823B1636DC3F30B03002BFAD12046CC
S31508015660FFF736FF236923F087036A7B1343AA7B77
S31508015670134343F0800323611EB3236923F0F80320
S315080156802A69117F43EAC113117943EA4113517A11
S3150801569043EA011311780B43D27B43EA8213236150
S315080156A0E36823F0F04323F470232A6951690B4315
S315080156B091690B43117B43EA8123527B43EAC23347
S315080156C0E360A36823F00303EA7B134343F0010372
S315080156D0A3603EB3A3682A69528802F4C042134301
S315080156E0A360A3682A69527943EA8223A360636A9D
S315080156F023F4772323F4EE6329698A79120102F0E8
S3150801570070021343CA79120202F4E06213430A7A59
S31508015710120302F4E04213434A7F120402F4702290
S3150801572013436362636923F00F032A7B134363619F
S3150801573076B12B695B89A3612B695A7B12B1174A2A
S3150801574094421ED02B69DA7B12B1144A94421ED0B8
S31508015750AA6869682046FFF7F3FE052120461DF071
S31508015760F0FF636D13F0280FFBD12B78A363636DEC
S3150801577013F0280FFBD1A36CDB4313F4405FFAD176
S3150801578070BD9B7B03F00F03054A5366DAE71B7C62
S3150801579003F00F03024A1366DAE700BF0000045A52
S315080157A0009003502DE9F84F04460E461F469046D1
S315080157B03AB183B301228A4000EB400109012C4B1F
S315080157C05A50072E2FD804EB44094FEA091909F153
S315080157D00409DFF8A4A0B3000F2505FA03FB08FAAC
S315080157E003F51DF099FF59F80A305D4005EA0B05E6
S315080157F05D4049F80A501DF093FFB8F1000F08D132
S315080158006FB3012101FA06F604EB44042401184B8F
S315080158101E51BDE8F88F01228A4000EB40010901BB
S31508015820144B5A50CDE704EB44052D010C35DFF82E
S315080158304890A6F108039B000F2202FA03FA08FA18
S3150801584003FB1DF069FF55F809308BEA030202EAEA
S315080158500A025A4045F809201DF062FFCDE70121E9
S3150801586001FA06F604EB44042401024B1E51D0E763
S3150801587040D0035040E0035030C00350F8B5054608
S315080158800E4614461DF0AEFF337803F0070372780F
S31508015890EAB108221343B278120102F03002134327
S315080158A0F278B2B14FF480721343C5F88030EB6ACF
S315080158B023F01703327902F00702134372791201B2
S315080158C002F010021343EB624FF0000C0BE00022CA
S315080158D0E0E70022E8E7002213430CF1280245F825
S315080158E022300CF1010C194B9D4214D00027BC45FE
S315080158F013D20CEB8C03E118E35C4A7843EA0223E2
S315080159008A78120402F480321343CA78002AE2D054
S315080159104FF40032E0E71027E9E728461DF06BFF50
S3150801592000210B4600E00133BB4209D203EB830297
S3150801593022441279002AF6D001229A401143F2E74D
S31508015940A961B3790BB10823EB60F8BD0040005A91
S3150801595038B504461DF04FFF2F4BE36062692F4BA4
S315080159601340002BFAD1A361C4F89830636913F484
S31508015970401FFBD100E0636F636913F4807FFAD19E
S31508015980A36F002BF7D101E0D4F88430636913F4CF
S31508015990007FF9D1D4F88850002DF5D1E36FD4F8FA
S315080159A08C3020461DF01EFF0023A3602361E362AD
S315080159B0236230232367C4F880302B460DE004EBBD
S315080159C0031242F2600191645A1D110104EB02129D
S315080159D013486050002151600133124A944204D0A1
S315080159E02A469342EBD32B460AE00222F9E7102214
S315080159F093420AD203F12802002144F82210013306
S31508015A00084A9442F3D02A46F2E704F50054064BB5
S31508015A106362A36238BD00BF120002005200010092
S31508015A2000C002800040005A8F330F8008B50B462C
S31508015A3069B103F5742303F23F230E48A0FB033033
S31508015A40800C01387F2828BF7F20C0B208BD2A20D4
S31508015A501DF0A4FC034650B1074A9042E9D9074A0A
S31508015A609268C2F302720132B0FBF2F3E1E7012355
S31508015A70DFE700BF83DE1B43005A62020040005A7B
S31508015A8010B50B4C8C4228BF0C4610465AB120441F
S31508015A90431EB3FBF4F0A34200D30138032800D90F
S31508015AA00320C0B210BD2A201DF078FCEFE700BF25
S31508015AB0005A620210B5BBB90F4C8C4200D30C4692
S31508015AC0A2B19DF808000130B2FBF0F22244013A76
S31508015AD0B2FBF4F0A24200D3013840F2FF339842F8
S31508015AE028BF184680B210BD044CE6E72A201DF0EF
S31508015AF055FC0246E5E700BF80969800404B4C00EE
S31508015B002DE9F04F2DED028B83B005460C4617465D
S31508015B100022C949FFF7B4FF94F80590814500D2E0
S31508015B20814628461DF05EFE207910B3E3781B01F5
S31508015B3003F03003000400F4FE0003434FEA097240
S31508015B4002F0E042134322780AB143F00203627875
S31508015B500AB143F00403A2780AB143F00803AB6023
S31508015B60E3882B612289638943EA02432B62002475
S31508015B70DEE02A201DF012FC0146AF4B984201D304
S31508015B80B0FBF9F12846FFF751FFCFE7AB49E3E050
S31508015B90AB4BD3F88031B8F1000F40F0C28005EB6A
S31508015BA004139B6CC3F302335A1E012A24D9032B0F
S31508015BB000F01881042B00F02281A14BD3F884212F
S31508015BC04FEA124AD3F88C311B1403EB430307EE51
S31508015BD0903AF8EEE77A16E0994BD3F88031DAE78E
S31508015BE0974BD3F88431D6E7954BD3F88431D2E76E
S31508015BF0934BD3F88031CEE7914BD3F880311FFA16
S31508015C0083FADFED907A2AF4C0484FEA88481AF4F5
S31508015C10004F40F0028105EB04139B6CC3F3820B22
S31508015C200BF101034FF0010B0BFA03FBBBF1020F5A
S31508015C3000F0F680824AD2F890311BB208EE103A8B
S31508015C40B8EEC88A78EE677A07EE10BAB8EEC77A60
S31508015C50F6EE006A27EE267AC7EE876AD2F8883109
S31508015C601BB208EE103AB8EEC88A38EE268A04EB5B
S31508015C70840307EB8303D878002800F0F58004EB4A
S31508015C80840307EB8303D3ED037AF8EE677ADFED36
S31508015C90756A87EEA67AF7EE046AC6EE877A67EE24
S31508015CA0887AB1EE008A67EE887A07EE10BAB8EEFE
S31508015CB0C77A9FED656AC6EE076A9FED647A26EE96
S31508015CC0877A77EE877AB8F1004F0FD007EE10AAD8
S31508015CD0B8EEC77ADFED5E6A27EE267ADFED5D6AF2
S31508015CE077EEA67A67EE277A77EEE67AF5EEC07A48
S31508015CF0F1EE10FA40F3C980F1EE677AB6EE007A52
S31508015D0077EEC77AFDEEE77A17EE903AB3F5003FDC
S31508015D10C0F2C4806FEA58436FEA4343621D120119
S31508015D20AB50C6F30906631D05EB03135E60013428
S31508015D30494B9D4200F0BD8000239C4280F0BB8008
S31508015D4004EB840307EB830217F823809668B8F1FE
S31508015D50000F7FF41BAF4149CDF80090434600225E
S31508015D602846FFF7A7FEB6B2864238BF064605EBB8
S31508015D700412936C3A49194008F003030B4304EBE8
S31508015D80840107EB81014878800000F01C00034379
S31508015D908878000300F4E0400343C878000400F45F
S31508015DA0E0200343087C400500F4600003430979B9
S31508015DB0090701F040510B439364936CC3F3023313
S31508015DC0013B042B3FF614AF01A252F823F000BFA2
S31508015DD0915B0108915B0108D95B0108E15B010848
S31508015DE0E95B0108164BD3F880214FEA124AD3F82A
S31508015DF08C311B1408EE103AF8EEC87A03E7104BFB
S31508015E00D3F884211FFA82FAD3F88C311B145B006C
S31508015E1008EE103AF8EEC87AF5E648F00048FAE6D0
S31508015E20074BD3F88C311BB208EE103AB8EEC88A84
S31508015E3038EE278A1BE700BF005A6202404B4C0026
S31508015E400080E00F000000000000804300002044AD
S31508015E5000000038000000490040005A809698006A
S31508015E60E08F18CF00007A441DF0EEFC07EE900A89
S31508015E70F8EE677A5FED056A87EEA67AF7EE046AA9
S31508015E80C6EE877A68EE277A0BE7B6EE007A77EEE2
S31508015E90677AFDEEE77A17EE903A37E713F5003F92
S31508015EA002DA48F4003339E7C3F3110343EA080376
S31508015EB034E7022341E728461DF09DFC03B0BDECFB
S31508015EC0028BBDE8F08F00BF10B50C4B4FF0806216
S31508015ED0C3F88020BFF34F8FBFF36F8F084B0024A1
S31508015EE05C65FF229A625C6021462020FEF782FCEF
S31508015EF021462120FEF77EFC10BD00BF00E100E02F
S31508015F000000045029B9044A012303FA00F010607D
S31508015F107047024AF8E700BF401004504020045079
S31508015F2010B5044601212020FEF764FC0121212039
S31508015F30FEF760FC114B01225A60227812069A601C
S31508015F406178A27842EA01429A61FF229A620022A6
S31508015F509A631A644FF000425A6503F500534FF0ED
S31508015F60FF321A65064A4FF08061C2F88011E3785C
S31508015F701B01DBB282F81A33116010BD0000045010
S31508015F8000E100E070B50C46C3B201259D40214EE3
S31508015F9006F500531D650968830003F1A04303F55F
S31508015FA088235960637B00EB400106EB01110B6600
S31508015FB094F80AC0E37A1B0543EA0C4394F80CC02B
S31508015FC043EA4C53CB6522F003020A671DF0ABFB8B
S31508015FD0736D2B437365237A13B1336C2B43336487
S31508015FE0637A1BB10B4A936B2B4393632379A2798B
S31508015FF042EA0342074B03F500518A616679E27961
S3150801600042EA064203F58054A2614D639D641DF080
S3150801601090FB70BD0000045010B5C0B20124844045
S315080160201DF081FB044B5A6D22EA04025A659C62F3
S315080160301DF07FFB10BD00BF0000045010B5C0B2B3
S31508016040012484401DF06FFB084BDB6A234206D10D
S31508016050064B5B6B34EA030306D0002400E00024F8
S315080160601DF067FB204610BD0124F9E70000045026
S31508016070064B4FF400329A6603F51C3341F671322A
S31508016080DA6303F500530122DA6070470090005085
S31508016090074B41F67132DA6303F500520121D160EB
S315080160A00022DA63A3F518334FF400329A66704773
S315080160B00000035070B50446C2F3062602F0070233
S315080160C041B942EA062242F440220634094B43F812
S315080160D0242070BD114630461DF0FCFB05463046AE
S315080160E01DF0CEFB45EA00251234024B43F8245035
S315080160F0EFE700BF008003500B784A7843EA820332
S31508016100CA7843EA42130A7943EA021300EB4002CA
S31508016110920002F1B04213630B78012B00D070474D
S315080161208A78024B43F82020F9E700BFEC80035038
S315080161304FF0B0435B680BB9002837D04FF0B04336
S315080161405B6843B14FF0B0435B6823B14FF0B0438E
S315080161509B6A002BF6D180B1154B01225A604FF08C
S31508016160B0435B6823B14FF0B0439B6A002BF6D16D
S315080161704FF0B0430122DA6070474FF0B0435B68D5
S3150801618023B14FF0B0439B6A002BF6D14FF0B043D1
S315080161900222DA604FF0B0435B6823B14FF0B04397
S315080161A09B6A002BF6D1034B01225A60704700BF48
S315080161B000100058002000584FF0B0435B6843B107
S315080161C04FF0B0435B6823B14FF0B0439B6A002B95
S315080161D0F6D1154B01225A604378E3B1134682780A
S315080161E0DAB102221343C278CAB1042213430279EF
S315080161F043EA0213427943EAC2034FF0B04293607D
S3150801620002F5805201235360037853B101224FF0FE
S31508016210B043DA6070470023E1E70022E2E7002293
S31508016220E4E70222F3E700BF00200058094B4FF4C8
S3150801623080325A6603F5E6235B69C3F3461203F017
S315080162400F010A434280C3F303424270C3F3033387
S3150801625003707047009000500A4B984207D00A4BCA
S31508016260984209D0C36D43F08003C3657047A3F50F
S315080162701033C3F89011F5E7A3F52033C3F8AC1131
S31508016280F0E700BF00C005500000065070B505468E
S3150801629016461C460846D1B1402C21D01CD80CB351
S315080162A0202C13D1082106FB01F14B0803EB4013FF
S315080162B0B3FBF1F3203B0C4A02EAC303AA6822F0B6
S315080162C06002AA60AA681443AC60EB6170BD4FF422
S315080162D020701DF063F8DFE7602CF7D10421E2E7AF
S315080162E00621E0E71021DEE7F8FF7F0000F580537D
S315080162F001225A6040F6AA63436100238360C3659D
S3150801630041F20502C2600361C361C36400F500522C
S315080163100C49916483650C4B984203D003F580437D
S31508016320984201D100230365074B984203D003F530
S315080163308043984201D10023436500F500500123AB
S3150801634043607047FFFF010000C0055038B5054698
S315080163500C46FFF7CBFF05F5805301225A60A37C53
S315080163601BB1AB6843F08043AB60E37C002B42D1A1
S31508016370637B228A1343E2891343EB60237BA2687A
S3150801638061682846FFF782FF637D1BB1AB6843F45A
S315080163908033AB60A37D1BB1AB6843F40043AB60AC
S315080163A0E37D1B0703F0E043227E120502F4E002B7
S315080163B01343AB65637E023BDBB2012B20D9214B2C
S315080163C09D4236D003F580439D4230D04FF0FF33CE
S315080163D05B0103F1A04303F5703342F234620221F3
S315080163E09950637E012B26D0032B24D005F5005343
S315080163F00422DA6523E0217D2846FFF72DFFB7E75A
S31508016400104B9D4211D003F580439D420BD04FF0AE
S31508016410FF335B0103F1A04303F5703341F23462A4
S3150801642002219950DDE70123F3E70023F1E7012370
S31508016430CEE70023CCE705F580530422DA652378F5
S315080164406B6138BD00C0055038B5044627F0D9FC44
S31508016450054DA446BCE80F000FC59CE8030085E876
S315080164600300002038BD00BFFC1C002047F6FF735F
S315080164709A427BD001297BD870B53F4B03EBC1000B
S3150801648090F802E0704613F83130012B24D03A4BCC
S3150801649003EBC1035C68002C6CD0B4F9003093425D
S315080164A004DBB4F90230934200DC1346A288FF2AC2
S315080164B02FD000252826C8229C46D21A92FBF6F22E
S315080164C02A4412B22C4B03EBC1014D78954201DDEA
S315080164D0002A34DA6A1E32E0274B03EBC103DB7864
S315080164E0A3EB0E0300249C4210D2A3EB040CA3EBEE
S315080164F05C0C214800EBC100406830F91C00904251
S3150801650001DC6446EFE70CF1FF33ECE77344D8B2DC
S315080165102BE0B4F90620B4F908600125CCE703F5A8
S31508016520FA731649A1FB03139B09013212B21646E7
S3150801653095420FDD04EBC201898899420AD304EB1F
S31508016540C2018B68B1F9061001FB0C33002BE6DAA0
S315080165500023E4E7721E04EBC20292889A4200D332
S315080165601A46724500D31046C0B270BDFF20704767
S31508016570002070470020F8E7FC1C0020D34D62106C
S3150801658001296CD8384B13F83130012B2CD010B5B2
S31508016590354B03EBC1035C68002C62D004F1040C93
S315080165A0314B03EBC1039B78934235D22E4B03EB58
S315080165B0C103DB78934232D92B4B03EBC10191F826
S315080165C001E00EF1FF3E5FFA8EFEA388FF2B29D06C
S315080165D00023734528D2591C3CF8310091B28842F0
S315080165E022D30133DBB2F4E71F4B03EBC103DB789C
S315080165F0934200D21A461C4800EBC1008078121A51
S31508016600D2B21B1A9A4200DD0022174B03EBC101D5
S315080166104B6833F912007047B4F9020010BDB4F99A
S315080166200000FBE70123D4E74FF47A7101FB02F27C
S315080166300CEBC30CDCF80430D31ABCF9022002EBCC
S31508016640D27103EB610393FBF2F3B4F900009842AC
S31508016650E4DBB4F902009842E0DC18B2DEE703484D
S3150801666070470248DAE700BFFC1C00200080FFFFE4
S3150801667008B50348FFF7E8FE012027F0C6FB08BD69
S3150801668018FC030800487047780C002000B587B04D
S3150801669000230193029303930493059302238DF830
S315080166A00430084A02928DF80D308DF81330012313
S315080166B08DF8143001A94FF0FF3027F0DCFB07B045
S315080166C05DF804FB006A1800014B01229A607047C5
S315080166D00020025C014BD868704700BF0020025CAD
S315080166E082B06B4683E80300034A93E8030082E815
S315080166F0030002B0704700BF141D0020120402F403
S315080167007022090201F470610A4300F00F00024386
S315080167101B0603F070631A43014B1A60704700BFEA
S315080167200020025C2DE9F0418AB0044615461F4651
S315080167300E4631B101F1FF38B8F5806F02D3012059
S315080167404DE088461DF0E7F80028FBD144F00043E8
S31508016750294901EA08210B43222C05D0302C03D004
S31508016760332C01D02D2C01D143F040732A0702F0B6
S3150801677080521A431743214A5760222C07D0302CDE
S3150801678005D0332C03D02D2C01D0002027E01C4A3C
S3150801679002AB92E8030083E80300079302230893F8
S315080167A00023099304AB0AAA12E9070083E8070044
S315080167B01448446804AB0ECB0068A047022102A81E
S315080167C01DF001FC0028F3D065B1F31C0F220092DD
S315080167D023F0030304AA07CA1DF0AFF800200AB084
S315080167E0BDE8F081F31C0F22009223F0030304AAEB
S315080167F007CA1DF053F9F1E700FF03000020025C08
S315080168009CFC0308141D0020014B1868704700BF43
S315080168100040025C014B5868704700BF0010025CDB
S31508016820014B186B704700BF0010025C014B1868DA
S31508016830704700BF0010025C014B9860704700BFAB
S315080168400010025C014B1864704700BF0010025C1F
S31508016850014B5864704700BF0010025C014B586336
S31508016860704700BF0010025C014B00221A60704796
S315080168700010025C08B5FFF7D9FF40F00100014B93
S31508016880186008BD0010025C024B43F204021A604C
S31508016890704700BF0010025C08B5FFF7C7FF40F05C
S315080168A03000014B186008BD0010025C10B5FFF7F7
S315080168B0BDFF40F48070044C2060FFF7B7FF20F459
S315080168C08070206010BD00BF0010025C08B5FFF79C
S315080168D0ADFF40F48060014B186008BD0010025CF2
S315080168E010B50446FFF7A2FF20F4702343EA0444D7
S315080168F0014B1C6010BD00BF0010025C044B1A69F5
S3150801690002605A6942609A698260DB69C3607047AE
S315080169100010025C0268044B1A6142685A61826877
S315080169209A61C268DA6170470010025C10B50446C4
S31508016930FFF776FF10F0010FFAD1014B1C6210BD6B
S315080169400010025C044BD86B20F47F4020F0EF0066
S3150801695000B970470420FCE70000025C10B400236C
S315080169600BB1002311E05C019A0002F1B84202F56D
S31508016970003220FA04F414600133F1E75A0121FACE
S3150801698002F2064840F823200133002BF6D0044BC7
S3150801699003225A635DF8044B704700BF1000025C7E
S315080169A00000025C82B010B485B004AC04E90700AB
S315080169B007930A460A9B994228BF1A46039B13F076
S315080169C0805F02D0033222F0030222F07042079C54
S315080169D00023D3B1099B03F0E043134343F000536B
S315080169E013498B600023CB600198CBB1039B03F05D
S315080169F0E0431A4342F000520D4B9A6100225A6352
S31508016A0005B05DF8044B02B070475801990001F1D1
S31508016A10B84101F5003124FA00F008600133D8E7DE
S31508016A20590120FA01F1034C44F823100133DCE73C
S31508016A300000025C1000025C034B3F221A6310221D
S31508016A40DA6103229A6370470000025C024BDB6B32
S31508016A5013F0020FFAD170470000025C034B986AE3
S31508016A6010F0240000D170470420FCE70000025C06
S31508016A7010B5FFF7F3FF0446FFF764FF54EA000376
S31508016A8003D0024B0122C3F8FC2F10BD00F0FF3FD3
S31508016A904368182B14D0202B1DD0102B01D00720AA
S31508016AA070471D4BD3F8043413F0807F2ED003684A
S31508016AB01A4A93421AD01A4A93421FD000207047A5
S31508016AC0154BD3F8043413F0007F21D00B6843F03B
S31508016AD008030B60EBE7104BD3F8043413F0806F0F
S31508016AE018D00B6843F004030B60E0E70B6843F02A
S31508016AF040030B6000234360184670470B6843F058
S31508016B0080030B60002343601846704701207047D5
S31508016B1001207047012070470000025CB42900205B
S31508016B20B5290020094BD3F8043413F0010F01D11C
S31508016B300120704700B583B000920B46024600213A
S31508016B40084600F043F803B05DF804FB0000025C58
S31508016B5008B5074BD3F8043413F4807F01D101201B
S31508016B6008BD13460A460146002000F05FF8F7E71C
S31508016B700000025C10B582B0084CD4F8044414F441
S31508016B80807F02D1012002B010BD009313460A4648
S31508016B900146002000F06CF8F5E700BF0000025C32
S31508016BA010B582B0084CD4F8044414F4807F02D19D
S31508016BB0012002B010BD009313460A460146002083
S31508016BC000F080F8F5E700BF0000025C70B58CB0F4
S31508016BD01C46109D5B6813F00F0F1FD1864694461D
S31508016BE0F3B16A68934202D007200CB070BD0D4B11
S31508016BF053F821600C4A09AB07CA83E807000793D3
S31508016C0006930593049303930295019400936246B0
S31508016C1046F4807170461DF007F8E6E70720E4E7B9
S31508016C200720E2E7B4FC0308A8FC030830B58DB0D9
S31508016C301C465B68102B02D007200DB030BD844678
S31508016C408E461546094A09AB07CA83E80700079322
S31508016C500694059304930393029301950093724650
S31508016C604FF4803160461CF0DFFFE6E7A8FC030815
S31508016C7070B58CB01C46109E5B68102B1AD18646DF
S31508016C808C4615467368102B01D0072013E00B4A72
S31508016C9009AB07CA83E80700079606930593049389
S31508016CA003930293019500946246054970461CF0C8
S31508016CB0BBFF00E007200CB070BD00BFA8FC0308AD
S31508016CC03000010070B58CB01C46109E5B68102B15
S31508016CD01AD186468C4615467368102B01D00720B3
S31508016CE013E00B4A09AB07CA83E807000793069620
S31508016CF0059304930393029301950094624605490B
S31508016D0070461CF091FF00E007200CB070BD00BF73
S31508016D10A8FC03081000010082B030B587B006ACA4
S31508016D2004E907000B93149C202C58D804EB840221
S31508016D30914204D004EB4402B1EB420F56D10C9BAD
S31508016D40A34255D162000F9BB3EB440F52D1129B5C
S31508016D509A4201D0072543E0159B012221462220AC
S31508016D60FFF7E0FC054600283AD1002306220E214A
S31508016D700C20FFF7C3FC012301930093234606AABF
S31508016D8012E907001CF0AFFE0E23009323460BAA57
S31508016D9007CA1CF0D2FD0C23009323460EAA07CA84
S31508016DA01CF0FAFD164A536823F07F0343F02603C5
S31508016DB053601CF092FEF8B9114A536823F07F0319
S31508016DC043F0220353601CF088FE0546B0B906233A
S31508016DD00093234611AA07CA1CF01FFE00E00125ED
S31508016DE0284607B0BDE8304002B070470725F7E7E7
S31508016DF00725F5E70725F3E70625F1E70625EFE772
S31508016E000020025C30B599B0264D08ACAC46BCE80A
S31508016E100F000FC4BCE80F000FC4BCE80F000FC475
S31508016E209CE80F0084E80F0004AC05F140030FCB82
S31508016E3084E80F006C4605F150030FCB84E80F0078
S31508016E40FFF734FD0420FFF74BFDFFF71DFD204634
S31508016E50FFF760FD002407E018AB03EB840353F842
S31508016E60400CFFF763FD01340F2CF5D9FFF7D2FC6F
S31508016E700328FBD9FFF7F8FC00252C46032C0AD872
S31508016E80FFF7C2FC18AB03EB840353F8503C584098
S31508016E9005430134F2E715B9284619B030BD062570
S31508016EA0FAE700BF90FD030808B510B1FFF7AAFF7E
S31508016EB0A8B9FFF7FBFC0820FFF7BEFC0020FFF787
S31508016EC0C1FC0720FFF7C4FC4FF40070FFF7C6FCAE
S31508016ED00820FFF705FDFFF7CDFC002008BD024B92
S31508016EE001221A700620F9E7B7290020014B012271
S31508016EF01A707047B629002000B589B008AB03E9B6
S31508016F000700FFF78DFC10F4807F13D10E4B1B7819
S31508016F109BB90E4B069A02921A1D92E803008DE858
S31508016F2003001B6808AA12E907001DF073F809B0E7
S31508016F305DF804FB1DF07EF9E8E71DF06DF9024BDB
S31508016F4000221A70E5E700BFB6290020F0FD030804
S31508016F5010B584B01DF060F9C0B90446FFF754FCBA
S31508016F600090FFF751FC0190FFF74EFC0290FFF7E6
S31508016F704BFC03906846FFF7CDFC1DF05BF9FFF764
S31508016F808BFCFFF7A3FC204604B010BD024B01227F
S31508016F901A700624F7E700BFB729002030B587B075
S31508016FA00D46164B00930190154B029346F61103B5
S31508016FB0039300F097F90446142816D090B94FF0B8
S31508016FC0A84303225A63C3F800D01D619A634FF0A0
S31508016FD0A843DB6B13F0030FF9D1142C09D000F089
S31508016FE0A9F90446204607B030BD04A81DF00FFADA
S31508016FF0E5E704A81DF019FAF1E700BF1C1D0020FA
S31508017000040000202DE9F04FB1B006468846154622
S315080170109E46DDF8E890DDF8ECC0DDF8F8A03F9F64
S31508017020409C724B0FCB0DF1C00B0BE90F000AEB1D
S315080170300502504200F00F00BCF1000F1BD0CCF145
S31508017040000101F00F01BB4628970123299344F05B
S3150801705000532A93C4F110073B0203F4F85343F093
S3150801706021032B93BCF1000F07D12CAB249336B91E
S315080170709CB128AB04E01021E5E77346F6E7012346
S315080170802593BCF1000F0AD04CF0005326934EB954
S31508017090002C40F08880212305E00123F0E741F028
S315080170A00053F3E7212343EA01232793CDF8808090
S315080170B024AB219345F0005322934FEA002E4EF05C
S315080170C0410ECDF88CE03D9B1C93002D6DD020AB75
S315080170D01D93002D6BD0002343EA0A031E930DB1BD
S315080170E04FF0410ECDF87CE03C9B18931CAB1993ED
S315080170F03F4B1A9340F611031B93002E5AD03D4B72
S31508017100149318AB15933C4B16931123179300232D
S3150801711010931193129313930125119547F0804704
S3150801712012970C930D930E930F930EB90DF1B00BA5
S31508017130CDF830B0102C3FD010AB0D930E94002330
S31508017140089309930A930B93002C37D00CAD099534
S3150801715041F080430A93002304930593069307930A
S31508017160CDF8109001B108AD0595B9F1000F27D0FA
S31508017170002343EA0C030693002300930193029329
S315080171800393BCF1000F1ED004AB0193024442F0F5
S3150801719080420292694614A8FFF700FF0246F0B939
S315080171A0EEB9034618E001237DE724AB90E74FF0DB
S315080171B0005391E7114BA3E70123BEE70125C6E773
S315080171C04FF08043D5E708ABDFE703F1C001694417
S315080171D011F8101C0A430133A342F6D31AB9104613
S315080171E031B0BDE8F08F2C22F9E700BFFCFD03089A
S315080171F01000002014FE03080400002010FE0308F6
S3150801720030B59FB0229CC02954D0B1F5807F04D0F7
S31508017210802943D029201FB030BD002C3BD040F235
S3150801722034451D95199401251A9510251B95212577
S315080172301C95239D1595002C38D019AC169410244D
S3150801724017940125189511921295139421221492D7
S31508017250194A0D9211AD0E95184A0F9242F611026E
S31508017260109209930A950B940C921DAA0592FBB1EB
S3150801727009AB06930423079311230893019005ABE1
S315080172800293C908039140F61103049315A901A8AD
S31508017290FFF784FEBFE740F21445C2E71CB14FF47D
S315080172A086651D95BEE74FF48265FAE70124C5E7B1
S315080172B00DABDEE70F20AEE718FE0308100000103D
S315080172C008B5074B1B6833B1054A1368013343F008
S315080172D00043136008BD0421014803F03FF9F3E7B1
S315080172E01C1D002010B5114B5A6E42F004025A6655
S315080172F0D3F8802242F00102C3F880220C4B5B6866
S31508017300C3F308034BB94FF0A843DC6B14F04304ED
S31508017310F9D1FFF7D5FF204610BD4FF0A843DB6B27
S3150801732013F0430FF9D11424F5E700BF008000508C
S3150801733000ED00E0014B5B680020704700ED00E0BE
S31508017340044B4FF400529A660322C3F860220020C8
S31508017350704700BF0090005008B51DF074F800286A
S31508017360FBD0044B4FF400529A660322C3F86022FD
S31508017370002008BD00A0005010B582B0134B1B7841
S315080173801BB10024204602B010BD0093104B019397
S3150801739002AB13E90300FFF7A3F9FFF7D1FF044690
S315080173A01DF08CF808B104B904461CF065FF40F0DD
S315080173B000401CF013FCFFF7CFFF08B104B90446DF
S315080173C0002CDFD1014B01221A70DBE7B829002016
S315080173D0934203082DE9F04184B006460D461C4642
S315080173E017460AB1002313600CB10023236010234A
S315080173F0009300232A4631461148006813F0FEF827
S315080174008046C8B90FB110233B602A680D4B9A42D2
S3150801741010D18FB184B1234603AA314608480068C2
S3150801742013F040F920B923683A689B1A236003E0F0
S31508017430804601E0DFF81080404604B0BDE8F081DF
S31508017440540C0020105D175EFFDF00F0F0B5A3B005
S3150801745040242246002112A827F018F922460021C5
S3150801746002A827F013F93A4D39E03A4E40E0009662
S315080174702B46102202A93848006826F06BFA4FF00D
S31508017480000C09E0354951F823100A440133042B4D
S31508017490F8D9DAB10CF1010C84451FD222AB03EB02
S315080174A08C0353F8803C03F01F01A3F50623A3F5CB
S315080174B050635B09012202FA01F1294D55F823208F
S315080174C00A4345F8232000231A46E0E7042AE1D8AF
S315080174D0234B002143F822100132F7E72546214BB9
S315080174E09D422FD805F110041A4B9C42BDD8264659
S315080174F0013E00962B46102212A91748006826F06D
