S00D000073656E736F722E7333374D
S31508012000C00A0020B53E0108B5220308B522030817
S31508012010732F0308B5220308B5220308B52203085E
S31508012020B5220308B5220308B5220308B522030819
S31508012030B522030814D50308851C0308B52203082D
S31508012040B5220308B5220308B5220308B5220308F9
S31508012050B5220308B5220308B5220308B5220308E9
S31508012060B5220308B522030841370108B52203083A
S31508012070B5220308B5220308B5220308E18E010833
S31508012080893801084D1F0308B5220308B52203083C
S31508012090B5220308B5220308B5220308B5220308A9
S315080120A0B5220308B5220308E1440108B52203084D
S315080120B0B5220308B5220308B5220308B522030889
S315080120C0B5220308B522030809F50208B522030853
S315080120D0E9FE020859C5030855C50308D9F60208D9
S315080120E065C503085DC50308C1FE020861C5030885
S315080120F029FF020861DA020895FF020831DC0208A5
S31508012100B5220308B52203086F2F0308B522030871
S31508012110B5220308B5220308E9340108B5220308E4
S31508012120B5220308B5220308B5220308B522030818
S31508012130B5220308B5220308B5220308B522030808
S31508012140B5220308B5220308B522030800000000DA
S315080121500023F7B51A4E1A461946184610F0AEF876
S3150801216030460FF0B7FF044600B1FEE7154F786811
S315080121701EF0D8F810A3D3E900231EF04DF91EF07E
S31508012180E5FB054638681EF0CDF80BA3D3E9002315
S315080121901EF042F91EF0DAFB234601462A4630783C
S315080121A000940FF0AFFF00B1FEE700F043FB00B16A
S315080121B0FEE703B0F0BD00BF9A9999999999F93F3D
S315080121C05D130020000B002070B505463E4C8AB011
S315080121D020B10023008823600CF0A4FE3B4829F0B7
S315080121E025FD3B4E3B4B304633603B4B736024F039
S315080121F001FD0021304617F03DFC31A3D3E9002348
S31508012200A062C4E9062324F0FDFCD4E90623194398
S3150801221010434FF0FF33C4E90601CDE900014FF041
S31508012220FF32A06A29F069FD02224FF0FF31A06A48
S3150801223029F068FD01200CF035FC4FF400730022EB
S315080122402649A06A29F0B6FDB0F5007F36D10023EC
S315080122509422CDE9073309933C23CDE9033205934B
S315080122609623A06A03A9069317F052FD25B3287C85
S315080122700DF0B0F80546E0B9A06A29F079FE0DF02F
S3150801228051F80CF0F1FB20B14FF4807000210AF0EF
S31508012290FBFB0CF0F9FB20B14FF4006000210AF0BA
S315080122A0F3FB012017F03AFC0D4A0E49A06A24F007
S315080122B09FFC28460AB070BDFF20D9E70725F8E735
S315080122C009D501552000000098150020690345EC41
S315080122D0E42900207DF10108D8290020D82700200B
S315080122E0996B0308D96B030810B5054C237833B9E4
S315080122F0044B13B1044800E000BF0123237010BD4D
S31508012300E8170020000000000022040808B5034B66
S315080123101BB10349034800E000BF08BD00000000E7
S31508012320EC17002000220408A3F5803A704700BF85
S31508012330174B002B08BF134B9D46FFF7F5FF0021EE
S315080123408B460F461348144A121A2AF058F90E4BAF
S31508012350002B00D098470D4B002B00D09847002042
S31508012360002104000D000D48002802D00C4800E0A9
S3150801237000BF1EF00DFD200029001FF027FD1EF0ED
S31508012380F3FC00BF00000800000000000000000088
S31508012390C00A00202C15002034300020000000005F
S315080123A00000000010B5234C02F05CFD02F014FF9A
S315080123B0236F23F0070343F0030323671FF0DBFFB3
S315080123C01D4B00209B6A9B075EBF01221B4B9A622D
S315080123D0D4F8203123F0030343F00203C4F8203173
S315080123E0D4F8243123F0070343F00203C4F8243157
S315080123F0D4F8403123F0030343F00103C4F8403114
S31508012400D4F8603123F0030343F00103C4F86031C3
S31508012410D4F8403223F0030343F00103C4F84032F1
S31508012420D4F8003223F0070343F00103C4F800325D
S3150801243010BD00BF0080005000C0005000E00050F1
S31508012440022837B50D4608D0431E012215491648FC
S315080124501FF0FAFC4FF0FF301FE000246946686858
S3150801246000941FF009FD10B10098092805D96A687A
S315080124700E490D481FF0E8FCECE7800001A900F1C0
S315080124807E60019401F0F0F8044640B90648019BC4
S315080124906A6807491FF0D8FC204603B030BD6A6850
S315080124A00449E6E7C2D0030804180020E9D0030866
S315080124B004D1030812D10308012810B508D0431E18
S315080124C000220D490D481FF0BFFC4FF0FF3010BD2B
S315080124D001F0FAF820B10A4908481FF0B5FCF4E7FB
S315080124E001F0E2F804460028F5D1044805491FF031
S315080124F0ABFC2046EBE700BFC2D003080418002056
S3150801250028D1030838D10308012808B508D0431E85
S315080125100022074807491FF097FC4FF0FF3008BD16
S31508012520054B0649187002481FF08EFC0020F6E795
S3150801253004180020C2D00308FE2E002049D1030842
S31508012540012808B508D0431E0022094809491FF089
S315080125507BFC4FF0FF3008BD20F063FD06F05CFB05
S315080125600549024602481FF06FFC0020F3E700BF49
S3150801257004180020C2D0030889D103080368334A26
S3150801258023F47F4323F00703934201461CD008D85E
S31508012590A2F5102293420ED002F5A02293420DD045
S315080125A070472B4A93420CD002F1FD7202F5803234
S315080125B0934239D070470021084600E0022000F016
S315080125C01FBC00210320FAE7B0F80530392B02D1E8
S315080125D000210E20F3E7302B07D1C17A012901D159
S315080125E00420ECE789BB0520E9E7332B08D1C17A3A
S315080125F0012902D102210620E1E731BB0720DEE7E6
S31508012600362B22D1C17A09B90920D8E7012901D186
S315080126100821D1E7022902D100210B20CFE703299E
S3150801262013D100210A20CAE74368D80701D500F06B
S315080126306FBA990701D500F071BB5A0701D51FF08A
S31508012640C4BB1B0701D500F071BB7047A0000A0087
S31508012650A000060108B5044B1B781BB101F01AF955
S31508012660C0B208BD0120FCE75C1300200146014801
S3150801267000F002BD041800200C4B13B51B7853B1AA
S315080126800B4B1B7803F0FF002BB90DF107011FF067
S3150801269059FC044608B102B010BD9DF80700FFF7C2
S315080126A0E5FF20460DF10701F1E700BF5C130020A5
S315080126B0FE2E002010B50323084A0949094800F0EF
S315080126C0BBFB044638B9074800F01EFE054800F072
S315080126D03DFD204610BD4FF0FF34FAE73CD2030812
S315080126E0951D03080418002037B50025174C0195D8
S315080126F0207000F08DFF1FF0DFFB8DF8030000F05E
S31508012700D3FF8DF8030000F0DFFF11498DF80300B0
S31508012710104800F0B9FF01A98DF803000D4800F033
S31508012720A3FF8DF8030000F0F5FF01A98DF803005A
S315080127300848019500F098FF8DF8030000F030FB7A
S3150801274023780BB1FFF7B6FF03B030BD5C13002049
S315080127504C5552410C00E00F044B187810B1044B4C
S315080127601878C0B200F00100704700BF5C13002062
S31508012770FE2E00201FB500234FF6FF72CDE9013268
S315080127804FF47A7200924FF4487204481146007861
S315080127900FF014FD05B05DF804FB00BFFF2E002005
S315080127A0014B18780FF0D0BC5D13002010B5044614
S315080127B086B0114806F046F9207B104B4FF6FF729A
S315080127C018700023CDE90132C82218210092282267
S315080127D00FF0F4FC0A4B05A9586906F0C3F903463C
S315080127E030B9CDE90000074A0599074820F0F5FBFD
S315080127F0002006B010BD00BF14180020FF2E0020CF
S31508012800000B002075270108341800201FB5002485
S315080128104FF6FF73CDE90143C823054800932822E3
S315080128202346182100780FF0C9FC204604B010BDD4
S31508012830FF2E00201FB50F4C022120780FF096FCC1
S3150801284000B1FEE7022120780FF0A4FC00B1FEE7F3
S31508012850094B03A9986806F085F9034630B9CDE90D
S315080128600000064A0399064820F0B7FB002004B089
S3150801287010BD00BF5D130020000B0020A127010831
S315080128801418002008B5024806F0DCF8002008BD37
S31508012890240B002013B5002403464FF47A71CDE9C1
S315080128A00044034A034806F07BF9204602B010BDEE
S315080128B0B71D0308240B00200A480378022B0FD8FA
S315080128C0094A926AD188094A02EBC30291800849EA
S315080128D001EB830109680133037011600020704719
S315080128E001207047002F0020240B002054180020D7
S315080128F0E8D203082DE9F04F2DED028B00230022C3
S315080129008FB0CDE90423CDE90623CDE90823CDE926
S315080129100A23CDE90C230023029303936F4B93F803
S315080129200080B8F1020F40F2D7804FF0000BDFF8B4
S31508012930C0A1DAF800001DF017FD0446BAF8040034
S315080129400D461DF0EFFC224606460F46DDE9040159
S315080129502B461DF0ABFBCDE90401DDE90601324644
S315080129603B461DF0A3FBCDE906019DED087BB0EEC4
S31508012970478AF0EE678A32463B46204629461DF0CD
S315080129804BFD53EC182B1DF091FB2246CDE90801AE
S31508012990DDE90A672B46204629461DF03DFD3B46E3
S315080129A032461DF083FB0BF1010B5FFA8BF3984559
S315080129B0CDE90A010AF1080ABBD8DDE90A01DDE910
S315080129C00467DDE904890022454B1DF025FD4246D1
S315080129D004460D464B46304639461DF01DFD024656
S315080129E00B46204629461DF05FFBCDE90C01DDE9C2
S315080129F00C01002200231DF077FF30B10124204687
S31508012A000FB0BDEC028BBDE8F08FDDE908010022AD
S31508012A10DDE90467DDE90689DDE90CAB304B1DF01C
S31508012A20FBFC424604460D464B46304639461DF0E8
S31508012A30F3FC02460B46204629461DF035FB524655
S31508012A405B461DF013FE1DF0A1FF0290DDE9064568
S31508012A500298DDE90423CDE900231DF085FCDDE9B3
S31508012A6000231DF0D9FC02460B46204629461DF0D7
S31508012A701BFB00221A4B1DF0F9FD1DF087FF039081
S31508012A801FF01AFA0028B9D101214FF07E6000F033
S31508012A90FBFD10B11FF017FAB0E70299114800F0D3
S31508012AA0F3FD0028F6D103990F4800F0EDFD002843
S31508012AB0F0D100F02FFE0028ECD11FF004FA0446ED
S31508012AC000289BD1029B09480363039B4363034B7D
S31508012AD01C7005F0B7FF92E7022490E7002F00204B
S31508012AE0000008400400E00F0800E00F240B002056
S31508012AF05418002010B50024034B04481C7005F037
S31508012B00A1FF204610BD00BF002F0020240B002086
S31508012B102DE9F0412DED028B794BAAB018680AA967
S31508012B2006F020F8034630B9CDE90000754A0A993E
S31508012B30754820F052FA754C236A1B79002B00F070
S31508012B40D9800026236A724D1E71236A0222DB8808
S31508012B503146C3F307238DF82430236A1B20DB880B
S31508012B609FED6C8A8DF8253009AB0FF063FB0222C5
S31508012B701B2109AB28780FF08BFBA36A02221E7171
S31508012B80A36A3146DB881F20C3F307238DF8243057
S31508012B90A36ADB888DF8253009AB0FF04BFB0222BF
S31508012BA01F2109AB28780FF073FB636A02221E7195
S31508012BB0636A3146DB882320C3F307238DF8243063
S31508012BC0636ADB888DF8253009AB0FF033FB0222E7
S31508012BD0232109AB28780FF05BFBE36A02221E71F9
S31508012BE0E36A3146DB882720C3F307238DF82430AF
S31508012BF0E36ADB888DF8253009AB0FF01BFB02224F
S31508012C00272109AB28780FF043FBA36A3146DB88F5
S31508012C1094ED0D7A9BB207EE903AF8EE677AD4ED09
S31508012C200C6A77EEC77A87EEA67A67EE087AFDEE22
S31508012C30E77A17EE903A43F307228DF824208DF8A8
S31508012C402530022209AB2B200FF0F4FA02222B21A0
S31508012C5009AB28780FF01CFBFFF77EFD002849D049
S31508012C60A36ADB8894ED0D7A9BB207EE903AF8EEEB
S31508012C70677AD4ED0C6A77EEC77A87EEA67A67EE9D
S31508012C80087AFDEEE77A17EE903A1DB2236ADB88D9
S31508012C90A26A9BB2D788626A0793B2F80680E26A8B
S31508012CA0BFB2D48820F0BDF905F0B6FF642195FBC3
S31508012CB0F1F201FB12552DB2002DB8BF6D42ADB22E
S31508012CC01FFA88F8A4B2CDE90125CDE90440009799
S31508012CD08021079B104ACDF80C800AA81EF0F2F94C
S31508012CE007460AAD002015F8011B01361FF01FF92A
S31508012CF0B742F7DC2AB0BDEC028BBDE8F08100BF14
S31508012D001C0B0020BD1D03086C180020240B002095
S31508012D10FF2E00200000C842A0D203080122024B60
S31508012D20C3F8D020FFF7F4BE00D003501FB5174BE8
S31508012D3003A9186805F016FF034630B9CDE9000066
S31508012D40134A0399134820F048F9134B9A6A1279E2
S31508012D50C2B100219A6A1F2011719A6AD2889B6AA8
S31508012D60C2F307228DF80C20DB8802228DF80D307C
S31508012D7003AB0FF05FFA094802221F21007803AB63
S31508012D800FF086FA05B05DF804FB00BF1C0B0020A6
S31508012D90BD1D03086C180020240B0020FF2E0020FF
S31508012DA013B51FF089F8C8B94FF07E6001A900F084
S31508012DB05BFC0E4CB0B9019B012B13D10C4801A940
S31508012DC000F052FC60B9019B0A4801A9236300F08F
S31508012DD04BFC48B9019B63631FF075F802B010BD3F
S31508012DE0054BF1E7044B2363044BF4E7240B00205E
S31508012DF00400E00F0800E00F000020C400743D47FE
S31508012E0038B50346102B084610D8094C2278062AED
S31508012E100CD8CC256A430C2505FB03230549CA189A
S31508012E2052681AB1CD5C904700B9257038BD00BF0C
S31508012E30012F00205C0B002010B568B1084CC0E9D1
S31508012E400223C0E90041002040F20113C4E9200031
S31508012E502070A4F8883010BD4FF0FF30FBE700BFA3
S31508012E608C1800202DE9F84306460C46C9B14B6873
S31508012E70144A002B08BF13460A6813491EF0E4FFDB
S31508012E80E36873B1236963B1304610491EF0DCFF6C
S31508012E9000251427DFF83880DFF8389023699D422A
S31508012EA001D3BDE8F88307FB05F2E06849468318B4
S31508012EB05B688258002B08BF434630461EF0C4FFA4
S31508012EC00135EBE7F4D2030806D3030810D3030848
S31508012ED08AD303081FD303082DE9F74F07460D4682
S31508012EE016461C46DDF830A053467CB34FF0000B5E
S31508012EF05AF8042B5E4502D14FF0FF3426E01146FD
S31508012F00A84655F8140B0193009229F096FBDDE9C2
S31508012F100023814660B9D8F80C5065B9D8F808502D
S31508012F20D5B1194620462B4603B0BDE8F04F1847E0
S31508012F300BF1010BDEE7D8F81060002EEED0012C5C
S31508012F4008D141463846FFF78DFF4C46204603B067
S31508012F50BDE8F08F013CC7E7384602491EF074FF09
S31508012F60CAE700BF2CD303082DE9F047064694B0FB
S31508012F70002857D0002955D0394A4B1E13F8014F5E
S31508012F80A55C15F00805F9D1002C38D0232C65D09D
S31508012F9008461EF0CBF8804600283FD0314903AADF
S31508012FA004AF29F099FBB946DFF8B8A008B10F2D8F
S31508012FB029D1002214AB03EB8503404643F8402C84
S31508012FC01DF012FF002D49D0274A2B4612683046BC
S31508012FD026490097FFF780FF421C044606D1B168CF
S31508012FE081BB3046049A22491EF02EFF002657F867
S31508012FF0040B08B11DF0F8FE0136B542F7D120469B
S3150801300014B0BDE8F0871EF091F8044649F8040BA0
S3150801301088B9AC4209D140461DF0E6FE304615494D
S315080130201EF012FF4FF0FF34E9E757F8040B1DF0C5
S31508013030DBFE0134EDE7514603AA0020013529F0EC
S315080130404BFBB3E7F268002ACBD02B4630460097F4
S31508013050FFF742FF431CC4D00446C7E72C46CEE718
S315080130606520040847D303086CD4030870D4030801
S3150801307068D303084BD3030813B504468DF8071024
S31508013080002848D0036893F88920002A43D0CAB299
S315080130900D2A0AD8072A0AD9A2F10801052906D84C
S315080130A0DFE801F03B39200505207F2A35D0A2F15A
S315080130B020015E292FD8D3F884107E292BD8D3F87E
S315080130C0800001311A540130C3F88000C3F8841016
S315080130D093F88830FBB1012220460DF107011EF055
S315080130E09EFE18E093F888301BB1204614491EF05D
S315080130F09DFE2168D1F8843023B100222046CA54A6
S31508013100FFF732FF002223680E49C3E920221A700D
S3150801311020461EF08BFE02B010BDD3F88020002A8F
S31508013120F9D0013AC3F88020D3F88420013AC3F8CC
S31508013130842093F88830002BEDD00349E8E700BFD7
S3150801314035D1030880D3030887D3030830B1036850
S3150801315093F8893013B102491EF068BE704700BF63
S3150801316080D3030808B5044B186810B103491EF04B
S315080131706BFE002008BD00BF181900208BD3030879
S3150801318008B5044B186810B103491EF05DFE00200E
S3150801319008BD00BF181900209DD303082DE9F8437F
S315080131A0394F3E6836B939481DF074FF4FF0FF3084
S315080131B0BDE8F8830128364C2CD900254FF01409AF
S315080131C0D1F8048009FB05F74146385929F035FA43
S315080131D028B93C4421463046FFF744FE18E001353C
S315080131E0042DEFD1B56875B10027D6F80C9008E023
S315080131F02C46414655F8140B29F01FFA0028E9D048
S315080132000137B945F4D14246304622491EF01CFE23
S315080132100020CDE7304620491EF016FE1F493868C2
S315080132201EF012FE0425DFF880801D4E63682268B1
S31508013230002B08BF4346314638681EF005FE013D9E
S3150801324004F11404F2D138688368002BE0D0C3680E
S31508013250002BDDD013491EF0F7FD1426DFF8488050
S31508013260DFF83C903868C368AB42D1D906FB05F252
S3150801327084684946A3185B68A258002B08BF4346D1
S315080132801EF0E2FD0135EDE718190020A5D3030864
S3150801329070D40308BAD30308D3D30308E9D30308C0
S315080132A01FD30308FED303088AD303082DE9F8437D
S315080132B0114E054633680F46D3B10124DFF8408025
S315080132C0DFF84090A542306805D80C491EF0BCFDD0
S315080132D00020BDE8F883012C02D041461EF0B4FD5A
S315080132E057F82420494630681EF0AEFD0134E9E757
S315080132F04FF0FF30EDE700BF1819002035D103085C
S31508013300D021040811D40308014B1860704700BF87
S31508013310181900202DE9F041AAB008AA1746684BEA
S3150801332003F11005144618685968083303C4AB42FB
S315080133302246F7D1634E0CAC0FCE0FC40FCE0FC485
S3150801334096E80300002584E8030003260124502299
S31508013350294616A8CDE9055507958DF80C508DF81F
S315080133600D508DF80E608DF80F508DF810508DF8B0
S3150801337011508DF8125029F042F921462A208DF86C
S3150801338058408DF85D408DF862408DF867408DF89C
S315080133906C408DF871408DF876408DF87B408DF83C
S315080133A080408DF885408DF88A408DF88F408DF8DC
S315080133B094408DF899408DF89E408DF8A34001F010
S315080133C0E9FA414802F074FA02214FF4B06001F0BB
S315080133D025FF41F288334FF00208ADF81C304FF44F
S315080133E0E1632A4639493848ADF81E308DF8178009
S315080133F002F0E4FA8DF819004FF4B06001F0ECFA26
S3150801340043F69823B0FBF3F004238DF831308DF899
S3150801341045309DF819302A46ADF81A0000932C4913
S315080134202B4629488DF832808DF8464002F0E0FA9D
S315080134303B460E9013908DF80D408DF80C408DF893
S3150801344011408DF80E6016AA597801355170997890
S31508013450042D9170D9781471D17003F1040302F126
S315080134600502F1D1184C0CAA204605A902F0E6FA84
S3150801347016AA204603A902F0B9F94FF48033E3608E
S31508013480144BD3F8202342F00102C3F82023D3F8C2
S31508013490282342F00102C3F82823D3F8282342F44B
S315080134A08032C3F828234FF48002A36A43F002034B
S315080134B0A362094BC3F884215A602AB0BDE8F0819A
S315080134C0E8D40308C0D403080040005A002D31018E
S315080134D08096980000C0035000E100E00822014BE5
S315080134E0DA6070470040005A2DE9FF413C4D3D4ADC
S315080134F02B7852683C4EB3EB820F37D0D6F888301A
S315080135003A4C03F007033A4F8DF80F309DF80F3008
S3150801351043B90222374B5A6200238DF80F3004B0A3
S31508013520BDE8F081E846314640461EF086FF98E838
S31508013530030084E803009DF80F30013BDBB28DF8E8
S315080135400F302379DBB257F82320216823790A44FF
S31508013550DBB247F8232022792749D2B28B5C0133A3
S31508013560DBB28B542B7801332B70CFE71023F36032
S315080135704FF400333046F36002F09AF901231F4AEB
S315080135801B49C2F8D0301C4A08681478B0FBF4F01D
S315080135901B4C80B2E080237188689478B0FBF4F004
S315080135A0184C80B2E080237148685478B0FBF4F077
S315080135B0154C80B2E0802371C868D478B0FBF4F06A
S315080135C0124C80B2E080237100230B602B701370BC
S315080135D04B6053708B609370CB60D37099E700BFD3
S315080135E0022F00201C0B00200040005A1C19002045
S315080135F0241900200060005A032F002000E0035020
S31508013600E00A0020D00A0020F00A0020C00A0020A3
S3150801361008B5002304221946032002F0A7F8044A34
S31508013620D2F8443443F00103C2F8443408BD00BF5C
S3150801363000E00350012302221946184610B502F08C
S3150801364095F8084B5A6FC2F34004920701D45A6F92
S31508013650FBE7002301211A46084602F087F884F0A1
S31508013660010010BD00C00350A0F17E6028289FBF4D
S31508013670044BC0F3870053F82030002094BF0B6039
S315080136800220704738190020A0F17E6028289FBFC4
S31508013690044BC0F3870043F82010002088BF02209E
S315080136A0704700BF381900204FF07E63044A054968
S315080136B053F8040B8B4242F8040BF9D100207047EA
S315080136C0381900202800E00F10B502F011FC4FF060
S315080136D07E6029F0F5F9044602F01AFC0022034B34
S315080136E0A01A18BF01201A6010BD00BF34190020A6
S315080136F010B502F0FDFB282205494FF07E6029F03E
S31508013700D7F9044602F004FC201E18BF012010BD9B
S315080137103819002008B5094B1B68012B05D9FFF795
S31508013720C3FF48B9FFF7D0FF30B9FFF7E1FF18B972
S31508013730BDE80840FFF7B8BF08BD00BF341900202F
S31508013740044B5A6903F500535A610122024B1A7058
S31508013750704700BF00800450072F002010B50446AB
S315080137601EF01EFE024B1C601EF01EFE002010BD40
S315080137706019002010B51EF013FE034B1C681EF0DD
S3150801378013FE204610BD00BF6019002030B5194D43
S3150801379095B00DAC0FCD0FC495E80700282384E832
S315080137A0070010240021144A09A8CDE90223134B66
S315080137B02246CDE90431069128F021FF4FF48021F4
S315080137C00F4B0DAACDE9071311238DF825300D4BA3
S315080137D007A90A9320230B9340F20113ADF8303061
S315080137E0094B0A48009302AB8DF8244000F04CFAC5
S315080137F015B030BDF8D4030800C005500004010116
S3150801380024C00550082F002064190020C019002083
S31508013810831E012B10B512D8012910D80422114B89
S3150801382011461B6C0020C3F3001301F09FFF0E4BDA
S315080138301B681868A8B1BDE81040436A18478B1E73
S31508013840012B0CD801280CD8BDE810400022054BE5
S3150801385004211B6C1046C3F3001301F087BF01292D
S31508013860E5D910BD00C00350F810002008B5044979
S31508013870044804F037FDBDE80840FFF787BF00BFDD
S31508013880F0100020B819002001481EF0C2BC00BF84
S31508013890C0190020014B1A6A18681047C019002080
S315080138A030B51446054687B010461EF090FB63698D
S315080138B0024683423CBFD4E903315B181B1A7BB12C
S315080138C00F49284603910021CDE9013101230494CA
S315080138D00093D4E900131EF0FDFC002007B030BDAB
S315080138E00122627694F82D20002AF6D084F8353024
S315080138F01321E369204698472046636A9847ECE70F
S31508013900A13801082DE9F04788B0044688461746CC
S3150801391099461EF04CFD8246002F7AD0237E03F08D
S31508013920FF02002B00F0A28020461EF050FB6669BC
S31508013930B04205D1637ED4E903521544AD1B01E0BB
S31508013940F9D9851BBD4228BF3D461EF030FD94F8C6
S315080139502D300646002B6DD12A464046616928F06E
S3150801396027FE63692F462B44636121E0037803F040
S31508013970FD0111295BD1216B814205D1A3F1110109
S315080139804B424B4184F83430013F6369216B013264
S315080139908B4203F1010308BF2363636195426069A2
S315080139A0E4D1D4E90323216B1344994200D122635C
S315080139B00025D4E9032361691344994208BF62616A
S315080139C0207A657600F0E2FC20461EF000FB63696A
S315080139D0834232D1257694F82D30E568656103B1C5
S315080139E025632046636A9847214B2A460393002399
S315080139F002932369216801930123207A0093049491
S31508013A0063681EF067FC207A00F0E0FC30461EF081
S31508013A10D4FC5046C9F800701EF0CFFCD9F8003026
S31508013A20002B0CBF1B20002008B0BDE8F08708F862
S31508013A30013BAAE72F460022B0E70123207A237625
S31508013A400DF11E0100F02AFD9DF81E30002BDAD07B
S31508013A500DF11F01207A00F0F9FC9DF81F100029CD
S31508013A60D1D12246207AFFF71BFFCCE71746D0E7CC
S31508013A70A1380108002808DB0123420900F01F00CC
S31508013A8003FA00F0014B43F82200704700E100E019
S31508013A90002809DB0122430900F01F0002FA00F0A1
S31508013AA0024A603342F82300704700BF00E100E094
S31508013AB070B504460568FFF75DFE844202D1002011
S31508013AC0FFF74CFE95F93600FFF7E2FF95F9363018
S31508013AD0002B0DDB01215A0903F01F0301FA03F339
S31508013AE01849203241F82230BFF34F8FBFF36F8F49
S31508013AF095F93700FFF7CCFF95F93730002B0DDB29
S31508013B0001215A0903F01F0301FA03F30D49203273
S31508013B1041F82230BFF34F8FBFF36F8F287A00F039
S31508013B2075FC287A00F0D8FB00F0B4FB0023284680
S31508013B30C4E90033C4E90433A360AB6ABDE8704045
S31508013B40184700BF00E100E02DE9F0410C46154693
S31508013B50064686B04022002120461F4628F04FFD22
S31508013B6095E8030000232A692376EB6884E80300B5
S31508013B70C4E904232A7DE36084F82C20AA7D236303
S31508013B80012384F8343084F835300C9B84F82D20D1
S31508013B9023620D9BE76163620E9BA3622B7A84F80D
S31508013BA036306B7A84F837302D4B346073602D4B81
S31508013BB0B3602D4B33612D4B73612D4BF36000F0D0
S31508013BC0B1FB38B12B4B984204D01024204606B0DD
S31508013BD0BDE8F081002104F1080000F02BFB07463F
S31508013BE00028F2D14FF00108234B3362234B84F8A6
S31508013BF03C80B361224BF3619DF8403084F839006B
S31508013C0084F83B309DF83C30204684F83A30697D8B
S31508013C1084F838801EF0EBF995F90900FFF738FFAB
S31508013C2095F90900FFF726FF164B0494CDE90273AF
S31508013C302369CDE900836368E2682168207A1EF06A
S31508013C4049FB04460028C0D195F90800FFF720FF73
S31508013C5095F90800FFF70EFF3046FFF77FFDB5E738
S31508013C603F20030805390108BD1F0308C31F0308C0
S31508013C70B13A0108038000F0931F0308EF1F0308F8
S31508013C80C91F0308A13801082DE9F04101271C467F
S31508013C905D4B86B002935D4B0C9D01935C4B904640
S31508013CA000930A46CDE9037729465A4BFFF74CFF9D
S31508013CB00646002840F08180236839462B646368EC
S31508013CC03A206B64637A85F84930237A85F8483057
S31508013CD0E37A85F84B30A37A85F84A30637B85F811
S31508013CE04D30237B85F84C30E37B85F84F30A37B39
S31508013CF085F84E3000F04EFE3B460422617A207A62
S31508013D0001F034FD3B460222E17AA07A01F02EFD4C
S31508013D103946606800F03EFE88F800604146206832
S31508013D2002F0E6F91421627C3B4B03EB4210C0F822
S31508013D303416677A217A323241EA0741C0F84C16BD
S31508013D40E07AA17A03EB421341EA0041596085F80A
S31508013D50506098F81930032B53D8DFE803F01F0297
S31508013D60324D0123002785F8503000230222617B5A
S31508013D70207B01F0FBFC617B227B637C42EA0142EA
S31508013D8041F23C615B0103F1A04303F570335A50DC
S31508013D900422236803F58053DA65AFB9237A2A6CBE
S31508013DA085F84830637A052185F84930D36C20684F
S31508013DB043F00403D3641EF052FB304606B0BDE857
S31508013DC0F081022385F8503000230422E17BA07B91
S31508013DD001F0CCFC41F234620221637C5B0103F100
S31508013DE0A04303F570339950E17BA27B03F5B253E7
S31508013DF042EA01421A60D1E70323012785F85030C8
S31508013E00B3E72326D9E700BF692103085D21030823
S31508013E10F5210308E921030800C0035037B500243A
S31508013E200368224A23F47F4323F007039342054696
S31508013E308DF800408DF801408DF802408DF8034059
S31508013E408DF804408DF8054026D002F1827293421E
S31508013E502AD1B0F80530412B26D1FF2302A91A46EB
S31508013E6011E903001EF01FFA012814BF41F2FC14E0
S31508013E700F4B4FF0410108BF187004F0FC02287976
S31508013E800EF0EEF900B1FEE7094B1B7863B128790C
S31508013E900EF0BEF940B1FEE7054B1B7823B103B01E
S31508013EA0BDE830401FF0FEB803B030BDA0000601E2
S31508013EB0282F002008B500F02DF8124B12498B4225
S31508013EC012D30020114B12498B4218D3FEF730FA50
S31508013ED0186850F82240586840F82240013298681C
S31508013EE08242F5D30C33EAE70022F8E71C6844F866
S31508013EF0220001325C68A242F8D30833E4E70022C3
S31508013F00F8E700BF0822040814220408142204084A
S31508013F10142204084FF400414FF0FF30114B124AA6
S31508013F2010B59A60D3F8882042F47002C3F8882045
S31508013F300E4A916601F1884101F5005210660C4856
S31508013F4050660220C3F8D000BFF34F8FBFF36F8FBF
S31508013F5008244FF440330748C0F88041D360046011
S31508013F600B6110BD00ED00E0002001080090005033
S31508013F707FFF070000E100E0014B1868704700BFAA
S31508013F8000110020084B1B6F03F00703022B04D016
S31508013F90032B05D0012B05D0FEE7044B18687047A3
S31508013FA0034BFBE7034870470080005000110020CF
S31508013FB004110020002D310108B5FFF7E3FF054B79
S31508013FC01B6FC3F303330133B0FBF3F0024B1860E5
S31508013FD008BD00BF00800050FC1000200048704753
S31508013FE000B4C404014B1868704700BF04110020CF
S31508013FF0054B1860054B1B6F03F00703032B01D113
S31508014000FFF7DABF704700BF041100200080005097
S3150801401000487047002D3101014B1868704700BFF1
S31508014020081100204FF000639B6A10B503F178422E
S31508014030B2F5903F0ED21968094A91420AD1094C44
S31508014040227812F0FD0F08D1DB69984708B90123D8
S31508014050237010BD4FF48170FBE70020F9E700BF1C
S3150801406007B0CD5E292F00204FF00053074A1A608A
S31508014070BFF34F8F0649074BCA6802F4E062134340
S31508014080CB60BFF34F8F00BFFDE700BF02020FF001
S3150801409000ED00E00400FA0505490A681318054809
S315080140A083428CBF4FF0FF320B601046704700BF4A
S315080140B00C110020000001202DE9F04F9A46564BBD
S315080140C085B01B7806460F461546DDF83C909DF8E7
S315080140D044B0DDF85080002B00F08D80072A00F2ED
S315080140E08C800E9B002B00F08880B9F1000F00F040
S315080140F08480129BB3F5006F7FDC012802D1109BE7
S31508014100002B7AD0454B03EB05131B7B002B76D08E
S31508014110434C10220021684628F071FA04EB451435
S315080141201022002F59D13946204628F068FA43F261
S3150801413010036380BBF1000F03D1E37843F0030357
S31508014140E370374A0E9B02EB451CCCE90193129B9F
S315080141506901013BC3F30A009DF84C30012E03F0B7
S3150801416003034FEA836343EA001E53582D48CDF8EB
S3150801417000A000EA03004EEA0003535041D113237D
S315080141800CF1100ECCF80C309CE80F008EE80F00ED
S315080141906FF00301DCF81C20109B61F39F02012FCD
S315080141A0CCF81C20CCF8143003D1CCF81890CCF8F4
S315080141B004300027194A290102EB051342F8018048
S315080141C0159A28465A60694622469F605E7301F031
S315080141D017FE384605B0BDE8F08F0021204628F0C5
S315080141E00EFA4FF444736380BBF1000FA9D1E3784B
S315080141F043F03003A4E70C48ECE70C48EAE70C481F
S31508014200E8E7B8F1000FD4D19CF8023068F304133B
S315080142108CF80230CDE700BF2A2F0020E4190020D0
S31508014220641A00200F80FFF3028000F0018000F07D
S31508014230078000F038B5124B05461B78DBB1E0B1B3
S315080142401EF0B5F80F4A00231146147B54B92B60AA
S3150801425001251A0101EB03131D738C501EF0ADF8ED
S31508014260204638BD0133082B02F11002EDD11EF0AC
S31508014270A4F80548F5E70548F3E70548F1E700BF5F
S315080142802A2F0020E4190020048000F0028000F0A3
S31508014290018000F013B51EF08AF800230B4A147B3F
S315080142A07CB90133082B02F11002F8D1019001F013
S315080142B049FD074B01981C701EF07FF8204602B095
S315080142C010BD1EF07AF80348F9E700BFE41900208B
S315080142D02A2F0020058000F00D4B10B51B780446E7
S315080142E093B1072812D81EF062F80A4B03EB0413A0
S315080142F01A7B2AB100241C731EF05FF8204610BDF4
S315080143001EF05BF80448FAE70448F8E70448F6E7BC
S315080143102A2F0020E4190020068000F0028000F010
S31508014320018000F0154B13B51868002301908DF82C
S3150801433004301EF03CF8124B1C7824B11EF03DF8EF
S31508014340104802B010BD01221A701EF036F80E4B45
S3150801435001A81C731C7783F82C4083F83C4083F82A
S315080143604C4083F85C4083F86C4083F87C40082312
S315080143708DF8073001F012FD2046E2E764D50308FF
S315080143802A2F0020038000F0E41900200A4A08B504
S3150801439012785AB107280BD8084A02EB00131B7B7F
S315080143A043B1002101F0ECFC002008BD0448FCE7FC
S315080143B00448FAE70448F8E72A2F0020E419002000
S315080143C0028000F0018000F0078000F00A4A08B573
S315080143D012785AB107280BD8084A02EB00131B7B3F
S315080143E043B1012101F0CCFC002008BD0448FCE7DB
S315080143F00448FAE70448F8E72A2F0020E4190020C0
S31508014400028000F0018000F0078000F00A4A08B532
S31508014410127852B107280AD8084A02EB00131B7B07
S315080144203BB101F03BFD002008BD0548FCE7054806
S31508014430FAE70548F8E700BF2A2F0020E41900200B
S31508014440028000F0018000F0078000F00D4B1B7818
S3150801445093B1072812D889B10B4B03EB00131B7BC9
S3150801446073B10A4B1A6D012303FA00F010401ABF03
S3150801447000200B700870704705487047054870475B
S31508014480054870472A2F0020E4190020000004502F
S31508014490028000F0018000F0078000F00B4A10B599
S315080144A012780C4662B107280CD859B1084A02EBB2
S315080144B000131B7B43B101F003FD2070002010BDE2
S315080144C00448FCE70448FAE70448F8E72A2F0020DD
S315080144D0E4190020028000F0018000F0078000F056
S315080144E02DE9F843174B1F6D5B6D1F4000D5FEE79D
S315080144F001260025144CDFF85480DFF85490374222
S3150801450017D02368C8F850609BB1A16828460131C5
S315080145106268A1609847637B012B0AD148B909EB08
S3150801452045131A7B60F341021A731A7F60F341023D
S315080145301A770135082D4FEA460604F11004DED133
S31508014540BDE8F88300000450E41900200020045057
S31508014550641A0020024B1968024B186814F09EBEB3
S31508014560141100201011002037B5920004460D469B
S31508014570019228F09DFA431C0BD060B929462046C2
S31508014580019A28F005F80028044808BF002003B05E
S3150801459030BD0348FBE70348F9E700BF10E000F028
S315080145A021E000F024E000F013B5044601A801F06B
S315080145B02BFDBDF80630012223804FF480730020BD
S315080145C06380054B9B680A3303F01F0302FA03F362
S315080145D0636002B010BD00BF0080E00F10B504464D
S315080145E028F06EFA431C15D0B0B90C4B20469B68CF
S315080145F00A3303F01F020123934023F003032344E4
S31508014600984201D1002010BD50F8042B0132F7D091
S315080146100348F8E70348F6E70348F4E70080E00FA4
S315080146200EE000F021E000F024E000F008B51DF0EE
S31508014630B7FE014B186008BDA4210020014B18687C
S315080146401DF0B2BEA4210020044BD3F88420D20663
S31508014650FBD4D3F88400C0F38110704700400050A2
S3150801466038B5104B0546D3F820310C4603F0030341
S31508014670022B0BD0032B0DD0012B0FD1FFF77CFC9E
S31508014680052305B1286004B1236038BDFFF7AAFCEC
S315080146900323F6E7FFF7BCFC0223F2E700231846DB
S315080146A0EFE700BF0080005073B50D4600210E4BA1
S315080146B00191D3F88041064604F00304012C09D080
S315080146C0022C0CD00C460EB1019B336005B12C604F
S315080146D002B070BD01A8FFF7C3FF0F24F3E7FFF788
S315080146E097FC0190EFE700BF0080005038B5174BE3
S315080146F00546D3F824310C4603F00703013B052B85
S3150801470020D8DFE803F0030F171B0B13FFF734FC60
S31508014710052305B1286004B1236038BDFFF72CFCD9
S315080147200623F6E7FFF75EFC0323F2E7FFF75AFCD9
S315080147300423EEE7FFF76CFC0223EAE71DF0BBFD55
S315080147400723E6E700231846E3E700BF0080005089
S3150801475038B5104B0546D3F840310C4603F0030330
S31508014760022B0BD0032B0DD0012B0FD11DF0A5FD6C
S31508014770092305B1286004B1236038BDFFF74CFC55
S315080147800823F6E71DF09CFD0B23F2E700231846E4
S31508014790EFE700BF0080005037B50C460021114BEA
S315080147A00191D3F88432054603F00303022B0ED098
S315080147B0032B11D0012B03D101A8FFF751FF0F21BC
S315080147C00DB1019A2A6004B1216003B030BD01A878
S315080147D0FFF7BEFF1021F3E7FFF71AFC022101904C
S315080147E0EEE700BF0080005038B5134B0546D3F8F5
S315080147F000320C4603F00703013B032B18D8DFE808
S3150801480003F0020A0E121DF058FD092305B12860AE
S3150801481004B1236038BDFFF7FFFB0823F6E71DF057
S315080148204FFD0B23F2E7FFF7C7FB0E23800AEDE7DF
S3150801483000231846EAE700BF0080005038B5104B40
S315080148400546D3F840320C4603F00303022B0BD07E
S31508014850032B0DD0012B0FD11DF02FFD092305B117
S31508014860286004B1236038BDFFF7D6FB0823F6E7B5
S315080148701DF026FD0B23F2E700231846EFE700BFDC
S315080148800080005038B5104B0546D3F860310C4608
S3150801489003F00303022B0BD0032B0DD0012B0FD1F1
S315080148A01DF00BFD092305B1286004B1236038BD4D
S315080148B0FFF7B2FB0823F6E71DF002FD0B23F2E72B
S315080148C000231846EFE700BF0080005038B50C46B4
S315080148D005461DF065FD064B9A6A82EA040101EA5E
S315080148E0050454409C62BDE838401DF05DBD00BF1B
S315080148F000C00050B0F5207F1FD009D8B0F5007F61
S3150801490015D003D868B1B0F5C07F0AD000200CE0F5
S31508014910B0F5607FFAD10B4BD3F88000C0F30110D4
S3150801492003E0084B186FC0F3033001307047054B9D
S31508014930D3F89000C0F30460F7E7024B186FC0F391
S315080149408020F2E7008000504FF400320E4B0146FA
S3150801495010B500209A66FFF7CDFF41F6713248433C
S315080149600A490B4B88428CBF4FF480100020DC6942
S31508014970DA635A6822F4401202435A60E20344BFDA
S315080149800022DA6310BD00BF00900050005A62028F
S3150801499000000350420910B510D0012A10D00B4B64
S315080149A00B4C022A18BF234600F01F0051B103F52C
S315080149B08053012202FA00F0186010BD1346F3E78E
S315080149C0044BF1E703F50053F3E700BF6880005095
S315080149D060820050648000501FB50022802804467A
S315080149E0019200F00C8100F2BF803F2836D9A0F170
S315080149F04D04142C02D9019804B010BD142CFAD810
S31508014A0001A353F824F000BF874B0108F7490108B1
S31508014A10874B0108874B0108874B01084B4C010856
S31508014A20A54B0108554C0108F7490108F749010842
S31508014A30F7490108F7490108F7490108F749010843
S31508014A40F74901089F4C0108F7490108F749010888
S31508014A50F7490108874B0108874B01083F28CAD83F
S31508014A6001A353F820F000BF874B0108F749010855
S31508014A70F7490108F7490108F7490108F749010803
S31508014A80F7490108F7490108F7490108F7490108F3
S31508014A90F7490108F7490108F7490108F7490108E3
S31508014AA0F7490108F7490108F7490108F7490108D3
S31508014AB0F7490108F7490108F7490108F7490108C3
S31508014AC0F7490108F7490108F7490108F7490108B3
S31508014AD0F7490108F7490108F7490108F7490108A3
S31508014AE0F7490108F7490108874B0108194C0108DC
S31508014AF0874B0108194C01084B4C01084B4C01081E
S31508014B004B4C01084B4C0108194C0108194C01087A
S31508014B105F4C0108A54B01088B4C0108F54B0108B0
S31508014B20A54B0108194C0108194C0108194C010833
S31508014B30F7490108F7490108F7490108F749010842
S31508014B40F7490108F7490108F7490108D74B010850
S31508014B50194C0108194C0108194C01089F4C010808
S31508014B60954C0108194C0108B0F5806F6DD024D811
S31508014B70B0F5007F47D009D8B0F5807F74D0B0F57D
S31508014B80C07F7FF438AFFFF717FA3AE0B0F5607FD8
S31508014B9048D03FF630AFB0F5207F3DD0B0F5407F25
S31508014BA07FF429AFFFF708FA02464FF42070FFF7A2
S31508014BB0A1FEB2FBF0F0400823E0B0F5C06F64D067
S31508014BC00ED8B0F5A06F45D0B0F5B06F47D0B0F5A7
S31508014BD0906F7FF410AF002101A8FFF787FD0AE760
S31508014BE0B0F5E06F56D0B0F5F06F58D0B0F5D06F8C
S31508014BF07FF401AF002101A8FFF7F6FDFBE6FFF7F9
S31508014C00C1F90190F7E6FFF7BDF902462046FFF71D
S31508014C1071FEB2FBF0F0F4E7FFF7CEF902464FF466
S31508014C202070F4E7204BD3F8803003F00303012BFF
S31508014C3004D0022B06D04FF46070E8E7FFF7A2F91B
S31508014C400246F8E7FFF798F9FAE7002101A8FFF706
S31508014C5007FDD0E6002101A8FFF79EFDCBE600215E
S31508014C6001A8FFF721FDC6E64FF0E02302921B6972
S31508014C705B0705D5FFF7A0F90290029B0193BAE6F7
S31508014C8003A902A8FFF764FDF7E7002101A8FFF7CA
S31508014C905FFDB0E6002101A8FFF7D0FDABE60021D4
S31508014CA001A8FFF7EFFDA6E60080005008B58020B1
S31508014CB0FFF792FE034B98429EBF4FF48032024B98
S31508014CC01A6708BD005A620200A000501FB50023EA
S31508014CD0B0F5607F019300F0A88036D8522800F01D
S31508014CE08B8016D82D280BD823280ED924380928C5
S31508014CF00BD8DFE800F0818181810A0A7C0A438B9F
S31508014D003D280ED03E2800F0A680019805B05DF832
S31508014D1004FB802853D009D8542800F097805C28D2
S31508014D20F3D1002001A9FFF7ADFDEEE7B0F5807FCD
S31508014D30EBD102934FF0E0231B695B0761D5FFF7BF
S31508014D403BF90C230393039B4DE0B0F5D06F5DD07F
S31508014D5019D8B0F5A06F79D00AD8B0F5806F4BD0C5
S31508014D60B0F5906FD1D1002001A9FFF7BFFCCCE7C0
S31508014D70B0F5B06F3BD0B0F5C06FC6D1002001A920
S31508014D80FFF7E6FCC1E7B0F5006FECD005D8B0F542
S31508014D90E06F60D0B0F5F06FC2E7B0F5086FB4D137
S31508014DA02F4BD3F8003103F00303022B33D0032B27
S31508014DB035D0012B37D1FFF715F9032313E0284B1B
S31508014DC01B6F03F00703013B032B9ED801A252F880
S31508014DD023F000BFEB4D0108E54D0108BB4D010865
S31508014DE0234E0108052301938FE70223FBE70020E1
S31508014DF001A9FFF759FC88E7002001A9FFF730FC54
S31508014E0083E703A902A8FFF7A3FC9CE7002001A9F1
S31508014E10FFF7EAFC79E7FFF7FFF80823E3E71DF058
S31508014E204AFA0723DFE70123DDE70D4AD2F8802096
S31508014E3002F00302012A05D0022AD4D1FFF79CF811
S31508014E400623D0E7FFF79EF80D23CCE7002001A93A
S31508014E50FFF7A2FC59E7002001A9FFF7EFFC54E789
S31508014E60008000504FF40022034B5A66012203F5D5
S31508014E7080439A62704700BF0090005008B5FFF75B
S31508014E8025FF082811D00938012811D84FF4001236
S31508014E90094B4FF6FF705A6603F5D8335B6A13F070
S31508014EA0010F18BF4FF4FA7008BD044B1888FBE7C9
S31508014EB04FF6FF70F8E700BF009000504813002036
S31508014EC070B504468020FFF701FF032800F08280B1
S31508014ED04FF40022444B02215A6645F60E03434A13
S31508014EE0C2F88030424B9962012103F580539962D9
S31508014EF0936DD903FCD4D4E900131B0543EA016376
S31508014F00E17B94F822500B43217B94F8236043EA12
S31508014F100143617B43EA0133A17B43EA81131361B0
S31508014F209169D4E904031B0643EA806301F0004151
S31508014F300B43A17EE07E0B43217E43EA0143617E5A
S31508014F4043EA01239361E369126A002B0CBF00212E
S31508014F50082122F00D0242EA030242EA8002234BAB
S31508014F6042EA01021A6294F820204FEA421232D12B
S31508014F70986A94F8211020F0330042EA011202439C
S31508014F8042F001029A621B4A996D32EA0101FBD18C
S31508014F90022217498A621A659A6D5200FCD4186969
S31508014FA0A26820F4700040EA02504FF000421861EE
S31508014FB00F4B9A611DB9022203F580539A6216B9FD
S31508014FC001220D4B9A6294F824301BB1074B0B4A08
S31508014FD0C3F8802070BD996A21F0330131430A4331
S31508014FE042EA4502EEE700BF0090005000C00050BB
S31508014FF000D000500300014000E00050F1A7FFFF78
S3150801500013B5194CA16AA36D13F4803F18BF012289
S31508015010164B18BF9A6202229A621A65A36D5B0043
S31508015020FCD4134BA26993F9003022F47F0203449E
S31508015030000222F47F4280B283F30803104340EA58
S315080150400340A06102200191FFF740FCA36D01997D
S3150801505013F4803F05D0012002B0BDE81040FFF7E8
S3150801506035BC02B010BD00BF00C0005000D00050D2
S315080150702B2F0020014B93F9000070472B2F00209E
S315080150804FF4001208B5184B5A660223174A5360A3
S31508015090936813F48033FBD1012822D1FEF7A2FFCE
S315080150A0134B984215D003F5122303F5F86398427A
S315080150B013D0104B00EB8002400AB3FBF0F0520A02
S315080150C00A4BDA62012218635A620022074B5A60B8
S315080150D008BD45F67A10084AF2E745F61A00074A66
S315080150E0EEE75362F1E700BF00900050004002501E
S315080150F000F0490264666666D8B80500BBCF0500AC
S31508015100B0F5207F10B50C4657D008D8B0F5007F0A
S3150801511048D003D830B3B0F5C07F23D010BDB0F561
S31508015120607FFBD129492A48D1F8FC2012F0807208
S315080151301EBFD1F8FC3023F08073C1F8FC30D0F8DB
S315080151408030611E23F0300444EA0114C0F880401F
S31508015150002AE3D01D4AD2F8FC3043F08073C2F826
S31508015160FC30DBE71DF0F4F81DF000F94FF480314F
S31508015170184B174A1967136F611E23F4704444EAE2
S3150801518001341467FEF718FF0446FFF75DFAC0F10C
S31508015190020120461DF0E4F800F02EF8BDE81040A3
S315080151A0FFF784BD0A4A0139D2F8903023F0F85442
S315080151B044EA0164C2F89040B0E7054B013C196F17
S315080151C021F4806141EA84241C67A7E700ED00E029
S315080151D0008000500090005008B50121022000F01F
S315080151E029FA1DF0B5F81DF0C1F84FF48032014BCC
S315080151F01A6708BD0090005008B54FF4C070FFF754
S31508015200EBFBBDE80840044988428CBF0221012115
S315080152104FF42070FFF774BF80F0FA02B0F5607F93
S3150801522070B50C4600F0568152D8522800F0058117
S3150801523018D82D2810D8232813D92438092810D886
S31508015240DFE810F0FB00FB00FB00FB000F000F007E
S31508015250EC000F006E0038013D280CD03E2800F006
S315080152608B8170BD802800F0898014D8542800F0FD
S3150801527058815C28F5D1083C032C8CBF0021B14B21
S31508015280B14A98BF195DD2F8603123F003030B4385
S31508015290C2F86031E5E7B0F5807FE2D1A1F10804F3
S315080152A0082CDED801A353F824F000BF5B5401088B
S315080152B05B540108635201085B54010889540108CB
S315080152C06352010863520108635201085B540108DD
S315080152D0B0F5D06F00F0EE8032D8B0F5A06F00F0CF
S315080152E0208116D8B0F5806F00F0A780B0F5906FD1
S315080152F0B7D1023C052C8CBF0021944B924A98BF2A
S31508015300195DD2F8243123F007030B43C2F824317F
S31508015310A7E7B0F5B06F00F08180B0F5C06FA0D1F6
S31508015320083C032C8CBF0021894B874A98BF195D1D
S31508015330D2F8403123F003030B43C2F8403190E71A
S31508015340B0F5006FD5D006D8B0F5E06F00F014813E
S31508015350B0F5F06F8EE7B0F5086F82D1CC1E052C3B
S315080153608CBF00217B4B784A98BF195DD2F8003172
S3150801537023F003030B43C2F8003172E78B1E052B9A
S3150801538049D8DFE803F04533480348420025022699
S315080153900121022000F04EF91CF0DAFF1CF0E6FFAD
S315080153A04FF480316C4B684A1967136F23F0070372
S315080153B033431367FEF700FE0646FFF745F9C0F1CA
S315080153C0020130461CF0CCFF0121002000F072F9E1
S315080153D0FFF712FFFFF76AFC002D7FF442AF032C9B
S315080153E07FF43FAF01225D4B9A623AE74FF4002200
S315080153F0594B0E465A66012203F540539D6A03F539
S315080154008053C5F340059A62C2E700250426BFE723
S3150801541000250126BCE700252E46B9E7022C03D054
S31508015420A4F10F056C426C41474BD3F8801121F06A
S3150801543003010C43C3F8804113E7023C032C8CBFDC
S315080154400021474B404A98BF195DD2F8203123F015
S3150801545003030B43C2F8203103E74FF480323A4B7A
S315080154604049586E03F580535A660B6AC00343F0E8
S3150801547001030B625CBF3C4B5A664FF0E02213698D
S3150801548023F004031361ECE64FF480322E4B3549C1
S31508015490586E03F580535A660B6A23F001030B62B3
S315080154A0C1035CBF304B5A664FF0E022136943F0E3
S315080154B00403E7E7083C062C8CBF00212B4B224A44
S315080154C098BF195DD2F8003223F007030B43C2F8DF
S315080154D00032C6E6264AD2F8FC3013F080731EBFA6
S315080154E0D2F8FC1021F08071C2F8FC10062C16D0F7
S315080154F0A4F10D0251425141134AD2F8804024F0D9
S3150801550003040C43C2F88040002B3FF4AAAE184AA4
S31508015510D2F8FC3043F08073C2F8FC30A1E60221D0
S31508015520EAE7023C0E2C8CBF0021124B064A98BFB3
S31508015530195DD2F8843223F003030B43C2F884328F
S315080155408FE600BF90D503080080005094D5030864
S3150801555090D50308A1D503080090005000E000503B
S315080155608CD5030800C0075000A000509AD503083F
S3150801557000ED00E0A7D50308083C032C8CBF0021E9
S31508015580054B064A98BF195DD2F8403223F003034A
S315080155900B43C2F8403264E690D5030800800050F8
S315080155A0024A136CDB07FCD4704700BF0040095060
S315080155B0044A4178536F23F4407343EA012353673E
S315080155C0704700BF004000500A4A10B513690446E7
S315080155D043F00403136103F079F81CF0F1FE30BFC0
S315080155E01CF0EFFE03F086F81CB9BDE81040FEF783
S315080155F0E3BC10BD00ED00E0084A10B51369044686
S3150801560043F00403136103F061F830BF03F072F845
S315080156101CB9BDE81040FEF7CFBC10BD00ED00E097
S31508015620034A0179D36E23F030030B43D3667047DF
S3150801563000400050F8B504461C4BD3F88420D10627
S31508015640FBD4D3F88430C3F381139C422CD0FEF7E4
S3150801565099FC012C064602D121461CF081FE1CF05C
S315080156609FFE4FF00072124B07465A6620461CF001
S31508015670ABFE4FF480630D4D621E93402B676B6E34
S315080156809A0103D4D5F884309B060AD538461CF00E
S315080156908BFE022C08D13046BDE8F84000211CF0EB
S315080156A05FBED5F88430EAE7F8BD00BF0040005078
S315080156B00060005007B518B90191FEF763FC01991E
S315080156C0064B1B7843B1064B984205D8012003B017
S315080156D05DF804EBFFF7AEBF0220F8E72C2F002098
S315080156E0005A62020278034B012100201A70FFF763
S315080156F0E1BF00BF2C2F00204FF00042174B10B519
S315080157005A664AF6CD331649D1F89440C1F8903015
S3150801571004F0010490B9FFF743FF4B68DB0705D591
S315080157200122104B5A60CB6BD807FCD51CB10C4B28
S315080157300D4AC3F8902026F0FAFA10BDCB6B1A076A
S31508015740FCD42022074B5A630122A3F580535A60E1
S31508015750034A536B9B06FCD5E8E700BF009000504F
S3150801576000400950006009503254FFFF2DE9F0410D
S3150801577005460F461E4690464AB101233022194C6A
S315080157808B4002FB00443EB304F5825423600F218B
S31508015790072F05EB450388BFA7F108044FEA031352
S315080157A0114895BFBC00A40004330C3308FA04F26F
S315080157B0A14018441CF00FFEB8F1000F0AD10121CF
S315080157C03020084A01FA07F700FB05223EB102F527
S315080157D082521760BDE8F08104F50154D6E702F557
S315080157E00152F6E700C0035030C00350F8B504462D
S315080157F01CF002FE0B782D4E03F007004B78002BA8
S315080158008B7818BF08254FEA031303F0300343EAE0
S315080158100003C87808BF0025002814BF4FF480701C
S3150801582000202B430343C4F88030E06A0B7920F04B
S31508015830170003F00703034348791546000100F0F2
S31508015840100003430020E362B44224D110280ED18C
S315080158500126002504F580535E602B4604328342F7
S315080158601BD18B79A5610BB10823E360F8BDAB7831
S315080158702F881B0403F480333B43EF780535002F4B
S3150801588014BF4FF4003700273B4300F1280744F8BB
S3150801589027300130D8E70020DAE703EB8307D75D25
S315080158A017B106FA03F73D430133D8E70040005A1A
S315080158B001210246F8B500F580535960274B28495E
S315080158C0C36053690B40FCD19361C2F898305369A0
S315080158D013F4401FFBD15369D9052DD4936F5BBBD4
S315080158E053699B052AD4D2F8881039BB1046D36F61
S315080158F0D2F88C301CF080FD30231A489160824220
S315080159000CBF02200020116142F26005D1620F46E8
S3150801591011621367C2F880300B46134E834210D1C9
S315080159200020104B9A4201D1102911D10F4B02F5D3
S31508015930005253629362F8BD536FCCE7D2F88430B4
S31508015940CEE702EB0314A564013326656765E5E72F
S3150801595001F1280442F824000131E3E712000200AC
S31508015960520001000040005A00C002808F330F80A8
S31508015970084608B569B92A20FFF72EF8B0B10C4BCD
S31508015980984206D90B4B9B68C3F302730133B0FBEC
S31508015990F3F0094900F5742000F23F20B0FBF1F05D
S315080159A001387F2828BF7F20C0B208BD0120F0E753
S315080159B0005A62020040005A40420F0010B50B4CD3
S315080159C08C4228BF0C461AB92A20FFF705F8024669
S315080159D0601E0244B2FBF4F0A24228BF00F1FF3078
S315080159E0032828BF0320C0B210BD00BF005A6202B7
S315080159F010B51048104C002B18BF2046884228BF06
S31508015A00084604461AB92A20FEF7E6FF02469DF81B
S31508015A1008000130B2FBF0F2601E0244B2FBF4F357
S31508015A2040F2FF30A24228BF03F1FF33984228BF54
S31508015A30184610BD80969800404B4C002DE9F04F52
S31508015A402DED048BB44E0C4687B01546314600221F
S31508015A500746FFF7B3FF6379984238BF18465FFADE
S31508015A6080F838461CF0C8FC207950B92A20FEF780
S31508015A70B3FFB042014628BFB0FBF8F13846FFF73D
S31508015A8077FFE3784FEA08721B0102F0E04203F060
S31508015A90300313430004227800F4FE0003430AB1DD
S31508015AA043F0020362780AB143F00403A2780AB10B
S31508015AB043F008034FF00009BB60E38822893B6184
S31508015AC06389DFF860A243EA02433B62574502D184
S31508015AD0B9F1020F08D1012307F580577B6007B09A
S31508015AE0BDEC048BBDE8F08F00222C788B488C49DD
S31508015AF0AE68944218BF014623468A48CDF800800D
S31508015B00FFF776FFB6B28642334638BF034607EB40
S31508015B10091103938B6C04F0030623F0435323F412
S31508015B201D1323F4405323F01F0333436E78EA7899
S31508015B30B60006F01C061E43AB784FEA09101B0394
S31508015B4003F4E0433343160406F4E02633432E7C7C
S31508015B50760506F4600633432E79360706F0405675
S31508015B6033438B648B6C7049C3F30233013B042BBB
S31508015B7000F28580DFE803F0838383030300D1F80D
S31508015B80843109F1050B002C6FD10AEB00039C6CDB
S31508015B90C4F30234631E012B634B73D8DFED637ABA
S31508015BA0D3F88041A4B223044FF001035044806C1A
S31508015BB024F4C046C0F3820000F1010E03FA0EFE7A
S31508015BC007EE10EA4FEA8646B8EEC79AF6EE008A5D
S31508015BD0554B48BF46F00046002871D1D3F88C31A1
S31508015BE01BB208EE103AB8EEC88A37EE888A002A40
S31508015BF07BD105A800F008FADFED4D7ADFED4D6A95
S31508015C0086EE897ADFED4C6A67EE887A27EE267A80
S31508015C10F1EE006AB6F1004F07EEA67A0BD0DFED7A
S31508015C20476A07EE904A37EE266AFAEEE87AB0EE48
S31508015C30667A17EE867AB5EEC07AF1EE10FACABF21
S31508015C40B1EE477A38EEC77A37EE687AFDEEC77A4B
S31508015C5017EE903AB3F5003F54DB6FEA56466FEA02
S31508015C6046464FEA0B134AF80360039B0AEB0B11EE
S31508015C70C3F309024A6009F10109143526E7D1F887
S31508015C8080317EE7032C0AD1D3F88041D3F88C31D1
S31508015C90240C1B1407EE903AF8EEE77A83E7042CF6
S31508015CA0D3F884410BBFD3F88C31D3F88C311B144C
S31508015CB01B1407BFA4B25B00240C03EB4303E9E7FB
S31508015CC0D3F89001D3F8883100B207EE100AB8EE7E
S31508015CD0C77A77EE677A29EE287A1BB287EE878A22
S31508015CE007EE903AF8EEE77A7FE7D5ED037ADFED2E
S31508015CF0146AF8EE677A87EEA67AF7EE046AC6EEB4
S31508015D00877A7BE713F5003FAABFC3F3110346F46D
S31508015D1000361E43A5E700BF005A6202404B4C00FD
S31508015D20809698000040005A0080E00F00000000AD
S31508015D303D3B843F000080430000204400000049A9
S31508015D4000007A444FF080620B4B10B5C3F88020EF
S31508015D50BFF34F8FBFF36F8F0024FF22074B2146F6
S31508015D605C6520209A625C60FEF714FE2146BDE858
S31508015D7010402120FEF70EBE00E100E000000450AD
S31508015D80044A054B002918BF1346012202FA00F0FE
S31508015D9018607047402004504010045010B5012186
S31508015DA004462020FEF7F6FD01212120FEF7F2FD2B
S31508015DB00122114B5A60227812069A606178A278FC
S31508015DC042EA01429A61FF229A6200229A631A64A0
S31508015DD04FF000425A654FF0FF324FF0806103F5EC
S31508015DE000531A65054AC2F88011E3781B01DBB234
S31508015DF082F81A33116010BD0000045000E100E07A
S31508015E002DE9F0410125C3B2D1F8008091F80AC005
S31508015E100F7B91F80DE09D400C46CB7A1C491D4E2F
S31508015E200D65810001F1A04101F58821C1F80480C1
S31508015E30302101FB00601B0543EA0C4343EA475343
S31508015E4022F00302C0F860E0C36502671CF0AFFAEE
S31508015E50736D2B437365237A13B1336C2B43336408
S31508015E60637A13B1B36B2B43B3632279A37943EAFC
S31508015E700243074A93616179E37943EA0143064993
S31508015E808B61044B55639D64BDE8F0411CF095BADE
S31508015E9000200450000004500010045010B50124DD
S31508015EA0C0B284401CF083FA044B5A6D22EA0402FC
S31508015EB05A659C62BDE810401CF07FBA0000045088
S31508015EC010B50124C0B284401CF071FA074BDA6A96
S31508015ED0224209D15B6B34EA03030CBF0124002477
S31508015EE01CF06BFA204610BD0024F9E700000450A7
S31508015EF04FF40032054B9A6641F6713203F51C33AD
S31508015F00DA63012203F50053DA6070470090005006
S31508015F1041F671320121064BDA6303F50052D1606D
S31508015F200022DA634FF40032A3F518339A667047F4
S31508015F3000000350CB784A7810B55B010C7843EA28
S31508015F4082030A79234343EA02130C22424302F1EC
S31508015F50B0421363012C02BF8A78024B43F8202012
S31508015F6010BD00BFEC80035008B54FF0B0435A6826
S31508015F7002B960B15B680BB11CF069FA4FF0B04128
S31508015F8030B10120074B58601CF061FAC86008BDA2
S31508015F901CF05DFA0223CB601CF059FA0122024B70
S31508015FA05A60F4E700100058002000584FF0B0433B
S31508015FB05B6870B50BB11CF04AFA0121104B4578A4
S31508015FC0596083780679002BC37814BF022400240C
S31508015FD0002B14BF042200224379DB0043EA06138F
S31508015FE02B43234313434FF0B0429360054B59604B
S31508015FF00378002B14BF0B460223D36070BD00BF84
S3150801600000200058001000584FF48032084B5A6699
S3150801601003F5E6235B69C3F3461203F00F010A434E
S315080160204280C3F30342C3F30333427003707047DC
S315080160300090005070B5054616461C4621B94FF426
S315080160402070FEF7C9FC0146402C1BD003D8DCB1F1
S31508016050202C1BD070BD602CFCD1042303FB06F257
S31508016060560806EB4113B3FBF2F3094A203B02EA51
S31508016070C303AA6822F06002AA60AA681443AC6046
S31508016080EB61E7E70623E9E71023E7E70823E5E7F6
S31508016090F8FF7F00012200F5805310B55A6040F6DB
S315080160A0AA6341F20502436100230E498360C36571
S315080160B0C26000F500520361C361C36491640A4971
S315080160C08365884202D0094CA04207D188420365FC
S315080160D002D0064B984201D1002343650123536040
S315080160E010BD00BFFFFF010000C0055000000650AB
S315080160F070B50D46FFF7CEFF012300F58056736094
S31508016100AB7C04461BB1836843F080438360EB7C18
S315080161105BB1354A2B7D944245D1A2F51032C2F8BE
S315080161209031E36D43F08003E3652A8A6B7B204651
S315080161301343EA891343E3602B7BD5E90112FFF781
S3150801614079FF6B7D1BB1A36843F48033A360AB7DF4
S315080161501BB1A36843F40043A360EB7D2A7E1B07AA
S31508016160120502F4E00203F0E0431343A365697ED6
S315080161701D4A8B1E012B1D4B1FD894421BD002F5BD
S31508016180804294420CBF01224FF0FF3203EB4213C7
S31508016190022041F234620329985020D10423F36581
S315080161A02B78636170BD124A944204BFA2F520326E
S315080161B0C2F8AC31B5E70022E8E794420DD00C4AA3
S315080161C094420CBF01224FF0FF3203EB4213022027
S315080161D042F2346201299850DFE70022F5E70422EA
S315080161E004F50053DA65DBE700C0055000C003502B
S315080161F00000065038B50446054D25F0BEFD0FCC06
S315080162000FC594E8030085E80300002038BD00BFE8
S315080162105822002047F6FF739A42F0B567D0012944
S3150801622067D8354DCF0015F8313005EBC100012B84
S31508016230847813D10025C3781B1B9D4202D3E0182D
S31508016240C0B2F0BD591B4668A3EB510136F911607E
S315080162509642D4BF0D4601F1FF33EEE740680028A8
S31508016260EFD0B0F90030934204DBB0F90230934223
S31508016270B8BF134682883D44FF2A19BFC8214FF08B
S31508016280280CB0F90610B0F908C0A1EB03020CBF3F
S315080162900126002692FBFCF26D78324412B2954231
S315080162A001DD002A01DA6A1E12B24FF47A7700EB91
S315080162B0C206F188B668013213FB016112B221EAFE
S315080162C0E17101F5FA719542B1FBF7F104DD00EBD5
S315080162D0C206B6888E42EAD200EBC20232F8040C34
S315080162E0884228BF0846A04238BF2046A8E7FF20B3
S315080162F0A7E70020A5E700BF582200200129F0B52D
S3150801630053D82B4800EBC10410F8311063680129F2
S315080163100FD1E078A478904294BFC4EB0001C4EB96
S315080163200201001BCAB28242C8BF002233F9120019
S31508016330F0BD002B39D0A178914202D3B3F90200FE
S31508016340F6E7E178B3F900009142F1D999886478C2
S31508016350A1F1FF06013C714203F10405E4B2714162
S3150801636003F10C071FFA82FCCEB2B44216D805EB2C
S31508016370C1014FF47A756A43B1F902404968521A64
S3150801638004EBD47102EB610292FBF4F29042CFDB8B
S31508016390B3F902009042CBDC10B2C9E737F831E015
S315080163A04E1CE645E3D33146DEE70248C0E700BFA7
S315080163B0582200200080FFFF08B50448FFF71AFF9E
S315080163C0BDE80840012025F0DCBC00BFB8D50308AC
S315080163D0004870474A13002082B06B4683E80300E1
S315080163E0034A93E8030082E8030002B0704700BF3E
S315080163F0702200201B0603F0706300F00F000902EB
S31508016400034301F47061120402F470220B4313432F
S31508016410014A1360704700BF0020025C2DE9F0476E
S3150801642017460C4688B029B10139B1F5806F01D3F9
S3150801643001263FE0244AD66816F48036FBD140EAA5
S3150801644001212238112805D8204DC540ED4315F004
S31508016450010533D0012541F000413A0702F0805287
S3150801646013431943184B596025BB194A03AB1068E6
S315080164705168DFF860A003C30223CDE906350DF1A3
S315080164800C090DF11408CDF8149098E80E00DAE914
S315080164900005A847022148461CF08BFA0028F2D0CD
S315080164A00F22E31C009223F0030398E8070047B183
S315080164B01BF0F3FF304608B0BDE8F08741F0034111
S315080164C0CBE71CF083F8F5E70020025C01480200DF
S315080164D03CD60308702200200122054B9A60DA682F
S315080164E0D203FCD4D86820F00F000004000C7047D2
S315080164F00020025C014B1868704700BF0040025C2F
S31508016500014B5868704700BF0010025C014B186BBD
S31508016510704700BF0010025C014B1868704700BF46
S315080165200010025C014B9860704700BF0010025CC6
S31508016530014B1864704700BF0010025C014B586498
S31508016540704700BF0010025C014B5863704700BFDB
S315080165500010025C0022014B1A6070470010025CB1
S31508016560024A136843F00103136070470010025C86
S3150801657043F20402014B1A60704700BF0010025C27
S31508016580024A136843F03003136070470010025C37
S31508016590044B1A6842F480721A601A6822F48072EF
S315080165A01A6070470010025C024A136843F480635C
S315080165B0136070470010025C034A136823F47023C2
S315080165C043EA0040106070470010025C044B1A69E8
S315080165D002605A6942609A698260DB69C3607047E2
S315080165E00010025C0268044B1A6142685A618268AB
S315080165F09A61C268DA6170470010025C024B1A6B35
S31508016600D207FCD4186270470010025C024B186B63
S3150801661000F00E00704700BF0010025C82B01FB583
S3150801662007930A9B04AC8B4228BF0B4604E9070073
S315080166301048D100079948BF03330160099948BF3B
S3150801664023F0030323F0704301F0E041194341F0BD
S3150801665000518160002102F0E042019C134343F09E
S315080166600053C16004618361416304B0BDE8104011
S3150801667002B070470000025C3F22034B1A631022E6
S31508016680DA6103229A6370470000025C024AD36BFF
S315080166909B07FCD4704700BF0000025C034B986A55
S315080166A010F0240018BF0420704700BF0000025CE8
S315080166B008B5FFF7F3FF064BDB6B23F47F4323F0A3
S315080166C0EF0303431EBF0122024BC3F8FC2F08BD8B
S315080166D00000025C00F0FF3F032208B5054B186075
S315080166E019615A63FFF7C8FFFFF7D0FFBDE80840F5
S315080166F0FFF7DEBF0000025C42680346182A10B5A0
S315080167000AD0202A1DD0102A2BD1174AD2F80424E0
S31508016710D4010AD4012013E0134AD2F804249001C3
S31508016720F8D50A6842F008020A6010481A688242D7
S315080167304FF000000ED10A6842F040020A60586024
S3150801674010BD094AD2F804245201E3D50A6842F079
S315080167500402E9E7064CA242F2D10A6842F0800235
S31508016760ECE70720ECE700BF0000025C2D2F0020B4
S315080167702E2F00200B4607B50749D1F80414C9077F
S3150801678008D5002100920246084600F05BF803B0DE
S315080167905DF804FB0120FAE70000025C1346064A8D
S315080167A0D2F80424D20504D50A46014600201CF075
S315080167B08AB80120704700BF0000025C13B5084C77
S315080167C0D4F80444E40508D5009313460A4601465D
S315080167D0002000F061F802B010BD0120FBE700BF00
S315080167E00000025C13B5084CD4F80444E40508D546
S315080167F0009313460A460146002000F071F802B0DC
S3150801680010BD0120FBE700BF0000025C70B504461D
S315080168100D4616468CB00A4A09AB07CA83E8070033
S315080168201A462146CDE90563CDE90333CDE901339E
S3150801683000954FF480301BF06AFF0CB070BD00BFA5
S3150801684048D60308F0B51C465B6815468DB01A078D
S31508016850129E1AD1CBB17268934216D10C4B0D4ACE
S3150801686053F8217009AB07CA83E807001A46294677
S31508016870CDE90533CDE90333CDE90163009447F446
S3150801688080701BF044FF0DB0F0BD0720FBE700BF89
S3150801689054D6030848D60308F0B516465A688DB08B
S315080168A0102A0D46129F15D17A68102A12D10A4A62
S315080168B009AC07CA84E8070022462946CDE90547F7
S315080168C0CDE90344CDE90144044800961BF01FFFB6
S315080168D00DB0F0BD0720FBE748D6030830000100DC
S315080168E0F0B516465A688DB0102A0D46129F15D175
S315080168F07A68102A12D10A4A09AC07CA84E807003D
S3150801690022462946CDE90574CDE90344CDE901447A
S31508016910044800961BF0FBFE0DB0F0BD0720FBE70F
S3150801692048D603081000010082B070B586B0149DE0
S3150801693003AE202D86E807000B9359D805EB85038E
S315080169408B4203D006236B438B4253D10C9BAB423C
S3150801695050D10F9BB3EB450F4CD1129A934249D1B3
S31508016960012229462220159BFFF758FD044630BB14
S31508016970034606220E210C20FFF73CFD0123CDE933
S3150801698000332B4696E807001BF03CFE0E230BAAA4
S31508016990009307CA2B461BF080FD0C23164C009367
S315080169A00EAA2B4607CA1BF0A8FD636823F07F03CE
S315080169B043F026036360FFF78FFD30B106242046B6
S315080169C006B0BDE8704002B07047636823F07F03E4
S315080169D043F022036360FFF77FFD04460028EDD1EB
S315080169E0062311AA009307CA2B461BF0B9FDE6E751
S315080169F00124E4E70724E2E70020025C70B598B0B9
S31508016A00002843D02C4C08AD0FCC0FC50FCC0FC5B1
S31508016A100FCC0FC594E80F0085E80F006D4604AE4C
S31508016A2004F1100320340FCB85E80F0094E80F001A
S31508016A3086E80F00FFF7ACFD0420FFF7BDFDFFF761
S31508016A4097FD3046FFF7CEFD002408AE56F8040B35
S31508016A500134FFF7D3FD102CF8D1FFF751FD0328B8
S31508016A60FBD90024FFF776FD2646FFF743FD55F8C7
S31508016A70043B01365840042E44EA0004F5D12CB1F2
S31508016A80012206200D4B1A7018B070BDFFF780FD64
S31508016A900820FFF747FD0020FFF74AFD0720FFF70B
S31508016AA04DFD4FF40070FFF74FFD0820FFF784FDF9
S31508016AB0FFF756FD0020E7E730D70308302F0020FF
S31508016AC008B5FFF765FD0122014B1A7008BD00BF25
S31508016AD02F2F002030B589B005AC84E80700FFF7F1
S31508016AE015FDC30501D5FFF7EBFF0A4D2B781BB141
S31508016AF01CF075F800232B70074B069AD3E90101A0
S31508016B008DE8030002921B6894E807001BF070FFEA
S31508016B1009B030BD2F2F002090D703081FB51CF0F0
S31508016B205EF8044630B1012206240D4B1A70204640
S31508016B3004B010BDFFF7DEFC0090FFF7DBFC019007
S31508016B40FFF7D8FC0290FFF7D5FC03906846FFF7DC
S31508016B5049FDFFF7B5FFFFF713FDFFF725FDE6E74B
S31508016B60302F002005289ABF014B185C002070477A
S31508016B709CD7030830B5154B87B00293144B039085
S31508016B80049346F611030D46059300F06DF9142892
S31508016B90044616D168461CF0F6F84FF0A8430322BE
S31508016BA002A95A6319601D619A63DA6B9207FCD1CF
S31508016BB0142C02D168461CF0F4F800F089F9044651
S31508016BC001E00028E9D0204607B030BD7822002030
S31508016BD0040000202DE9F04FB1B005468C46E94680
S31508016BE06E4F3B9EDDF8F8E0409C07F1100AC84657
S31508016BF0386879680837A8E803005745C146F6D1C9
S31508016C000EEB0208C8F1000909F00F09002E00F081
S31508016C10AF80774207F00F070121DDF8FCB0C4F118
S31508016C20100ACDF810B0059144F0005106914FEACB
S31508016C300A2101F4F85141F02101079106B96B4681
S31508016C400893002D40F09680002C00F0938004AB49
S31508016C500993002E00F0908046F000530A93002D08
S31508016C6040F08D80002C14BF0123212343EA07231A
S31508016C700B9308A942F00053CDF830C03D980D9109
S31508016C800E934FEA092343F041030F93109002B183
S31508016C900CA9002A16BF00224FF00052412342EAEE
S31508016CA00E021191129213933C9B3D4A149310AB19
S31508016CB015933C4B0021169340F6110317933A4B53
S31508016CC0002D08BF1346189314AB1993374B10229E
S31508016CD01A9311231B931CAB184625F090FC01222D
S31508016CE01D924AF080421E9200220346239205B95C
S31508016CF0EB46102C08BF01230DF1900A1022002142
S31508016D005046CDF880B02193229425F078FC002CCA
S31508016D1037D020AB002125938F4218BF534647F041
S31508016D20804226923A9A2CA88A4228922993134697
S31508016D300CBF4FF080430B46102233432B912A9305
S31508016D4025F05DFCFEB95346C8442D932CA948F09D
S31508016D50804318A82E93FFF70DFF30B92DB90346C6
S31508016D60A34212D1002818BF2C2031B0BDE8F08FFC
S31508016D70102751E701236BE747F000536EE72123FC
S31508016D8074E70123C6E728ABDEE703F1C0026A44CC
S31508016D9012F8C02C01331043E2E700BFA2D703085B
S31508016DA0B4D7030810000020B8D703080400002050
S31508016DB0F0B5C0299FB0249E4FD0B1F5807F04D08D
S31508016DC0802941D029201FB0F0BD40F2344440F259
S31508016DD01445002E08BF2C462127102501940124AD
S31508016DE00296039404950597259F069706B102AC6A
S31508016DF007940124089509940A9221220B940C956B
S31508016E000D92174A0AAC0E92164A0F94109242F640
S31508016E1011021192129313941495159201AA1692BE
S31508016E20CBB112AB1793042318931123199316ABFD
S31508016E301A901B9340F61103C9081C911AA806A9B2
S31508016E401D93FFF797FEBEE7002E14BF4FF4866425
S31508016E504FF48264C0E70EABE4E70F20B3E700BF47
S31508016E60BCD703081000001038B5164B5A6E42F00D
S31508016E7004025A66D3F8802242F00102C3F880223E
S31508016E80114B5B68C3F3080343B14FF0A842D36BB8
S31508016E9013F0430FFBD11424204638BD4FF0A84305
S31508016EA0DC6B14F04304FBD1084D2B681BB9042194
S31508016EB0284602F0F9FA2B68013343F000432B60A8
S31508016EC0EAE700BF0080005000ED00E078220020CC
S31508016ED0014B00205B68704700ED00E04FF400525B
S31508016EE0034B00209A660322C3F86022704700BF4D
S31508016EF00090005008B5FFF70FFBC30708D5FFF749
S31508016F0085FB062804D00A28F5D1FFF7D9FDF2E753
S31508016F104FF40052034B00209A660322C3F86022FD
S31508016F2008BD00BF00A000504FF40052084B10B531
S31508016F309A660322C3F860221BF041FF0446FFF755
S31508016F40D9FF00280CBF20466FF0920010BD00BF84
S31508016F500090005037B5154D2B782BBB0093144B79
S31508016F60019302AB13E90300FFF736FA4FF4005217
S31508016F70104B9A660322C3F860221BF020FF0446D1
S31508016F801BF055FE40F000401BF08FFBFFF7B2FFE8
S31508016F9028B1002C08BF0446204603B030BD002C9A
S31508016FA0FAD101232B70F7E70024F5E7312F0020EA
S31508016FB0472C030800900050012300F01F02A0F59A
S31508016FC006200949A0F550604009934051F8202050
S31508016FD01A4341F82020054951F8202022EA0303E3
S31508016FE041F82030704700BF7C2200209022002003
S31508016FF00121A0F506230F4AA3F550635B0900F0AA
S315080170001F0001FA00F052F8231008430A4942F812
S315080170102300D1E90030034488680344C868096934
S3150801702003445B1802BFC2E90033C2E902331361A4
S31508017030704700BF902200207C2200202DE9F04FE6
S31508017040A9B002921F46DDE9328904460822CDE934
S315080170500301414021FA02F34B40980702F1080265
S3150801706018BF9B00202A1C44F4D18123B4FBF3F3F7
S3150801707003EBC313E41A784B04F506241B7804F5CD
S315080170805064002B3CD1FDF765FA014620B16FF03B
S31508017090910029B0BDE8F08F4022059008A825F097
S315080170A0AEFA4022059918A825F0A9FA6B4EDFF821
S315080170B0C4A1334603F10F0B102208A9DAF8000020
S315080170C0CDF800B0059324F0F8FB00220146059B94
S315080170D0103608AD914244D1CDF800B01022DAF845
S315080170E0000018A924F0F2FB4FF0000B034618AD77
S315080170F05B4542D15A4B9E42DBD10122564B1A704F
S3150801710081250026DFF86CA1A4F50623554AA3F5C7
S3150801711050635B0952F8232004F01F01CA40D207C5
S315080171203ED4514A52F82300C84010F001002DD030
S31508017130002E08BF26468123A4F50724A4F2FF449E
S31508017140B4FBF3F303EBC313E41A04F50624013D78
S3150801715004F55064D8D1029BD3B1CEB1349B1E60DD
S3150801716063E055F8040BCDE906230591FFF724FFE3
S31508017170069A079B05990132ACE755F8040B059366
S315080171800BF1010BFFF734FF059BB1E7029B13B91E
S315080171906FF08B007DE7349B002E45D01E6078E7A3
S315080171A0B8F1000F02D00023C8F80030B9F1000F7A
S315080171B002D00023C9F800304FF0100B00233A46DD
S315080171C02146DAF80000CDF800B012F0D5F970BB07
S315080171D0B8F1000F01D0C8F800B03B68234A9342C2
S315080171E02FD1B8F1000F11D0B9F1000F0ED04B46CF
S315080171F02146DAF8000018AA12F012FAB8B9D9F835
S315080172000030D8F800209B1AC9F80030D7E90223C4
S31508017210DDE90310834208BF8A428CD1029B13B170
S315080172207B68012B15D0349B1C60002031E7104B7D
S31508017230984206D01233984203D0133B9842E5D0C0
S3150801724025E72146DAF8000012F030FA0028DDD0E9
S315080172509EE76FF084001CE7322F0020006D0800BE
S31508017260007108007C22002090220020105D175E24
S31508017270FFDF00F0101100202DE9F04F87B082469C
S31508017280894698461646DDF840B02AB1002B4ED0FD
S3150801729040F26C739A424DD8BBF1010F4DD80024C8
S315080172A006F110073946012005941BF016FF05461D
S315080172B0002845D021463A4625F0A1F905ABCDE986
S315080172C0014300942B46012250464946FFF7B6FE74
S315080172D0044680B110F18C0F08BF6FF08D043A4651
S315080172E00021284625F08BF928461BF007FF204682
S315080172F007B0BDE8F08F144BC5E902A92B60C5F8A4
S3150801730004B02EB13246414605F1100025F050F978
S315080173100E483B462A460599006812F095F818B9B1
S315080173200598FFF749FEDAE76FF09104D7E76FF0A2
S315080173308604DCE76FF09104D9E76FF08504D6E798
S315080173406FF08C04D3E700BF105D175E10110020A3
S315080173502DE9F0438DB08146DDE914780C461546D2
S315080173601E469BB1B8F1000F05D16FF08604204681
S315080173700DB0BDE8F083002FF7D0B7F1005FF4D365
S31508017380C3F1005303F580339F42EED81022002142
S3150801739008A825F034F9002207AB029305AB01933F
S315080173A006AB21460093484608ABCDE90522FFF70F
S315080173B045FE04460028DAD10599DEB1A94203D86B
S315080173C00029D2D115B1D0E70029FBD0491BB1421A
S315080173D028BF3146069B0948C8F8001000913A466D
S315080173E0079900682B4412F0C7F8002818BF6FF0F8
S315080173F09104BCE7A942E9D2B7E700BF1011002002
S3150801740030B58DB00C4605461022002108A825F096
S31508017410F6F8002207AB029305AB019306AB2146AA
S315080174200093284608ABCDE90522FFF707FE044677
S31508017430D0B9099B012B1AD0104B0799186812F07D
S3150801744035F9B8B9012207980D49A0F50623A3F520
S3150801745050635B0900F01F05AA4051F823506A40A2
S3150801746041F82320FFF7C4FD20460DB030BD6FF06B
S315080174708404F9E76FF09104F6E700BF10110020C4
S315080174807C2200202DE9F0438BB01746DDE915452E
S31508017490DDE913269C46DDE91738894621B96FF0DF
S315080174A086000BB0BDE8F083002FF8D00EB9002C8A
S315080174B0F5D1129909B9002AF1D10DB9002BEED1EE
S315080174C0B8F1000FEBD0254A944544D10288B2F5AC
S315080174D0105F40D14288B7EBD20FE0D322F04001CA
S315080174E0802902D0B2F5807FD9D11CB92046C8F8C7
S315080174F00040D6E7AE421CD23219954219D29C42B7
S31508017500CDD831462246284625F05FF82E4614F096
